{
	"contracts/AddFiveStorage.sol": {
		"AddFiveStorage": {
			"abi": [
				{
					"inputs": [
						{
							"internalType": "string",
							"name": "_name",
							"type": "string"
						},
						{
							"internalType": "uint256",
							"name": "_favoriteNumber",
							"type": "uint256"
						}
					],
					"name": "addPerson",
					"outputs": [],
					"stateMutability": "nonpayable",
					"type": "function"
				},
				{
					"inputs": [
						{
							"internalType": "uint256",
							"name": "",
							"type": "uint256"
						}
					],
					"name": "listOfPeople",
					"outputs": [
						{
							"internalType": "uint256",
							"name": "favouriteNumber",
							"type": "uint256"
						},
						{
							"internalType": "string",
							"name": "name",
							"type": "string"
						}
					],
					"stateMutability": "view",
					"type": "function"
				},
				{
					"inputs": [
						{
							"internalType": "uint256",
							"name": "",
							"type": "uint256"
						}
					],
					"name": "myfavoriteNumber",
					"outputs": [
						{
							"internalType": "uint256",
							"name": "",
							"type": "uint256"
						}
					],
					"stateMutability": "view",
					"type": "function"
				},
				{
					"inputs": [
						{
							"internalType": "string",
							"name": "",
							"type": "string"
						}
					],
					"name": "nameToFavoriteNumber",
					"outputs": [
						{
							"internalType": "uint256",
							"name": "",
							"type": "uint256"
						}
					],
					"stateMutability": "view",
					"type": "function"
				},
				{
					"inputs": [],
					"name": "retrieve",
					"outputs": [
						{
							"internalType": "uint256[]",
							"name": "",
							"type": "uint256[]"
						}
					],
					"stateMutability": "view",
					"type": "function"
				},
				{
					"inputs": [],
					"name": "sayHello",
					"outputs": [
						{
							"internalType": "string",
							"name": "",
							"type": "string"
						}
					],
					"stateMutability": "pure",
					"type": "function"
				},
				{
					"inputs": [
						{
							"internalType": "uint256",
							"name": "_newNumber",
							"type": "uint256"
						}
					],
					"name": "store",
					"outputs": [],
					"stateMutability": "nonpayable",
					"type": "function"
				}
			],
			"devdoc": {
				"kind": "dev",
				"methods": {},
				"version": 1
			},
			"evm": {
				"assembly": "    /* \"contracts/AddFiveStorage.sol\":109:480  contract AddFiveStorage is SimpleStorage{... */\n  mstore(0x40, 0x80)\n  callvalue\n  dup1\n  iszero\n  tag_1\n  jumpi\n  0x00\n  dup1\n  revert\ntag_1:\n  pop\n  dataSize(sub_0)\n  dup1\n  dataOffset(sub_0)\n  0x00\n  codecopy\n  0x00\n  return\nstop\n\nsub_0: assembly {\n        /* \"contracts/AddFiveStorage.sol\":109:480  contract AddFiveStorage is SimpleStorage{... */\n      mstore(0x40, 0x80)\n      callvalue\n      dup1\n      iszero\n      tag_1\n      jumpi\n      0x00\n      dup1\n      revert\n    tag_1:\n      pop\n      jumpi(tag_2, lt(calldatasize, 0x04))\n      shr(0xe0, calldataload(0x00))\n      dup1\n      0x6f760f41\n      gt\n      tag_10\n      jumpi\n      dup1\n      0x6f760f41\n      eq\n      tag_6\n      jumpi\n      dup1\n      0x877d0867\n      eq\n      tag_7\n      jumpi\n      dup1\n      0x8bab8dd5\n      eq\n      tag_8\n      jumpi\n      dup1\n      0xef5fb05b\n      eq\n      tag_9\n      jumpi\n      jump(tag_2)\n    tag_10:\n      dup1\n      0x2e64cec1\n      eq\n      tag_3\n      jumpi\n      dup1\n      0x2ebce631\n      eq\n      tag_4\n      jumpi\n      dup1\n      0x6057361d\n      eq\n      tag_5\n      jumpi\n    tag_2:\n      0x00\n      dup1\n      revert\n        /* \"contracts/SimpleStorage.sol\":827:920  function retrieve() public view returns(uint256[] memory){... */\n    tag_3:\n      tag_11\n      tag_12\n      jump\t// in\n    tag_11:\n      mload(0x40)\n      tag_13\n      swap2\n      swap1\n      tag_14\n      jump\t// in\n    tag_13:\n      mload(0x40)\n      dup1\n      swap2\n      sub\n      swap1\n      return\n        /* \"contracts/SimpleStorage.sol\":428:456  Person[] public listOfPeople */\n    tag_4:\n      tag_15\n      0x04\n      dup1\n      calldatasize\n      sub\n      dup2\n      add\n      swap1\n      tag_16\n      swap2\n      swap1\n      tag_17\n      jump\t// in\n    tag_16:\n      tag_18\n      jump\t// in\n    tag_15:\n      mload(0x40)\n      tag_19\n      swap3\n      swap2\n      swap1\n      tag_20\n      jump\t// in\n    tag_19:\n      mload(0x40)\n      dup1\n      swap2\n      sub\n      swap1\n      return\n        /* \"contracts/AddFiveStorage.sol\":372:478  function store (uint256 _newNumber) public override {... */\n    tag_5:\n      tag_21\n      0x04\n      dup1\n      calldatasize\n      sub\n      dup2\n      add\n      swap1\n      tag_22\n      swap2\n      swap1\n      tag_17\n      jump\t// in\n    tag_22:\n      tag_23\n      jump\t// in\n    tag_21:\n      stop\n        /* \"contracts/SimpleStorage.sol\":987:1182  function addPerson( string memory _name, uint256 _favoriteNumber) public {... */\n    tag_6:\n      tag_24\n      0x04\n      dup1\n      calldatasize\n      sub\n      dup2\n      add\n      swap1\n      tag_25\n      swap2\n      swap1\n      tag_26\n      jump\t// in\n    tag_25:\n      tag_27\n      jump\t// in\n    tag_24:\n      stop\n        /* \"contracts/SimpleStorage.sol\":180:213  uint256[] public myfavoriteNumber */\n    tag_7:\n      tag_28\n      0x04\n      dup1\n      calldatasize\n      sub\n      dup2\n      add\n      swap1\n      tag_29\n      swap2\n      swap1\n      tag_17\n      jump\t// in\n    tag_29:\n      tag_30\n      jump\t// in\n    tag_28:\n      mload(0x40)\n      tag_31\n      swap2\n      swap1\n      tag_32\n      jump\t// in\n    tag_31:\n      mload(0x40)\n      dup1\n      swap2\n      sub\n      swap1\n      return\n        /* \"contracts/SimpleStorage.sol\":543:597  mapping(string => uint256) public nameToFavoriteNumber */\n    tag_8:\n      tag_33\n      0x04\n      dup1\n      calldatasize\n      sub\n      dup2\n      add\n      swap1\n      tag_34\n      swap2\n      swap1\n      tag_35\n      jump\t// in\n    tag_34:\n      tag_36\n      jump\t// in\n    tag_33:\n      mload(0x40)\n      tag_37\n      swap2\n      swap1\n      tag_32\n      jump\t// in\n    tag_37:\n      mload(0x40)\n      dup1\n      swap2\n      sub\n      swap1\n      return\n        /* \"contracts/AddFiveStorage.sol\":217:306  function sayHello() public pure returns(string memory){... */\n    tag_9:\n      tag_38\n      tag_39\n      jump\t// in\n    tag_38:\n      mload(0x40)\n      tag_40\n      swap2\n      swap1\n      tag_41\n      jump\t// in\n    tag_40:\n      mload(0x40)\n      dup1\n      swap2\n      sub\n      swap1\n      return\n        /* \"contracts/SimpleStorage.sol\":827:920  function retrieve() public view returns(uint256[] memory){... */\n    tag_12:\n        /* \"contracts/SimpleStorage.sol\":867:883  uint256[] memory */\n      0x60\n        /* \"contracts/SimpleStorage.sol\":897:913  myfavoriteNumber */\n      0x00\n        /* \"contracts/SimpleStorage.sol\":890:913  return myfavoriteNumber */\n      dup1\n      sload\n      dup1\n      0x20\n      mul\n      0x20\n      add\n      mload(0x40)\n      swap1\n      dup2\n      add\n      0x40\n      mstore\n      dup1\n      swap3\n      swap2\n      swap1\n      dup2\n      dup2\n      mstore\n      0x20\n      add\n      dup3\n      dup1\n      sload\n      dup1\n      iszero\n      tag_43\n      jumpi\n      0x20\n      mul\n      dup3\n      add\n      swap2\n      swap1\n      0x00\n      mstore\n      keccak256(0x00, 0x20)\n      swap1\n    tag_44:\n      dup2\n      sload\n      dup2\n      mstore\n      0x20\n      add\n      swap1\n      0x01\n      add\n      swap1\n      dup1\n      dup4\n      gt\n      tag_44\n      jumpi\n    tag_43:\n      pop\n      pop\n      pop\n      pop\n      pop\n      swap1\n      pop\n        /* \"contracts/SimpleStorage.sol\":827:920  function retrieve() public view returns(uint256[] memory){... */\n      swap1\n      jump\t// out\n        /* \"contracts/SimpleStorage.sol\":428:456  Person[] public listOfPeople */\n    tag_18:\n      0x01\n      dup2\n      dup2\n      sload\n      dup2\n      lt\n      tag_45\n      jumpi\n      0x00\n      dup1\n      revert\n    tag_45:\n      swap1\n      0x00\n      mstore\n      keccak256(0x00, 0x20)\n      swap1\n      0x02\n      mul\n      add\n      0x00\n      swap2\n      pop\n      swap1\n      pop\n      dup1\n      0x00\n      add\n      sload\n      swap1\n      dup1\n      0x01\n      add\n      dup1\n      sload\n      tag_47\n      swap1\n      tag_48\n      jump\t// in\n    tag_47:\n      dup1\n      0x1f\n      add\n      0x20\n      dup1\n      swap2\n      div\n      mul\n      0x20\n      add\n      mload(0x40)\n      swap1\n      dup2\n      add\n      0x40\n      mstore\n      dup1\n      swap3\n      swap2\n      swap1\n      dup2\n      dup2\n      mstore\n      0x20\n      add\n      dup3\n      dup1\n      sload\n      tag_49\n      swap1\n      tag_48\n      jump\t// in\n    tag_49:\n      dup1\n      iszero\n      tag_50\n      jumpi\n      dup1\n      0x1f\n      lt\n      tag_51\n      jumpi\n      0x0100\n      dup1\n      dup4\n      sload\n      div\n      mul\n      dup4\n      mstore\n      swap2\n      0x20\n      add\n      swap2\n      jump(tag_50)\n    tag_51:\n      dup3\n      add\n      swap2\n      swap1\n      0x00\n      mstore\n      keccak256(0x00, 0x20)\n      swap1\n    tag_52:\n      dup2\n      sload\n      dup2\n      mstore\n      swap1\n      0x01\n      add\n      swap1\n      0x20\n      add\n      dup1\n      dup4\n      gt\n      tag_52\n      jumpi\n      dup3\n      swap1\n      sub\n      0x1f\n      and\n      dup3\n      add\n      swap2\n    tag_50:\n      pop\n      pop\n      pop\n      pop\n      pop\n      swap1\n      pop\n      dup3\n      jump\t// out\n        /* \"contracts/AddFiveStorage.sol\":372:478  function store (uint256 _newNumber) public override {... */\n    tag_23:\n        /* \"contracts/AddFiveStorage.sol\":434:450  myfavoriteNumber */\n      0x00\n        /* \"contracts/AddFiveStorage.sol\":469:470  5 */\n      0x05\n        /* \"contracts/AddFiveStorage.sol\":456:466  _newNumber */\n      dup3\n        /* \"contracts/AddFiveStorage.sol\":456:470  _newNumber + 5 */\n      tag_54\n      swap2\n      swap1\n      tag_55\n      jump\t// in\n    tag_54:\n        /* \"contracts/AddFiveStorage.sol\":434:471  myfavoriteNumber.push(_newNumber + 5) */\n      swap1\n      dup1\n      0x01\n      dup2\n      sload\n      add\n      dup1\n      dup3\n      sstore\n      dup1\n      swap2\n      pop\n      pop\n      0x01\n      swap1\n      sub\n      swap1\n      0x00\n      mstore\n      keccak256(0x00, 0x20)\n      add\n      0x00\n      swap1\n      swap2\n      swap1\n      swap2\n      swap1\n      swap2\n      pop\n      sstore\n        /* \"contracts/AddFiveStorage.sol\":372:478  function store (uint256 _newNumber) public override {... */\n      pop\n      jump\t// out\n        /* \"contracts/SimpleStorage.sol\":987:1182  function addPerson( string memory _name, uint256 _favoriteNumber) public {... */\n    tag_27:\n        /* \"contracts/SimpleStorage.sol\":1070:1082  listOfPeople */\n      0x01\n        /* \"contracts/SimpleStorage.sol\":1088:1118  Person(_favoriteNumber, _name) */\n      mload(0x40)\n      dup1\n      0x40\n      add\n      0x40\n      mstore\n      dup1\n        /* \"contracts/SimpleStorage.sol\":1095:1110  _favoriteNumber */\n      dup4\n        /* \"contracts/SimpleStorage.sol\":1088:1118  Person(_favoriteNumber, _name) */\n      dup2\n      mstore\n      0x20\n      add\n        /* \"contracts/SimpleStorage.sol\":1112:1117  _name */\n      dup5\n        /* \"contracts/SimpleStorage.sol\":1088:1118  Person(_favoriteNumber, _name) */\n      dup2\n      mstore\n      pop\n        /* \"contracts/SimpleStorage.sol\":1070:1119  listOfPeople.push(Person(_favoriteNumber, _name)) */\n      swap1\n      dup1\n      0x01\n      dup2\n      sload\n      add\n      dup1\n      dup3\n      sstore\n      dup1\n      swap2\n      pop\n      pop\n      0x01\n      swap1\n      sub\n      swap1\n      0x00\n      mstore\n      keccak256(0x00, 0x20)\n      swap1\n      0x02\n      mul\n      add\n      0x00\n      swap1\n      swap2\n      swap1\n      swap2\n      swap1\n      swap2\n      pop\n      0x00\n      dup3\n      add\n      mload\n      dup2\n      0x00\n      add\n      sstore\n      0x20\n      dup3\n      add\n      mload\n      dup2\n      0x01\n      add\n      swap1\n      dup2\n      tag_59\n      swap2\n      swap1\n      tag_60\n      jump\t// in\n    tag_59:\n      pop\n      pop\n      pop\n        /* \"contracts/SimpleStorage.sol\":1160:1175  _favoriteNumber */\n      dup1\n        /* \"contracts/SimpleStorage.sol\":1129:1149  nameToFavoriteNumber */\n      0x02\n        /* \"contracts/SimpleStorage.sol\":1150:1155  _name */\n      dup4\n        /* \"contracts/SimpleStorage.sol\":1129:1156  nameToFavoriteNumber[_name] */\n      mload(0x40)\n      tag_61\n      swap2\n      swap1\n      tag_62\n      jump\t// in\n    tag_61:\n      swap1\n      dup2\n      mstore\n      0x20\n      add\n      mload(0x40)\n      dup1\n      swap2\n      sub\n      swap1\n      keccak256\n        /* \"contracts/SimpleStorage.sol\":1129:1175  nameToFavoriteNumber[_name]  = _favoriteNumber */\n      dup2\n      swap1\n      sstore\n      pop\n        /* \"contracts/SimpleStorage.sol\":987:1182  function addPerson( string memory _name, uint256 _favoriteNumber) public {... */\n      pop\n      pop\n      jump\t// out\n        /* \"contracts/SimpleStorage.sol\":180:213  uint256[] public myfavoriteNumber */\n    tag_30:\n      0x00\n      dup2\n      dup2\n      sload\n      dup2\n      lt\n      tag_63\n      jumpi\n      0x00\n      dup1\n      revert\n    tag_63:\n      swap1\n      0x00\n      mstore\n      keccak256(0x00, 0x20)\n      add\n      0x00\n      swap2\n      pop\n      swap1\n      pop\n      sload\n      dup2\n      jump\t// out\n        /* \"contracts/SimpleStorage.sol\":543:597  mapping(string => uint256) public nameToFavoriteNumber */\n    tag_36:\n      0x02\n      dup2\n      dup1\n      mload\n      0x20\n      dup2\n      add\n      dup3\n      add\n      dup1\n      mload\n      dup5\n      dup3\n      mstore\n      0x20\n      dup4\n      add\n      0x20\n      dup6\n      add\n      keccak256\n      dup2\n      dup4\n      mstore\n      dup1\n      swap6\n      pop\n      pop\n      pop\n      pop\n      pop\n      pop\n      0x00\n      swap2\n      pop\n      swap1\n      pop\n      sload\n      dup2\n      jump\t// out\n        /* \"contracts/AddFiveStorage.sol\":217:306  function sayHello() public pure returns(string memory){... */\n    tag_39:\n        /* \"contracts/AddFiveStorage.sol\":257:270  string memory */\n      0x60\n        /* \"contracts/AddFiveStorage.sol\":281:299  return \"Hellllooo\" */\n      mload(0x40)\n      dup1\n      0x40\n      add\n      0x40\n      mstore\n      dup1\n      0x09\n      dup2\n      mstore\n      0x20\n      add\n      0x48656c6c6c6c6f6f6f0000000000000000000000000000000000000000000000\n      dup2\n      mstore\n      pop\n      swap1\n      pop\n        /* \"contracts/AddFiveStorage.sol\":217:306  function sayHello() public pure returns(string memory){... */\n      swap1\n      jump\t// out\n        /* \"#utility.yul\":7:121   */\n    tag_66:\n        /* \"#utility.yul\":74:80   */\n      0x00\n        /* \"#utility.yul\":108:113   */\n      dup2\n        /* \"#utility.yul\":102:114   */\n      mload\n        /* \"#utility.yul\":92:114   */\n      swap1\n      pop\n        /* \"#utility.yul\":7:121   */\n      swap2\n      swap1\n      pop\n      jump\t// out\n        /* \"#utility.yul\":127:311   */\n    tag_67:\n        /* \"#utility.yul\":226:237   */\n      0x00\n        /* \"#utility.yul\":260:266   */\n      dup3\n        /* \"#utility.yul\":255:258   */\n      dup3\n        /* \"#utility.yul\":248:267   */\n      mstore\n        /* \"#utility.yul\":300:304   */\n      0x20\n        /* \"#utility.yul\":295:298   */\n      dup3\n        /* \"#utility.yul\":291:305   */\n      add\n        /* \"#utility.yul\":276:305   */\n      swap1\n      pop\n        /* \"#utility.yul\":127:311   */\n      swap3\n      swap2\n      pop\n      pop\n      jump\t// out\n        /* \"#utility.yul\":317:449   */\n    tag_68:\n        /* \"#utility.yul\":384:388   */\n      0x00\n        /* \"#utility.yul\":407:410   */\n      dup2\n        /* \"#utility.yul\":399:410   */\n      swap1\n      pop\n        /* \"#utility.yul\":437:441   */\n      0x20\n        /* \"#utility.yul\":432:435   */\n      dup3\n        /* \"#utility.yul\":428:442   */\n      add\n        /* \"#utility.yul\":420:442   */\n      swap1\n      pop\n        /* \"#utility.yul\":317:449   */\n      swap2\n      swap1\n      pop\n      jump\t// out\n        /* \"#utility.yul\":455:532   */\n    tag_69:\n        /* \"#utility.yul\":492:499   */\n      0x00\n        /* \"#utility.yul\":521:526   */\n      dup2\n        /* \"#utility.yul\":510:526   */\n      swap1\n      pop\n        /* \"#utility.yul\":455:532   */\n      swap2\n      swap1\n      pop\n      jump\t// out\n        /* \"#utility.yul\":538:646   */\n    tag_70:\n        /* \"#utility.yul\":615:639   */\n      tag_119\n        /* \"#utility.yul\":633:638   */\n      dup2\n        /* \"#utility.yul\":615:639   */\n      tag_69\n      jump\t// in\n    tag_119:\n        /* \"#utility.yul\":610:613   */\n      dup3\n        /* \"#utility.yul\":603:640   */\n      mstore\n        /* \"#utility.yul\":538:646   */\n      pop\n      pop\n      jump\t// out\n        /* \"#utility.yul\":652:831   */\n    tag_71:\n        /* \"#utility.yul\":721:731   */\n      0x00\n        /* \"#utility.yul\":742:788   */\n      tag_121\n        /* \"#utility.yul\":784:787   */\n      dup4\n        /* \"#utility.yul\":776:782   */\n      dup4\n        /* \"#utility.yul\":742:788   */\n      tag_70\n      jump\t// in\n    tag_121:\n        /* \"#utility.yul\":820:824   */\n      0x20\n        /* \"#utility.yul\":815:818   */\n      dup4\n        /* \"#utility.yul\":811:825   */\n      add\n        /* \"#utility.yul\":797:825   */\n      swap1\n      pop\n        /* \"#utility.yul\":652:831   */\n      swap3\n      swap2\n      pop\n      pop\n      jump\t// out\n        /* \"#utility.yul\":837:950   */\n    tag_72:\n        /* \"#utility.yul\":907:911   */\n      0x00\n        /* \"#utility.yul\":939:943   */\n      0x20\n        /* \"#utility.yul\":934:937   */\n      dup3\n        /* \"#utility.yul\":930:944   */\n      add\n        /* \"#utility.yul\":922:944   */\n      swap1\n      pop\n        /* \"#utility.yul\":837:950   */\n      swap2\n      swap1\n      pop\n      jump\t// out\n        /* \"#utility.yul\":986:1718   */\n    tag_73:\n        /* \"#utility.yul\":1105:1108   */\n      0x00\n        /* \"#utility.yul\":1134:1188   */\n      tag_124\n        /* \"#utility.yul\":1182:1187   */\n      dup3\n        /* \"#utility.yul\":1134:1188   */\n      tag_66\n      jump\t// in\n    tag_124:\n        /* \"#utility.yul\":1204:1290   */\n      tag_125\n        /* \"#utility.yul\":1283:1289   */\n      dup2\n        /* \"#utility.yul\":1278:1281   */\n      dup6\n        /* \"#utility.yul\":1204:1290   */\n      tag_67\n      jump\t// in\n    tag_125:\n        /* \"#utility.yul\":1197:1290   */\n      swap4\n      pop\n        /* \"#utility.yul\":1314:1370   */\n      tag_126\n        /* \"#utility.yul\":1364:1369   */\n      dup4\n        /* \"#utility.yul\":1314:1370   */\n      tag_68\n      jump\t// in\n    tag_126:\n        /* \"#utility.yul\":1393:1400   */\n      dup1\n        /* \"#utility.yul\":1424:1425   */\n      0x00\n        /* \"#utility.yul\":1409:1693   */\n    tag_127:\n        /* \"#utility.yul\":1434:1440   */\n      dup4\n        /* \"#utility.yul\":1431:1432   */\n      dup2\n        /* \"#utility.yul\":1428:1441   */\n      lt\n        /* \"#utility.yul\":1409:1693   */\n      iszero\n      tag_129\n      jumpi\n        /* \"#utility.yul\":1510:1516   */\n      dup2\n        /* \"#utility.yul\":1504:1517   */\n      mload\n        /* \"#utility.yul\":1537:1600   */\n      tag_130\n        /* \"#utility.yul\":1596:1599   */\n      dup9\n        /* \"#utility.yul\":1581:1594   */\n      dup3\n        /* \"#utility.yul\":1537:1600   */\n      tag_71\n      jump\t// in\n    tag_130:\n        /* \"#utility.yul\":1530:1600   */\n      swap8\n      pop\n        /* \"#utility.yul\":1623:1683   */\n      tag_131\n        /* \"#utility.yul\":1676:1682   */\n      dup4\n        /* \"#utility.yul\":1623:1683   */\n      tag_72\n      jump\t// in\n    tag_131:\n        /* \"#utility.yul\":1613:1683   */\n      swap3\n      pop\n        /* \"#utility.yul\":1469:1693   */\n      pop\n        /* \"#utility.yul\":1456:1457   */\n      0x01\n        /* \"#utility.yul\":1453:1454   */\n      dup2\n        /* \"#utility.yul\":1449:1458   */\n      add\n        /* \"#utility.yul\":1444:1458   */\n      swap1\n      pop\n        /* \"#utility.yul\":1409:1693   */\n      jump(tag_127)\n    tag_129:\n        /* \"#utility.yul\":1413:1427   */\n      pop\n        /* \"#utility.yul\":1709:1712   */\n      dup6\n        /* \"#utility.yul\":1702:1712   */\n      swap4\n      pop\n        /* \"#utility.yul\":1110:1718   */\n      pop\n      pop\n      pop\n        /* \"#utility.yul\":986:1718   */\n      swap3\n      swap2\n      pop\n      pop\n      jump\t// out\n        /* \"#utility.yul\":1724:2097   */\n    tag_14:\n        /* \"#utility.yul\":1867:1871   */\n      0x00\n        /* \"#utility.yul\":1905:1907   */\n      0x20\n        /* \"#utility.yul\":1894:1903   */\n      dup3\n        /* \"#utility.yul\":1890:1908   */\n      add\n        /* \"#utility.yul\":1882:1908   */\n      swap1\n      pop\n        /* \"#utility.yul\":1954:1963   */\n      dup2\n        /* \"#utility.yul\":1948:1952   */\n      dup2\n        /* \"#utility.yul\":1944:1964   */\n      sub\n        /* \"#utility.yul\":1940:1941   */\n      0x00\n        /* \"#utility.yul\":1929:1938   */\n      dup4\n        /* \"#utility.yul\":1925:1942   */\n      add\n        /* \"#utility.yul\":1918:1965   */\n      mstore\n        /* \"#utility.yul\":1982:2090   */\n      tag_133\n        /* \"#utility.yul\":2085:2089   */\n      dup2\n        /* \"#utility.yul\":2076:2082   */\n      dup5\n        /* \"#utility.yul\":1982:2090   */\n      tag_73\n      jump\t// in\n    tag_133:\n        /* \"#utility.yul\":1974:2090   */\n      swap1\n      pop\n        /* \"#utility.yul\":1724:2097   */\n      swap3\n      swap2\n      pop\n      pop\n      jump\t// out\n        /* \"#utility.yul\":2103:2178   */\n    tag_74:\n        /* \"#utility.yul\":2136:2142   */\n      0x00\n        /* \"#utility.yul\":2169:2171   */\n      0x40\n        /* \"#utility.yul\":2163:2172   */\n      mload\n        /* \"#utility.yul\":2153:2172   */\n      swap1\n      pop\n        /* \"#utility.yul\":2103:2178   */\n      swap1\n      jump\t// out\n        /* \"#utility.yul\":2184:2301   */\n    tag_75:\n        /* \"#utility.yul\":2293:2294   */\n      0x00\n        /* \"#utility.yul\":2290:2291   */\n      dup1\n        /* \"#utility.yul\":2283:2295   */\n      revert\n        /* \"#utility.yul\":2307:2424   */\n    tag_76:\n        /* \"#utility.yul\":2416:2417   */\n      0x00\n        /* \"#utility.yul\":2413:2414   */\n      dup1\n        /* \"#utility.yul\":2406:2418   */\n      revert\n        /* \"#utility.yul\":2430:2552   */\n    tag_77:\n        /* \"#utility.yul\":2503:2527   */\n      tag_138\n        /* \"#utility.yul\":2521:2526   */\n      dup2\n        /* \"#utility.yul\":2503:2527   */\n      tag_69\n      jump\t// in\n    tag_138:\n        /* \"#utility.yul\":2496:2501   */\n      dup2\n        /* \"#utility.yul\":2493:2528   */\n      eq\n        /* \"#utility.yul\":2483:2546   */\n      tag_139\n      jumpi\n        /* \"#utility.yul\":2542:2543   */\n      0x00\n        /* \"#utility.yul\":2539:2540   */\n      dup1\n        /* \"#utility.yul\":2532:2544   */\n      revert\n        /* \"#utility.yul\":2483:2546   */\n    tag_139:\n        /* \"#utility.yul\":2430:2552   */\n      pop\n      jump\t// out\n        /* \"#utility.yul\":2558:2697   */\n    tag_78:\n        /* \"#utility.yul\":2604:2609   */\n      0x00\n        /* \"#utility.yul\":2642:2648   */\n      dup2\n        /* \"#utility.yul\":2629:2649   */\n      calldataload\n        /* \"#utility.yul\":2620:2649   */\n      swap1\n      pop\n        /* \"#utility.yul\":2658:2691   */\n      tag_141\n        /* \"#utility.yul\":2685:2690   */\n      dup2\n        /* \"#utility.yul\":2658:2691   */\n      tag_77\n      jump\t// in\n    tag_141:\n        /* \"#utility.yul\":2558:2697   */\n      swap3\n      swap2\n      pop\n      pop\n      jump\t// out\n        /* \"#utility.yul\":2703:3032   */\n    tag_17:\n        /* \"#utility.yul\":2762:2768   */\n      0x00\n        /* \"#utility.yul\":2811:2813   */\n      0x20\n        /* \"#utility.yul\":2799:2808   */\n      dup3\n        /* \"#utility.yul\":2790:2797   */\n      dup5\n        /* \"#utility.yul\":2786:2809   */\n      sub\n        /* \"#utility.yul\":2782:2814   */\n      slt\n        /* \"#utility.yul\":2779:2898   */\n      iszero\n      tag_143\n      jumpi\n        /* \"#utility.yul\":2817:2896   */\n      tag_144\n      tag_75\n      jump\t// in\n    tag_144:\n        /* \"#utility.yul\":2779:2898   */\n    tag_143:\n        /* \"#utility.yul\":2937:2938   */\n      0x00\n        /* \"#utility.yul\":2962:3015   */\n      tag_145\n        /* \"#utility.yul\":3007:3014   */\n      dup5\n        /* \"#utility.yul\":2998:3004   */\n      dup3\n        /* \"#utility.yul\":2987:2996   */\n      dup6\n        /* \"#utility.yul\":2983:3005   */\n      add\n        /* \"#utility.yul\":2962:3015   */\n      tag_78\n      jump\t// in\n    tag_145:\n        /* \"#utility.yul\":2952:3015   */\n      swap2\n      pop\n        /* \"#utility.yul\":2908:3025   */\n      pop\n        /* \"#utility.yul\":2703:3032   */\n      swap3\n      swap2\n      pop\n      pop\n      jump\t// out\n        /* \"#utility.yul\":3038:3156   */\n    tag_79:\n        /* \"#utility.yul\":3125:3149   */\n      tag_147\n        /* \"#utility.yul\":3143:3148   */\n      dup2\n        /* \"#utility.yul\":3125:3149   */\n      tag_69\n      jump\t// in\n    tag_147:\n        /* \"#utility.yul\":3120:3123   */\n      dup3\n        /* \"#utility.yul\":3113:3150   */\n      mstore\n        /* \"#utility.yul\":3038:3156   */\n      pop\n      pop\n      jump\t// out\n        /* \"#utility.yul\":3162:3261   */\n    tag_80:\n        /* \"#utility.yul\":3214:3220   */\n      0x00\n        /* \"#utility.yul\":3248:3253   */\n      dup2\n        /* \"#utility.yul\":3242:3254   */\n      mload\n        /* \"#utility.yul\":3232:3254   */\n      swap1\n      pop\n        /* \"#utility.yul\":3162:3261   */\n      swap2\n      swap1\n      pop\n      jump\t// out\n        /* \"#utility.yul\":3267:3436   */\n    tag_81:\n        /* \"#utility.yul\":3351:3362   */\n      0x00\n        /* \"#utility.yul\":3385:3391   */\n      dup3\n        /* \"#utility.yul\":3380:3383   */\n      dup3\n        /* \"#utility.yul\":3373:3392   */\n      mstore\n        /* \"#utility.yul\":3425:3429   */\n      0x20\n        /* \"#utility.yul\":3420:3423   */\n      dup3\n        /* \"#utility.yul\":3416:3430   */\n      add\n        /* \"#utility.yul\":3401:3430   */\n      swap1\n      pop\n        /* \"#utility.yul\":3267:3436   */\n      swap3\n      swap2\n      pop\n      pop\n      jump\t// out\n        /* \"#utility.yul\":3442:3688   */\n    tag_82:\n        /* \"#utility.yul\":3523:3524   */\n      0x00\n        /* \"#utility.yul\":3533:3646   */\n    tag_151:\n        /* \"#utility.yul\":3547:3553   */\n      dup4\n        /* \"#utility.yul\":3544:3545   */\n      dup2\n        /* \"#utility.yul\":3541:3554   */\n      lt\n        /* \"#utility.yul\":3533:3646   */\n      iszero\n      tag_153\n      jumpi\n        /* \"#utility.yul\":3632:3633   */\n      dup1\n        /* \"#utility.yul\":3627:3630   */\n      dup3\n        /* \"#utility.yul\":3623:3634   */\n      add\n        /* \"#utility.yul\":3617:3635   */\n      mload\n        /* \"#utility.yul\":3613:3614   */\n      dup2\n        /* \"#utility.yul\":3608:3611   */\n      dup5\n        /* \"#utility.yul\":3604:3615   */\n      add\n        /* \"#utility.yul\":3597:3636   */\n      mstore\n        /* \"#utility.yul\":3569:3571   */\n      0x20\n        /* \"#utility.yul\":3566:3567   */\n      dup2\n        /* \"#utility.yul\":3562:3572   */\n      add\n        /* \"#utility.yul\":3557:3572   */\n      swap1\n      pop\n        /* \"#utility.yul\":3533:3646   */\n      jump(tag_151)\n    tag_153:\n        /* \"#utility.yul\":3680:3681   */\n      0x00\n        /* \"#utility.yul\":3671:3677   */\n      dup5\n        /* \"#utility.yul\":3666:3669   */\n      dup5\n        /* \"#utility.yul\":3662:3678   */\n      add\n        /* \"#utility.yul\":3655:3682   */\n      mstore\n        /* \"#utility.yul\":3504:3688   */\n      pop\n        /* \"#utility.yul\":3442:3688   */\n      pop\n      pop\n      pop\n      jump\t// out\n        /* \"#utility.yul\":3694:3796   */\n    tag_83:\n        /* \"#utility.yul\":3735:3741   */\n      0x00\n        /* \"#utility.yul\":3786:3788   */\n      0x1f\n        /* \"#utility.yul\":3782:3789   */\n      not\n        /* \"#utility.yul\":3777:3779   */\n      0x1f\n        /* \"#utility.yul\":3770:3775   */\n      dup4\n        /* \"#utility.yul\":3766:3780   */\n      add\n        /* \"#utility.yul\":3762:3790   */\n      and\n        /* \"#utility.yul\":3752:3790   */\n      swap1\n      pop\n        /* \"#utility.yul\":3694:3796   */\n      swap2\n      swap1\n      pop\n      jump\t// out\n        /* \"#utility.yul\":3802:4179   */\n    tag_84:\n        /* \"#utility.yul\":3890:3893   */\n      0x00\n        /* \"#utility.yul\":3918:3957   */\n      tag_156\n        /* \"#utility.yul\":3951:3956   */\n      dup3\n        /* \"#utility.yul\":3918:3957   */\n      tag_80\n      jump\t// in\n    tag_156:\n        /* \"#utility.yul\":3973:4044   */\n      tag_157\n        /* \"#utility.yul\":4037:4043   */\n      dup2\n        /* \"#utility.yul\":4032:4035   */\n      dup6\n        /* \"#utility.yul\":3973:4044   */\n      tag_81\n      jump\t// in\n    tag_157:\n        /* \"#utility.yul\":3966:4044   */\n      swap4\n      pop\n        /* \"#utility.yul\":4053:4118   */\n      tag_158\n        /* \"#utility.yul\":4111:4117   */\n      dup2\n        /* \"#utility.yul\":4106:4109   */\n      dup6\n        /* \"#utility.yul\":4099:4103   */\n      0x20\n        /* \"#utility.yul\":4092:4097   */\n      dup7\n        /* \"#utility.yul\":4088:4104   */\n      add\n        /* \"#utility.yul\":4053:4118   */\n      tag_82\n      jump\t// in\n    tag_158:\n        /* \"#utility.yul\":4143:4172   */\n      tag_159\n        /* \"#utility.yul\":4165:4171   */\n      dup2\n        /* \"#utility.yul\":4143:4172   */\n      tag_83\n      jump\t// in\n    tag_159:\n        /* \"#utility.yul\":4138:4141   */\n      dup5\n        /* \"#utility.yul\":4134:4173   */\n      add\n        /* \"#utility.yul\":4127:4173   */\n      swap2\n      pop\n        /* \"#utility.yul\":3894:4179   */\n      pop\n        /* \"#utility.yul\":3802:4179   */\n      swap3\n      swap2\n      pop\n      pop\n      jump\t// out\n        /* \"#utility.yul\":4185:4608   */\n    tag_20:\n        /* \"#utility.yul\":4326:4330   */\n      0x00\n        /* \"#utility.yul\":4364:4366   */\n      0x40\n        /* \"#utility.yul\":4353:4362   */\n      dup3\n        /* \"#utility.yul\":4349:4367   */\n      add\n        /* \"#utility.yul\":4341:4367   */\n      swap1\n      pop\n        /* \"#utility.yul\":4377:4448   */\n      tag_161\n        /* \"#utility.yul\":4445:4446   */\n      0x00\n        /* \"#utility.yul\":4434:4443   */\n      dup4\n        /* \"#utility.yul\":4430:4447   */\n      add\n        /* \"#utility.yul\":4421:4427   */\n      dup6\n        /* \"#utility.yul\":4377:4448   */\n      tag_79\n      jump\t// in\n    tag_161:\n        /* \"#utility.yul\":4495:4504   */\n      dup2\n        /* \"#utility.yul\":4489:4493   */\n      dup2\n        /* \"#utility.yul\":4485:4505   */\n      sub\n        /* \"#utility.yul\":4480:4482   */\n      0x20\n        /* \"#utility.yul\":4469:4478   */\n      dup4\n        /* \"#utility.yul\":4465:4483   */\n      add\n        /* \"#utility.yul\":4458:4506   */\n      mstore\n        /* \"#utility.yul\":4523:4601   */\n      tag_162\n        /* \"#utility.yul\":4596:4600   */\n      dup2\n        /* \"#utility.yul\":4587:4593   */\n      dup5\n        /* \"#utility.yul\":4523:4601   */\n      tag_84\n      jump\t// in\n    tag_162:\n        /* \"#utility.yul\":4515:4601   */\n      swap1\n      pop\n        /* \"#utility.yul\":4185:4608   */\n      swap4\n      swap3\n      pop\n      pop\n      pop\n      jump\t// out\n        /* \"#utility.yul\":4614:4731   */\n    tag_85:\n        /* \"#utility.yul\":4723:4724   */\n      0x00\n        /* \"#utility.yul\":4720:4721   */\n      dup1\n        /* \"#utility.yul\":4713:4725   */\n      revert\n        /* \"#utility.yul\":4737:4854   */\n    tag_86:\n        /* \"#utility.yul\":4846:4847   */\n      0x00\n        /* \"#utility.yul\":4843:4844   */\n      dup1\n        /* \"#utility.yul\":4836:4848   */\n      revert\n        /* \"#utility.yul\":4860:5040   */\n    tag_87:\n        /* \"#utility.yul\":4908:4985   */\n      0x4e487b7100000000000000000000000000000000000000000000000000000000\n        /* \"#utility.yul\":4905:4906   */\n      0x00\n        /* \"#utility.yul\":4898:4986   */\n      mstore\n        /* \"#utility.yul\":5005:5009   */\n      0x41\n        /* \"#utility.yul\":5002:5003   */\n      0x04\n        /* \"#utility.yul\":4995:5010   */\n      mstore\n        /* \"#utility.yul\":5029:5033   */\n      0x24\n        /* \"#utility.yul\":5026:5027   */\n      0x00\n        /* \"#utility.yul\":5019:5034   */\n      revert\n        /* \"#utility.yul\":5046:5327   */\n    tag_88:\n        /* \"#utility.yul\":5129:5156   */\n      tag_167\n        /* \"#utility.yul\":5151:5155   */\n      dup3\n        /* \"#utility.yul\":5129:5156   */\n      tag_83\n      jump\t// in\n    tag_167:\n        /* \"#utility.yul\":5121:5127   */\n      dup2\n        /* \"#utility.yul\":5117:5157   */\n      add\n        /* \"#utility.yul\":5259:5265   */\n      dup2\n        /* \"#utility.yul\":5247:5257   */\n      dup2\n        /* \"#utility.yul\":5244:5266   */\n      lt\n        /* \"#utility.yul\":5223:5241   */\n      0xffffffffffffffff\n        /* \"#utility.yul\":5211:5221   */\n      dup3\n        /* \"#utility.yul\":5208:5242   */\n      gt\n        /* \"#utility.yul\":5205:5267   */\n      or\n        /* \"#utility.yul\":5202:5290   */\n      iszero\n      tag_168\n      jumpi\n        /* \"#utility.yul\":5270:5288   */\n      tag_169\n      tag_87\n      jump\t// in\n    tag_169:\n        /* \"#utility.yul\":5202:5290   */\n    tag_168:\n        /* \"#utility.yul\":5310:5320   */\n      dup1\n        /* \"#utility.yul\":5306:5308   */\n      0x40\n        /* \"#utility.yul\":5299:5321   */\n      mstore\n        /* \"#utility.yul\":5089:5327   */\n      pop\n        /* \"#utility.yul\":5046:5327   */\n      pop\n      pop\n      jump\t// out\n        /* \"#utility.yul\":5333:5462   */\n    tag_89:\n        /* \"#utility.yul\":5367:5373   */\n      0x00\n        /* \"#utility.yul\":5394:5414   */\n      tag_171\n      tag_74\n      jump\t// in\n    tag_171:\n        /* \"#utility.yul\":5384:5414   */\n      swap1\n      pop\n        /* \"#utility.yul\":5423:5456   */\n      tag_172\n        /* \"#utility.yul\":5451:5455   */\n      dup3\n        /* \"#utility.yul\":5443:5449   */\n      dup3\n        /* \"#utility.yul\":5423:5456   */\n      tag_88\n      jump\t// in\n    tag_172:\n        /* \"#utility.yul\":5333:5462   */\n      swap2\n      swap1\n      pop\n      jump\t// out\n        /* \"#utility.yul\":5468:5776   */\n    tag_90:\n        /* \"#utility.yul\":5530:5534   */\n      0x00\n        /* \"#utility.yul\":5620:5638   */\n      0xffffffffffffffff\n        /* \"#utility.yul\":5612:5618   */\n      dup3\n        /* \"#utility.yul\":5609:5639   */\n      gt\n        /* \"#utility.yul\":5606:5662   */\n      iszero\n      tag_174\n      jumpi\n        /* \"#utility.yul\":5642:5660   */\n      tag_175\n      tag_87\n      jump\t// in\n    tag_175:\n        /* \"#utility.yul\":5606:5662   */\n    tag_174:\n        /* \"#utility.yul\":5680:5709   */\n      tag_176\n        /* \"#utility.yul\":5702:5708   */\n      dup3\n        /* \"#utility.yul\":5680:5709   */\n      tag_83\n      jump\t// in\n    tag_176:\n        /* \"#utility.yul\":5672:5709   */\n      swap1\n      pop\n        /* \"#utility.yul\":5764:5768   */\n      0x20\n        /* \"#utility.yul\":5758:5762   */\n      dup2\n        /* \"#utility.yul\":5754:5769   */\n      add\n        /* \"#utility.yul\":5746:5769   */\n      swap1\n      pop\n        /* \"#utility.yul\":5468:5776   */\n      swap2\n      swap1\n      pop\n      jump\t// out\n        /* \"#utility.yul\":5782:5928   */\n    tag_91:\n        /* \"#utility.yul\":5879:5885   */\n      dup3\n        /* \"#utility.yul\":5874:5877   */\n      dup2\n        /* \"#utility.yul\":5869:5872   */\n      dup4\n        /* \"#utility.yul\":5856:5886   */\n      calldatacopy\n        /* \"#utility.yul\":5920:5921   */\n      0x00\n        /* \"#utility.yul\":5911:5917   */\n      dup4\n        /* \"#utility.yul\":5906:5909   */\n      dup4\n        /* \"#utility.yul\":5902:5918   */\n      add\n        /* \"#utility.yul\":5895:5922   */\n      mstore\n        /* \"#utility.yul\":5782:5928   */\n      pop\n      pop\n      pop\n      jump\t// out\n        /* \"#utility.yul\":5934:6359   */\n    tag_92:\n        /* \"#utility.yul\":6012:6017   */\n      0x00\n        /* \"#utility.yul\":6037:6103   */\n      tag_179\n        /* \"#utility.yul\":6053:6102   */\n      tag_180\n        /* \"#utility.yul\":6095:6101   */\n      dup5\n        /* \"#utility.yul\":6053:6102   */\n      tag_90\n      jump\t// in\n    tag_180:\n        /* \"#utility.yul\":6037:6103   */\n      tag_89\n      jump\t// in\n    tag_179:\n        /* \"#utility.yul\":6028:6103   */\n      swap1\n      pop\n        /* \"#utility.yul\":6126:6132   */\n      dup3\n        /* \"#utility.yul\":6119:6124   */\n      dup2\n        /* \"#utility.yul\":6112:6133   */\n      mstore\n        /* \"#utility.yul\":6164:6168   */\n      0x20\n        /* \"#utility.yul\":6157:6162   */\n      dup2\n        /* \"#utility.yul\":6153:6169   */\n      add\n        /* \"#utility.yul\":6202:6205   */\n      dup5\n        /* \"#utility.yul\":6193:6199   */\n      dup5\n        /* \"#utility.yul\":6188:6191   */\n      dup5\n        /* \"#utility.yul\":6184:6200   */\n      add\n        /* \"#utility.yul\":6181:6206   */\n      gt\n        /* \"#utility.yul\":6178:6290   */\n      iszero\n      tag_181\n      jumpi\n        /* \"#utility.yul\":6209:6288   */\n      tag_182\n      tag_86\n      jump\t// in\n    tag_182:\n        /* \"#utility.yul\":6178:6290   */\n    tag_181:\n        /* \"#utility.yul\":6299:6353   */\n      tag_183\n        /* \"#utility.yul\":6346:6352   */\n      dup5\n        /* \"#utility.yul\":6341:6344   */\n      dup3\n        /* \"#utility.yul\":6336:6339   */\n      dup6\n        /* \"#utility.yul\":6299:6353   */\n      tag_91\n      jump\t// in\n    tag_183:\n        /* \"#utility.yul\":6018:6359   */\n      pop\n        /* \"#utility.yul\":5934:6359   */\n      swap4\n      swap3\n      pop\n      pop\n      pop\n      jump\t// out\n        /* \"#utility.yul\":6379:6719   */\n    tag_93:\n        /* \"#utility.yul\":6435:6440   */\n      0x00\n        /* \"#utility.yul\":6484:6487   */\n      dup3\n        /* \"#utility.yul\":6477:6481   */\n      0x1f\n        /* \"#utility.yul\":6469:6475   */\n      dup4\n        /* \"#utility.yul\":6465:6482   */\n      add\n        /* \"#utility.yul\":6461:6488   */\n      slt\n        /* \"#utility.yul\":6451:6573   */\n      tag_185\n      jumpi\n        /* \"#utility.yul\":6492:6571   */\n      tag_186\n      tag_85\n      jump\t// in\n    tag_186:\n        /* \"#utility.yul\":6451:6573   */\n    tag_185:\n        /* \"#utility.yul\":6609:6615   */\n      dup2\n        /* \"#utility.yul\":6596:6616   */\n      calldataload\n        /* \"#utility.yul\":6634:6713   */\n      tag_187\n        /* \"#utility.yul\":6709:6712   */\n      dup5\n        /* \"#utility.yul\":6701:6707   */\n      dup3\n        /* \"#utility.yul\":6694:6698   */\n      0x20\n        /* \"#utility.yul\":6686:6692   */\n      dup7\n        /* \"#utility.yul\":6682:6699   */\n      add\n        /* \"#utility.yul\":6634:6713   */\n      tag_92\n      jump\t// in\n    tag_187:\n        /* \"#utility.yul\":6625:6713   */\n      swap2\n      pop\n        /* \"#utility.yul\":6441:6719   */\n      pop\n        /* \"#utility.yul\":6379:6719   */\n      swap3\n      swap2\n      pop\n      pop\n      jump\t// out\n        /* \"#utility.yul\":6725:7379   */\n    tag_26:\n        /* \"#utility.yul\":6803:6809   */\n      0x00\n        /* \"#utility.yul\":6811:6817   */\n      dup1\n        /* \"#utility.yul\":6860:6862   */\n      0x40\n        /* \"#utility.yul\":6848:6857   */\n      dup4\n        /* \"#utility.yul\":6839:6846   */\n      dup6\n        /* \"#utility.yul\":6835:6858   */\n      sub\n        /* \"#utility.yul\":6831:6863   */\n      slt\n        /* \"#utility.yul\":6828:6947   */\n      iszero\n      tag_189\n      jumpi\n        /* \"#utility.yul\":6866:6945   */\n      tag_190\n      tag_75\n      jump\t// in\n    tag_190:\n        /* \"#utility.yul\":6828:6947   */\n    tag_189:\n        /* \"#utility.yul\":7014:7015   */\n      0x00\n        /* \"#utility.yul\":7003:7012   */\n      dup4\n        /* \"#utility.yul\":6999:7016   */\n      add\n        /* \"#utility.yul\":6986:7017   */\n      calldataload\n        /* \"#utility.yul\":7044:7062   */\n      0xffffffffffffffff\n        /* \"#utility.yul\":7036:7042   */\n      dup2\n        /* \"#utility.yul\":7033:7063   */\n      gt\n        /* \"#utility.yul\":7030:7147   */\n      iszero\n      tag_191\n      jumpi\n        /* \"#utility.yul\":7066:7145   */\n      tag_192\n      tag_76\n      jump\t// in\n    tag_192:\n        /* \"#utility.yul\":7030:7147   */\n    tag_191:\n        /* \"#utility.yul\":7171:7234   */\n      tag_193\n        /* \"#utility.yul\":7226:7233   */\n      dup6\n        /* \"#utility.yul\":7217:7223   */\n      dup3\n        /* \"#utility.yul\":7206:7215   */\n      dup7\n        /* \"#utility.yul\":7202:7224   */\n      add\n        /* \"#utility.yul\":7171:7234   */\n      tag_93\n      jump\t// in\n    tag_193:\n        /* \"#utility.yul\":7161:7234   */\n      swap3\n      pop\n        /* \"#utility.yul\":6957:7244   */\n      pop\n        /* \"#utility.yul\":7283:7285   */\n      0x20\n        /* \"#utility.yul\":7309:7362   */\n      tag_194\n        /* \"#utility.yul\":7354:7361   */\n      dup6\n        /* \"#utility.yul\":7345:7351   */\n      dup3\n        /* \"#utility.yul\":7334:7343   */\n      dup7\n        /* \"#utility.yul\":7330:7352   */\n      add\n        /* \"#utility.yul\":7309:7362   */\n      tag_78\n      jump\t// in\n    tag_194:\n        /* \"#utility.yul\":7299:7362   */\n      swap2\n      pop\n        /* \"#utility.yul\":7254:7372   */\n      pop\n        /* \"#utility.yul\":6725:7379   */\n      swap3\n      pop\n      swap3\n      swap1\n      pop\n      jump\t// out\n        /* \"#utility.yul\":7385:7607   */\n    tag_32:\n        /* \"#utility.yul\":7478:7482   */\n      0x00\n        /* \"#utility.yul\":7516:7518   */\n      0x20\n        /* \"#utility.yul\":7505:7514   */\n      dup3\n        /* \"#utility.yul\":7501:7519   */\n      add\n        /* \"#utility.yul\":7493:7519   */\n      swap1\n      pop\n        /* \"#utility.yul\":7529:7600   */\n      tag_196\n        /* \"#utility.yul\":7597:7598   */\n      0x00\n        /* \"#utility.yul\":7586:7595   */\n      dup4\n        /* \"#utility.yul\":7582:7599   */\n      add\n        /* \"#utility.yul\":7573:7579   */\n      dup5\n        /* \"#utility.yul\":7529:7600   */\n      tag_79\n      jump\t// in\n    tag_196:\n        /* \"#utility.yul\":7385:7607   */\n      swap3\n      swap2\n      pop\n      pop\n      jump\t// out\n        /* \"#utility.yul\":7613:8122   */\n    tag_35:\n        /* \"#utility.yul\":7682:7688   */\n      0x00\n        /* \"#utility.yul\":7731:7733   */\n      0x20\n        /* \"#utility.yul\":7719:7728   */\n      dup3\n        /* \"#utility.yul\":7710:7717   */\n      dup5\n        /* \"#utility.yul\":7706:7729   */\n      sub\n        /* \"#utility.yul\":7702:7734   */\n      slt\n        /* \"#utility.yul\":7699:7818   */\n      iszero\n      tag_198\n      jumpi\n        /* \"#utility.yul\":7737:7816   */\n      tag_199\n      tag_75\n      jump\t// in\n    tag_199:\n        /* \"#utility.yul\":7699:7818   */\n    tag_198:\n        /* \"#utility.yul\":7885:7886   */\n      0x00\n        /* \"#utility.yul\":7874:7883   */\n      dup3\n        /* \"#utility.yul\":7870:7887   */\n      add\n        /* \"#utility.yul\":7857:7888   */\n      calldataload\n        /* \"#utility.yul\":7915:7933   */\n      0xffffffffffffffff\n        /* \"#utility.yul\":7907:7913   */\n      dup2\n        /* \"#utility.yul\":7904:7934   */\n      gt\n        /* \"#utility.yul\":7901:8018   */\n      iszero\n      tag_200\n      jumpi\n        /* \"#utility.yul\":7937:8016   */\n      tag_201\n      tag_76\n      jump\t// in\n    tag_201:\n        /* \"#utility.yul\":7901:8018   */\n    tag_200:\n        /* \"#utility.yul\":8042:8105   */\n      tag_202\n        /* \"#utility.yul\":8097:8104   */\n      dup5\n        /* \"#utility.yul\":8088:8094   */\n      dup3\n        /* \"#utility.yul\":8077:8086   */\n      dup6\n        /* \"#utility.yul\":8073:8095   */\n      add\n        /* \"#utility.yul\":8042:8105   */\n      tag_93\n      jump\t// in\n    tag_202:\n        /* \"#utility.yul\":8032:8105   */\n      swap2\n      pop\n        /* \"#utility.yul\":7828:8115   */\n      pop\n        /* \"#utility.yul\":7613:8122   */\n      swap3\n      swap2\n      pop\n      pop\n      jump\t// out\n        /* \"#utility.yul\":8128:8441   */\n    tag_41:\n        /* \"#utility.yul\":8241:8245   */\n      0x00\n        /* \"#utility.yul\":8279:8281   */\n      0x20\n        /* \"#utility.yul\":8268:8277   */\n      dup3\n        /* \"#utility.yul\":8264:8282   */\n      add\n        /* \"#utility.yul\":8256:8282   */\n      swap1\n      pop\n        /* \"#utility.yul\":8328:8337   */\n      dup2\n        /* \"#utility.yul\":8322:8326   */\n      dup2\n        /* \"#utility.yul\":8318:8338   */\n      sub\n        /* \"#utility.yul\":8314:8315   */\n      0x00\n        /* \"#utility.yul\":8303:8312   */\n      dup4\n        /* \"#utility.yul\":8299:8316   */\n      add\n        /* \"#utility.yul\":8292:8339   */\n      mstore\n        /* \"#utility.yul\":8356:8434   */\n      tag_204\n        /* \"#utility.yul\":8429:8433   */\n      dup2\n        /* \"#utility.yul\":8420:8426   */\n      dup5\n        /* \"#utility.yul\":8356:8434   */\n      tag_84\n      jump\t// in\n    tag_204:\n        /* \"#utility.yul\":8348:8434   */\n      swap1\n      pop\n        /* \"#utility.yul\":8128:8441   */\n      swap3\n      swap2\n      pop\n      pop\n      jump\t// out\n        /* \"#utility.yul\":8447:8627   */\n    tag_94:\n        /* \"#utility.yul\":8495:8572   */\n      0x4e487b7100000000000000000000000000000000000000000000000000000000\n        /* \"#utility.yul\":8492:8493   */\n      0x00\n        /* \"#utility.yul\":8485:8573   */\n      mstore\n        /* \"#utility.yul\":8592:8596   */\n      0x22\n        /* \"#utility.yul\":8589:8590   */\n      0x04\n        /* \"#utility.yul\":8582:8597   */\n      mstore\n        /* \"#utility.yul\":8616:8620   */\n      0x24\n        /* \"#utility.yul\":8613:8614   */\n      0x00\n        /* \"#utility.yul\":8606:8621   */\n      revert\n        /* \"#utility.yul\":8633:8953   */\n    tag_48:\n        /* \"#utility.yul\":8677:8683   */\n      0x00\n        /* \"#utility.yul\":8714:8715   */\n      0x02\n        /* \"#utility.yul\":8708:8712   */\n      dup3\n        /* \"#utility.yul\":8704:8716   */\n      div\n        /* \"#utility.yul\":8694:8716   */\n      swap1\n      pop\n        /* \"#utility.yul\":8761:8762   */\n      0x01\n        /* \"#utility.yul\":8755:8759   */\n      dup3\n        /* \"#utility.yul\":8751:8763   */\n      and\n        /* \"#utility.yul\":8782:8800   */\n      dup1\n        /* \"#utility.yul\":8772:8853   */\n      tag_207\n      jumpi\n        /* \"#utility.yul\":8838:8842   */\n      0x7f\n        /* \"#utility.yul\":8830:8836   */\n      dup3\n        /* \"#utility.yul\":8826:8843   */\n      and\n        /* \"#utility.yul\":8816:8843   */\n      swap2\n      pop\n        /* \"#utility.yul\":8772:8853   */\n    tag_207:\n        /* \"#utility.yul\":8900:8902   */\n      0x20\n        /* \"#utility.yul\":8892:8898   */\n      dup3\n        /* \"#utility.yul\":8889:8903   */\n      lt\n        /* \"#utility.yul\":8869:8887   */\n      dup2\n        /* \"#utility.yul\":8866:8904   */\n      sub\n        /* \"#utility.yul\":8863:8947   */\n      tag_208\n      jumpi\n        /* \"#utility.yul\":8919:8937   */\n      tag_209\n      tag_94\n      jump\t// in\n    tag_209:\n        /* \"#utility.yul\":8863:8947   */\n    tag_208:\n        /* \"#utility.yul\":8684:8953   */\n      pop\n        /* \"#utility.yul\":8633:8953   */\n      swap2\n      swap1\n      pop\n      jump\t// out\n        /* \"#utility.yul\":8959:9139   */\n    tag_95:\n        /* \"#utility.yul\":9007:9084   */\n      0x4e487b7100000000000000000000000000000000000000000000000000000000\n        /* \"#utility.yul\":9004:9005   */\n      0x00\n        /* \"#utility.yul\":8997:9085   */\n      mstore\n        /* \"#utility.yul\":9104:9108   */\n      0x11\n        /* \"#utility.yul\":9101:9102   */\n      0x04\n        /* \"#utility.yul\":9094:9109   */\n      mstore\n        /* \"#utility.yul\":9128:9132   */\n      0x24\n        /* \"#utility.yul\":9125:9126   */\n      0x00\n        /* \"#utility.yul\":9118:9133   */\n      revert\n        /* \"#utility.yul\":9145:9336   */\n    tag_55:\n        /* \"#utility.yul\":9185:9188   */\n      0x00\n        /* \"#utility.yul\":9204:9224   */\n      tag_212\n        /* \"#utility.yul\":9222:9223   */\n      dup3\n        /* \"#utility.yul\":9204:9224   */\n      tag_69\n      jump\t// in\n    tag_212:\n        /* \"#utility.yul\":9199:9224   */\n      swap2\n      pop\n        /* \"#utility.yul\":9238:9258   */\n      tag_213\n        /* \"#utility.yul\":9256:9257   */\n      dup4\n        /* \"#utility.yul\":9238:9258   */\n      tag_69\n      jump\t// in\n    tag_213:\n        /* \"#utility.yul\":9233:9258   */\n      swap3\n      pop\n        /* \"#utility.yul\":9281:9282   */\n      dup3\n        /* \"#utility.yul\":9278:9279   */\n      dup3\n        /* \"#utility.yul\":9274:9283   */\n      add\n        /* \"#utility.yul\":9267:9283   */\n      swap1\n      pop\n        /* \"#utility.yul\":9302:9305   */\n      dup1\n        /* \"#utility.yul\":9299:9300   */\n      dup3\n        /* \"#utility.yul\":9296:9306   */\n      gt\n        /* \"#utility.yul\":9293:9329   */\n      iszero\n      tag_214\n      jumpi\n        /* \"#utility.yul\":9309:9327   */\n      tag_215\n      tag_95\n      jump\t// in\n    tag_215:\n        /* \"#utility.yul\":9293:9329   */\n    tag_214:\n        /* \"#utility.yul\":9145:9336   */\n      swap3\n      swap2\n      pop\n      pop\n      jump\t// out\n        /* \"#utility.yul\":9342:9483   */\n    tag_96:\n        /* \"#utility.yul\":9391:9395   */\n      0x00\n        /* \"#utility.yul\":9414:9417   */\n      dup2\n        /* \"#utility.yul\":9406:9417   */\n      swap1\n      pop\n        /* \"#utility.yul\":9437:9440   */\n      dup2\n        /* \"#utility.yul\":9434:9435   */\n      0x00\n        /* \"#utility.yul\":9427:9441   */\n      mstore\n        /* \"#utility.yul\":9471:9475   */\n      0x20\n        /* \"#utility.yul\":9468:9469   */\n      0x00\n        /* \"#utility.yul\":9458:9476   */\n      keccak256\n        /* \"#utility.yul\":9450:9476   */\n      swap1\n      pop\n        /* \"#utility.yul\":9342:9483   */\n      swap2\n      swap1\n      pop\n      jump\t// out\n        /* \"#utility.yul\":9489:9582   */\n    tag_97:\n        /* \"#utility.yul\":9526:9532   */\n      0x00\n        /* \"#utility.yul\":9573:9575   */\n      0x20\n        /* \"#utility.yul\":9568:9570   */\n      0x1f\n        /* \"#utility.yul\":9561:9566   */\n      dup4\n        /* \"#utility.yul\":9557:9571   */\n      add\n        /* \"#utility.yul\":9553:9576   */\n      div\n        /* \"#utility.yul\":9543:9576   */\n      swap1\n      pop\n        /* \"#utility.yul\":9489:9582   */\n      swap2\n      swap1\n      pop\n      jump\t// out\n        /* \"#utility.yul\":9588:9695   */\n    tag_98:\n        /* \"#utility.yul\":9632:9640   */\n      0x00\n        /* \"#utility.yul\":9682:9687   */\n      dup3\n        /* \"#utility.yul\":9676:9680   */\n      dup3\n        /* \"#utility.yul\":9672:9688   */\n      shl\n        /* \"#utility.yul\":9651:9688   */\n      swap1\n      pop\n        /* \"#utility.yul\":9588:9695   */\n      swap3\n      swap2\n      pop\n      pop\n      jump\t// out\n        /* \"#utility.yul\":9701:10094   */\n    tag_99:\n        /* \"#utility.yul\":9770:9776   */\n      0x00\n        /* \"#utility.yul\":9820:9821   */\n      0x08\n        /* \"#utility.yul\":9808:9818   */\n      dup4\n        /* \"#utility.yul\":9804:9822   */\n      mul\n        /* \"#utility.yul\":9843:9940   */\n      tag_220\n        /* \"#utility.yul\":9873:9939   */\n      0xffffffffffffffffffffffffffffffffffffffffffffffffffffffffffffffff\n        /* \"#utility.yul\":9862:9871   */\n      dup3\n        /* \"#utility.yul\":9843:9940   */\n      tag_98\n      jump\t// in\n    tag_220:\n        /* \"#utility.yul\":9961:10000   */\n      tag_221\n        /* \"#utility.yul\":9991:9999   */\n      dup7\n        /* \"#utility.yul\":9980:9989   */\n      dup4\n        /* \"#utility.yul\":9961:10000   */\n      tag_98\n      jump\t// in\n    tag_221:\n        /* \"#utility.yul\":9949:10000   */\n      swap6\n      pop\n        /* \"#utility.yul\":10033:10037   */\n      dup1\n        /* \"#utility.yul\":10029:10038   */\n      not\n        /* \"#utility.yul\":10022:10027   */\n      dup5\n        /* \"#utility.yul\":10018:10039   */\n      and\n        /* \"#utility.yul\":10009:10039   */\n      swap4\n      pop\n        /* \"#utility.yul\":10082:10086   */\n      dup1\n        /* \"#utility.yul\":10072:10080   */\n      dup7\n        /* \"#utility.yul\":10068:10087   */\n      and\n        /* \"#utility.yul\":10061:10066   */\n      dup5\n        /* \"#utility.yul\":10058:10088   */\n      or\n        /* \"#utility.yul\":10048:10088   */\n      swap3\n      pop\n        /* \"#utility.yul\":9777:10094   */\n      pop\n      pop\n        /* \"#utility.yul\":9701:10094   */\n      swap4\n      swap3\n      pop\n      pop\n      pop\n      jump\t// out\n        /* \"#utility.yul\":10100:10160   */\n    tag_100:\n        /* \"#utility.yul\":10128:10131   */\n      0x00\n        /* \"#utility.yul\":10149:10154   */\n      dup2\n        /* \"#utility.yul\":10142:10154   */\n      swap1\n      pop\n        /* \"#utility.yul\":10100:10160   */\n      swap2\n      swap1\n      pop\n      jump\t// out\n        /* \"#utility.yul\":10166:10308   */\n    tag_101:\n        /* \"#utility.yul\":10216:10225   */\n      0x00\n        /* \"#utility.yul\":10249:10302   */\n      tag_224\n        /* \"#utility.yul\":10267:10301   */\n      tag_225\n        /* \"#utility.yul\":10276:10300   */\n      tag_226\n        /* \"#utility.yul\":10294:10299   */\n      dup5\n        /* \"#utility.yul\":10276:10300   */\n      tag_69\n      jump\t// in\n    tag_226:\n        /* \"#utility.yul\":10267:10301   */\n      tag_100\n      jump\t// in\n    tag_225:\n        /* \"#utility.yul\":10249:10302   */\n      tag_69\n      jump\t// in\n    tag_224:\n        /* \"#utility.yul\":10236:10302   */\n      swap1\n      pop\n        /* \"#utility.yul\":10166:10308   */\n      swap2\n      swap1\n      pop\n      jump\t// out\n        /* \"#utility.yul\":10314:10389   */\n    tag_102:\n        /* \"#utility.yul\":10357:10360   */\n      0x00\n        /* \"#utility.yul\":10378:10383   */\n      dup2\n        /* \"#utility.yul\":10371:10383   */\n      swap1\n      pop\n        /* \"#utility.yul\":10314:10389   */\n      swap2\n      swap1\n      pop\n      jump\t// out\n        /* \"#utility.yul\":10395:10664   */\n    tag_103:\n        /* \"#utility.yul\":10505:10544   */\n      tag_229\n        /* \"#utility.yul\":10536:10543   */\n      dup4\n        /* \"#utility.yul\":10505:10544   */\n      tag_101\n      jump\t// in\n    tag_229:\n        /* \"#utility.yul\":10566:10657   */\n      tag_230\n        /* \"#utility.yul\":10615:10656   */\n      tag_231\n        /* \"#utility.yul\":10639:10655   */\n      dup3\n        /* \"#utility.yul\":10615:10656   */\n      tag_102\n      jump\t// in\n    tag_231:\n        /* \"#utility.yul\":10607:10613   */\n      dup5\n        /* \"#utility.yul\":10600:10604   */\n      dup5\n        /* \"#utility.yul\":10594:10605   */\n      sload\n        /* \"#utility.yul\":10566:10657   */\n      tag_99\n      jump\t// in\n    tag_230:\n        /* \"#utility.yul\":10560:10564   */\n      dup3\n        /* \"#utility.yul\":10553:10658   */\n      sstore\n        /* \"#utility.yul\":10471:10664   */\n      pop\n        /* \"#utility.yul\":10395:10664   */\n      pop\n      pop\n      pop\n      jump\t// out\n        /* \"#utility.yul\":10670:10743   */\n    tag_104:\n        /* \"#utility.yul\":10715:10718   */\n      0x00\n        /* \"#utility.yul\":10670:10743   */\n      swap1\n      jump\t// out\n        /* \"#utility.yul\":10749:10938   */\n    tag_105:\n        /* \"#utility.yul\":10826:10858   */\n      tag_234\n      tag_104\n      jump\t// in\n    tag_234:\n        /* \"#utility.yul\":10867:10932   */\n      tag_235\n        /* \"#utility.yul\":10925:10931   */\n      dup2\n        /* \"#utility.yul\":10917:10923   */\n      dup5\n        /* \"#utility.yul\":10911:10915   */\n      dup5\n        /* \"#utility.yul\":10867:10932   */\n      tag_103\n      jump\t// in\n    tag_235:\n        /* \"#utility.yul\":10802:10938   */\n      pop\n        /* \"#utility.yul\":10749:10938   */\n      pop\n      pop\n      jump\t// out\n        /* \"#utility.yul\":10944:11130   */\n    tag_106:\n        /* \"#utility.yul\":11004:11124   */\n    tag_237:\n        /* \"#utility.yul\":11021:11024   */\n      dup2\n        /* \"#utility.yul\":11014:11019   */\n      dup2\n        /* \"#utility.yul\":11011:11025   */\n      lt\n        /* \"#utility.yul\":11004:11124   */\n      iszero\n      tag_239\n      jumpi\n        /* \"#utility.yul\":11075:11114   */\n      tag_240\n        /* \"#utility.yul\":11112:11113   */\n      0x00\n        /* \"#utility.yul\":11105:11110   */\n      dup3\n        /* \"#utility.yul\":11075:11114   */\n      tag_105\n      jump\t// in\n    tag_240:\n        /* \"#utility.yul\":11048:11049   */\n      0x01\n        /* \"#utility.yul\":11041:11046   */\n      dup2\n        /* \"#utility.yul\":11037:11050   */\n      add\n        /* \"#utility.yul\":11028:11050   */\n      swap1\n      pop\n        /* \"#utility.yul\":11004:11124   */\n      jump(tag_237)\n    tag_239:\n        /* \"#utility.yul\":10944:11130   */\n      pop\n      pop\n      jump\t// out\n        /* \"#utility.yul\":11136:11679   */\n    tag_107:\n        /* \"#utility.yul\":11237:11239   */\n      0x1f\n        /* \"#utility.yul\":11232:11235   */\n      dup3\n        /* \"#utility.yul\":11229:11240   */\n      gt\n        /* \"#utility.yul\":11226:11672   */\n      iszero\n      tag_242\n      jumpi\n        /* \"#utility.yul\":11271:11309   */\n      tag_243\n        /* \"#utility.yul\":11303:11308   */\n      dup2\n        /* \"#utility.yul\":11271:11309   */\n      tag_96\n      jump\t// in\n    tag_243:\n        /* \"#utility.yul\":11355:11384   */\n      tag_244\n        /* \"#utility.yul\":11373:11383   */\n      dup5\n        /* \"#utility.yul\":11355:11384   */\n      tag_97\n      jump\t// in\n    tag_244:\n        /* \"#utility.yul\":11345:11353   */\n      dup2\n        /* \"#utility.yul\":11341:11385   */\n      add\n        /* \"#utility.yul\":11538:11540   */\n      0x20\n        /* \"#utility.yul\":11526:11536   */\n      dup6\n        /* \"#utility.yul\":11523:11541   */\n      lt\n        /* \"#utility.yul\":11520:11569   */\n      iszero\n      tag_245\n      jumpi\n        /* \"#utility.yul\":11559:11567   */\n      dup2\n        /* \"#utility.yul\":11544:11567   */\n      swap1\n      pop\n        /* \"#utility.yul\":11520:11569   */\n    tag_245:\n        /* \"#utility.yul\":11582:11662   */\n      tag_246\n        /* \"#utility.yul\":11638:11660   */\n      tag_247\n        /* \"#utility.yul\":11656:11659   */\n      dup6\n        /* \"#utility.yul\":11638:11660   */\n      tag_97\n      jump\t// in\n    tag_247:\n        /* \"#utility.yul\":11628:11636   */\n      dup4\n        /* \"#utility.yul\":11624:11661   */\n      add\n        /* \"#utility.yul\":11611:11622   */\n      dup3\n        /* \"#utility.yul\":11582:11662   */\n      tag_106\n      jump\t// in\n    tag_246:\n        /* \"#utility.yul\":11241:11672   */\n      pop\n      pop\n        /* \"#utility.yul\":11226:11672   */\n    tag_242:\n        /* \"#utility.yul\":11136:11679   */\n      pop\n      pop\n      pop\n      jump\t// out\n        /* \"#utility.yul\":11685:11802   */\n    tag_108:\n        /* \"#utility.yul\":11739:11747   */\n      0x00\n        /* \"#utility.yul\":11789:11794   */\n      dup3\n        /* \"#utility.yul\":11783:11787   */\n      dup3\n        /* \"#utility.yul\":11779:11795   */\n      shr\n        /* \"#utility.yul\":11758:11795   */\n      swap1\n      pop\n        /* \"#utility.yul\":11685:11802   */\n      swap3\n      swap2\n      pop\n      pop\n      jump\t// out\n        /* \"#utility.yul\":11808:11977   */\n    tag_109:\n        /* \"#utility.yul\":11852:11858   */\n      0x00\n        /* \"#utility.yul\":11885:11936   */\n      tag_250\n        /* \"#utility.yul\":11933:11934   */\n      0x00\n        /* \"#utility.yul\":11929:11935   */\n      not\n        /* \"#utility.yul\":11921:11926   */\n      dup5\n        /* \"#utility.yul\":11918:11919   */\n      0x08\n        /* \"#utility.yul\":11914:11927   */\n      mul\n        /* \"#utility.yul\":11885:11936   */\n      tag_108\n      jump\t// in\n    tag_250:\n        /* \"#utility.yul\":11881:11937   */\n      not\n        /* \"#utility.yul\":11966:11970   */\n      dup1\n        /* \"#utility.yul\":11960:11964   */\n      dup4\n        /* \"#utility.yul\":11956:11971   */\n      and\n        /* \"#utility.yul\":11946:11971   */\n      swap2\n      pop\n        /* \"#utility.yul\":11859:11977   */\n      pop\n        /* \"#utility.yul\":11808:11977   */\n      swap3\n      swap2\n      pop\n      pop\n      jump\t// out\n        /* \"#utility.yul\":11982:12277   */\n    tag_110:\n        /* \"#utility.yul\":12058:12062   */\n      0x00\n        /* \"#utility.yul\":12204:12233   */\n      tag_252\n        /* \"#utility.yul\":12229:12232   */\n      dup4\n        /* \"#utility.yul\":12223:12227   */\n      dup4\n        /* \"#utility.yul\":12204:12233   */\n      tag_109\n      jump\t// in\n    tag_252:\n        /* \"#utility.yul\":12196:12233   */\n      swap2\n      pop\n        /* \"#utility.yul\":12266:12269   */\n      dup3\n        /* \"#utility.yul\":12263:12264   */\n      0x02\n        /* \"#utility.yul\":12259:12270   */\n      mul\n        /* \"#utility.yul\":12253:12257   */\n      dup3\n        /* \"#utility.yul\":12250:12271   */\n      or\n        /* \"#utility.yul\":12242:12271   */\n      swap1\n      pop\n        /* \"#utility.yul\":11982:12277   */\n      swap3\n      swap2\n      pop\n      pop\n      jump\t// out\n        /* \"#utility.yul\":12282:13677   */\n    tag_60:\n        /* \"#utility.yul\":12399:12436   */\n      tag_254\n        /* \"#utility.yul\":12432:12435   */\n      dup3\n        /* \"#utility.yul\":12399:12436   */\n      tag_80\n      jump\t// in\n    tag_254:\n        /* \"#utility.yul\":12501:12519   */\n      0xffffffffffffffff\n        /* \"#utility.yul\":12493:12499   */\n      dup2\n        /* \"#utility.yul\":12490:12520   */\n      gt\n        /* \"#utility.yul\":12487:12543   */\n      iszero\n      tag_255\n      jumpi\n        /* \"#utility.yul\":12523:12541   */\n      tag_256\n      tag_87\n      jump\t// in\n    tag_256:\n        /* \"#utility.yul\":12487:12543   */\n    tag_255:\n        /* \"#utility.yul\":12567:12605   */\n      tag_257\n        /* \"#utility.yul\":12599:12603   */\n      dup3\n        /* \"#utility.yul\":12593:12604   */\n      sload\n        /* \"#utility.yul\":12567:12605   */\n      tag_48\n      jump\t// in\n    tag_257:\n        /* \"#utility.yul\":12652:12719   */\n      tag_258\n        /* \"#utility.yul\":12712:12718   */\n      dup3\n        /* \"#utility.yul\":12704:12710   */\n      dup3\n        /* \"#utility.yul\":12698:12702   */\n      dup6\n        /* \"#utility.yul\":12652:12719   */\n      tag_107\n      jump\t// in\n    tag_258:\n        /* \"#utility.yul\":12746:12747   */\n      0x00\n        /* \"#utility.yul\":12770:12774   */\n      0x20\n        /* \"#utility.yul\":12757:12774   */\n      swap1\n      pop\n        /* \"#utility.yul\":12802:12804   */\n      0x1f\n        /* \"#utility.yul\":12794:12800   */\n      dup4\n        /* \"#utility.yul\":12791:12805   */\n      gt\n        /* \"#utility.yul\":12819:12820   */\n      0x01\n        /* \"#utility.yul\":12814:13432   */\n      dup2\n      eq\n      tag_260\n      jumpi\n        /* \"#utility.yul\":13476:13477   */\n      0x00\n        /* \"#utility.yul\":13493:13499   */\n      dup5\n        /* \"#utility.yul\":13490:13567   */\n      iszero\n      tag_261\n      jumpi\n        /* \"#utility.yul\":13542:13551   */\n      dup3\n        /* \"#utility.yul\":13537:13540   */\n      dup8\n        /* \"#utility.yul\":13533:13552   */\n      add\n        /* \"#utility.yul\":13527:13553   */\n      mload\n        /* \"#utility.yul\":13518:13553   */\n      swap1\n      pop\n        /* \"#utility.yul\":13490:13567   */\n    tag_261:\n        /* \"#utility.yul\":13593:13660   */\n      tag_262\n        /* \"#utility.yul\":13653:13659   */\n      dup6\n        /* \"#utility.yul\":13646:13651   */\n      dup3\n        /* \"#utility.yul\":13593:13660   */\n      tag_110\n      jump\t// in\n    tag_262:\n        /* \"#utility.yul\":13587:13591   */\n      dup7\n        /* \"#utility.yul\":13580:13661   */\n      sstore\n        /* \"#utility.yul\":13449:13671   */\n      pop\n        /* \"#utility.yul\":12784:13671   */\n      jump(tag_259)\n        /* \"#utility.yul\":12814:13432   */\n    tag_260:\n        /* \"#utility.yul\":12866:12870   */\n      0x1f\n        /* \"#utility.yul\":12862:12871   */\n      not\n        /* \"#utility.yul\":12854:12860   */\n      dup5\n        /* \"#utility.yul\":12850:12872   */\n      and\n        /* \"#utility.yul\":12900:12937   */\n      tag_263\n        /* \"#utility.yul\":12932:12936   */\n      dup7\n        /* \"#utility.yul\":12900:12937   */\n      tag_96\n      jump\t// in\n    tag_263:\n        /* \"#utility.yul\":12959:12960   */\n      0x00\n        /* \"#utility.yul\":12973:13181   */\n    tag_264:\n        /* \"#utility.yul\":12987:12994   */\n      dup3\n        /* \"#utility.yul\":12984:12985   */\n      dup2\n        /* \"#utility.yul\":12981:12995   */\n      lt\n        /* \"#utility.yul\":12973:13181   */\n      iszero\n      tag_266\n      jumpi\n        /* \"#utility.yul\":13066:13075   */\n      dup5\n        /* \"#utility.yul\":13061:13064   */\n      dup10\n        /* \"#utility.yul\":13057:13076   */\n      add\n        /* \"#utility.yul\":13051:13077   */\n      mload\n        /* \"#utility.yul\":13043:13049   */\n      dup3\n        /* \"#utility.yul\":13036:13078   */\n      sstore\n        /* \"#utility.yul\":13117:13118   */\n      0x01\n        /* \"#utility.yul\":13109:13115   */\n      dup3\n        /* \"#utility.yul\":13105:13119   */\n      add\n        /* \"#utility.yul\":13095:13119   */\n      swap2\n      pop\n        /* \"#utility.yul\":13164:13166   */\n      0x20\n        /* \"#utility.yul\":13153:13162   */\n      dup6\n        /* \"#utility.yul\":13149:13167   */\n      add\n        /* \"#utility.yul\":13136:13167   */\n      swap5\n      pop\n        /* \"#utility.yul\":13010:13014   */\n      0x20\n        /* \"#utility.yul\":13007:13008   */\n      dup2\n        /* \"#utility.yul\":13003:13015   */\n      add\n        /* \"#utility.yul\":12998:13015   */\n      swap1\n      pop\n        /* \"#utility.yul\":12973:13181   */\n      jump(tag_264)\n    tag_266:\n        /* \"#utility.yul\":13209:13215   */\n      dup7\n        /* \"#utility.yul\":13200:13207   */\n      dup4\n        /* \"#utility.yul\":13197:13216   */\n      lt\n        /* \"#utility.yul\":13194:13373   */\n      iszero\n      tag_267\n      jumpi\n        /* \"#utility.yul\":13267:13276   */\n      dup5\n        /* \"#utility.yul\":13262:13265   */\n      dup10\n        /* \"#utility.yul\":13258:13277   */\n      add\n        /* \"#utility.yul\":13252:13278   */\n      mload\n        /* \"#utility.yul\":13310:13358   */\n      tag_268\n        /* \"#utility.yul\":13352:13356   */\n      0x1f\n        /* \"#utility.yul\":13344:13350   */\n      dup10\n        /* \"#utility.yul\":13340:13357   */\n      and\n        /* \"#utility.yul\":13329:13338   */\n      dup3\n        /* \"#utility.yul\":13310:13358   */\n      tag_109\n      jump\t// in\n    tag_268:\n        /* \"#utility.yul\":13302:13308   */\n      dup4\n        /* \"#utility.yul\":13295:13359   */\n      sstore\n        /* \"#utility.yul\":13217:13373   */\n      pop\n        /* \"#utility.yul\":13194:13373   */\n    tag_267:\n        /* \"#utility.yul\":13419:13420   */\n      0x01\n        /* \"#utility.yul\":13415:13416   */\n      0x02\n        /* \"#utility.yul\":13407:13413   */\n      dup9\n        /* \"#utility.yul\":13403:13417   */\n      mul\n        /* \"#utility.yul\":13399:13421   */\n      add\n        /* \"#utility.yul\":13393:13397   */\n      dup9\n        /* \"#utility.yul\":13386:13422   */\n      sstore\n        /* \"#utility.yul\":12821:13432   */\n      pop\n      pop\n      pop\n        /* \"#utility.yul\":12784:13671   */\n    tag_259:\n      pop\n        /* \"#utility.yul\":12374:13677   */\n      pop\n      pop\n      pop\n        /* \"#utility.yul\":12282:13677   */\n      pop\n      pop\n      jump\t// out\n        /* \"#utility.yul\":13683:13831   */\n    tag_111:\n        /* \"#utility.yul\":13785:13796   */\n      0x00\n        /* \"#utility.yul\":13822:13825   */\n      dup2\n        /* \"#utility.yul\":13807:13825   */\n      swap1\n      pop\n        /* \"#utility.yul\":13683:13831   */\n      swap3\n      swap2\n      pop\n      pop\n      jump\t// out\n        /* \"#utility.yul\":13837:14227   */\n    tag_112:\n        /* \"#utility.yul\":13943:13946   */\n      0x00\n        /* \"#utility.yul\":13971:14010   */\n      tag_271\n        /* \"#utility.yul\":14004:14009   */\n      dup3\n        /* \"#utility.yul\":13971:14010   */\n      tag_80\n      jump\t// in\n    tag_271:\n        /* \"#utility.yul\":14026:14115   */\n      tag_272\n        /* \"#utility.yul\":14108:14114   */\n      dup2\n        /* \"#utility.yul\":14103:14106   */\n      dup6\n        /* \"#utility.yul\":14026:14115   */\n      tag_111\n      jump\t// in\n    tag_272:\n        /* \"#utility.yul\":14019:14115   */\n      swap4\n      pop\n        /* \"#utility.yul\":14124:14189   */\n      tag_273\n        /* \"#utility.yul\":14182:14188   */\n      dup2\n        /* \"#utility.yul\":14177:14180   */\n      dup6\n        /* \"#utility.yul\":14170:14174   */\n      0x20\n        /* \"#utility.yul\":14163:14168   */\n      dup7\n        /* \"#utility.yul\":14159:14175   */\n      add\n        /* \"#utility.yul\":14124:14189   */\n      tag_82\n      jump\t// in\n    tag_273:\n        /* \"#utility.yul\":14214:14220   */\n      dup1\n        /* \"#utility.yul\":14209:14212   */\n      dup5\n        /* \"#utility.yul\":14205:14221   */\n      add\n        /* \"#utility.yul\":14198:14221   */\n      swap2\n      pop\n        /* \"#utility.yul\":13947:14227   */\n      pop\n        /* \"#utility.yul\":13837:14227   */\n      swap3\n      swap2\n      pop\n      pop\n      jump\t// out\n        /* \"#utility.yul\":14233:14508   */\n    tag_62:\n        /* \"#utility.yul\":14365:14368   */\n      0x00\n        /* \"#utility.yul\":14387:14482   */\n      tag_275\n        /* \"#utility.yul\":14478:14481   */\n      dup3\n        /* \"#utility.yul\":14469:14475   */\n      dup5\n        /* \"#utility.yul\":14387:14482   */\n      tag_112\n      jump\t// in\n    tag_275:\n        /* \"#utility.yul\":14380:14482   */\n      swap2\n      pop\n        /* \"#utility.yul\":14499:14502   */\n      dup2\n        /* \"#utility.yul\":14492:14502   */\n      swap1\n      pop\n        /* \"#utility.yul\":14233:14508   */\n      swap3\n      swap2\n      pop\n      pop\n      jump\t// out\n\n    auxdata: 0xa26469706673582212208fa6231ec16b69ec192f7c5e9f4fb5e2ad87f07aa343690dc861eca416da8fc964736f6c63430008180033\n}\n",
				"bytecode": {
					"linkReferences": {},
					"object": "608060405234801561000f575f80fd5b50610b918061001d5f395ff3fe608060405234801561000f575f80fd5b506004361061007b575f3560e01c80636f760f41116100595780636f760f41146100ea578063877d0867146101065780638bab8dd514610136578063ef5fb05b146101665761007b565b80632e64cec11461007f5780632ebce6311461009d5780636057361d146100ce575b5f80fd5b610087610184565b604051610094919061048f565b60405180910390f35b6100b760048036038101906100b291906104ea565b6101d9565b6040516100c59291906105ae565b60405180910390f35b6100e860048036038101906100e391906104ea565b61028e565b005b61010460048036038101906100ff9190610708565b6102c2565b005b610120600480360381019061011b91906104ea565b610346565b60405161012d9190610762565b60405180910390f35b610150600480360381019061014b919061077b565b610365565b60405161015d9190610762565b60405180910390f35b61016e610392565b60405161017b91906107c2565b60405180910390f35b60605f8054806020026020016040519081016040528092919081815260200182805480156101cf57602002820191905f5260205f20905b8154815260200190600101908083116101bb575b5050505050905090565b600181815481106101e8575f80fd5b905f5260205f2090600202015f91509050805f01549080600101805461020d9061080f565b80601f01602080910402602001604051908101604052809291908181526020018280546102399061080f565b80156102845780601f1061025b57610100808354040283529160200191610284565b820191905f5260205f20905b81548152906001019060200180831161026757829003601f168201915b5050505050905082565b5f60058261029c919061086c565b908060018154018082558091505060019003905f5260205f20015f909190919091505550565b6001604051806040016040528083815260200184815250908060018154018082558091505060019003905f5260205f2090600202015f909190919091505f820151815f0155602082015181600101908161031c9190610a3c565b505050806002836040516103309190610b45565b9081526020016040518091039020819055505050565b5f8181548110610354575f80fd5b905f5260205f20015f915090505481565b6002818051602081018201805184825260208301602085012081835280955050505050505f915090505481565b60606040518060400160405280600981526020017f48656c6c6c6c6f6f6f0000000000000000000000000000000000000000000000815250905090565b5f81519050919050565b5f82825260208201905092915050565b5f819050602082019050919050565b5f819050919050565b61040a816103f8565b82525050565b5f61041b8383610401565b60208301905092915050565b5f602082019050919050565b5f61043d826103cf565b61044781856103d9565b9350610452836103e9565b805f5b838110156104825781516104698882610410565b975061047483610427565b925050600181019050610455565b5085935050505092915050565b5f6020820190508181035f8301526104a78184610433565b905092915050565b5f604051905090565b5f80fd5b5f80fd5b6104c9816103f8565b81146104d3575f80fd5b50565b5f813590506104e4816104c0565b92915050565b5f602082840312156104ff576104fe6104b8565b5b5f61050c848285016104d6565b91505092915050565b61051e816103f8565b82525050565b5f81519050919050565b5f82825260208201905092915050565b5f5b8381101561055b578082015181840152602081019050610540565b5f8484015250505050565b5f601f19601f8301169050919050565b5f61058082610524565b61058a818561052e565b935061059a81856020860161053e565b6105a381610566565b840191505092915050565b5f6040820190506105c15f830185610515565b81810360208301526105d38184610576565b90509392505050565b5f80fd5b5f80fd5b7f4e487b71000000000000000000000000000000000000000000000000000000005f52604160045260245ffd5b61061a82610566565b810181811067ffffffffffffffff82111715610639576106386105e4565b5b80604052505050565b5f61064b6104af565b90506106578282610611565b919050565b5f67ffffffffffffffff821115610676576106756105e4565b5b61067f82610566565b9050602081019050919050565b828183375f83830152505050565b5f6106ac6106a78461065c565b610642565b9050828152602081018484840111156106c8576106c76105e0565b5b6106d384828561068c565b509392505050565b5f82601f8301126106ef576106ee6105dc565b5b81356106ff84826020860161069a565b91505092915050565b5f806040838503121561071e5761071d6104b8565b5b5f83013567ffffffffffffffff81111561073b5761073a6104bc565b5b610747858286016106db565b9250506020610758858286016104d6565b9150509250929050565b5f6020820190506107755f830184610515565b92915050565b5f602082840312156107905761078f6104b8565b5b5f82013567ffffffffffffffff8111156107ad576107ac6104bc565b5b6107b9848285016106db565b91505092915050565b5f6020820190508181035f8301526107da8184610576565b905092915050565b7f4e487b71000000000000000000000000000000000000000000000000000000005f52602260045260245ffd5b5f600282049050600182168061082657607f821691505b602082108103610839576108386107e2565b5b50919050565b7f4e487b71000000000000000000000000000000000000000000000000000000005f52601160045260245ffd5b5f610876826103f8565b9150610881836103f8565b92508282019050808211156108995761089861083f565b5b92915050565b5f819050815f5260205f209050919050565b5f6020601f8301049050919050565b5f82821b905092915050565b5f600883026108fb7fffffffffffffffffffffffffffffffffffffffffffffffffffffffffffffffff826108c0565b61090586836108c0565b95508019841693508086168417925050509392505050565b5f819050919050565b5f61094061093b610936846103f8565b61091d565b6103f8565b9050919050565b5f819050919050565b61095983610926565b61096d61096582610947565b8484546108cc565b825550505050565b5f90565b610981610975565b61098c818484610950565b505050565b5b818110156109af576109a45f82610979565b600181019050610992565b5050565b601f8211156109f4576109c58161089f565b6109ce846108b1565b810160208510156109dd578190505b6109f16109e9856108b1565b830182610991565b50505b505050565b5f82821c905092915050565b5f610a145f19846008026109f9565b1980831691505092915050565b5f610a2c8383610a05565b9150826002028217905092915050565b610a4582610524565b67ffffffffffffffff811115610a5e57610a5d6105e4565b5b610a68825461080f565b610a738282856109b3565b5f60209050601f831160018114610aa4575f8415610a92578287015190505b610a9c8582610a21565b865550610b03565b601f198416610ab28661089f565b5f5b82811015610ad957848901518255600182019150602085019450602081019050610ab4565b86831015610af65784890151610af2601f891682610a05565b8355505b6001600288020188555050505b505050505050565b5f81905092915050565b5f610b1f82610524565b610b298185610b0b565b9350610b3981856020860161053e565b80840191505092915050565b5f610b508284610b15565b91508190509291505056fea26469706673582212208fa6231ec16b69ec192f7c5e9f4fb5e2ad87f07aa343690dc861eca416da8fc964736f6c63430008180033",
					"opcodes": "PUSH1 0x80 PUSH1 0x40 MSTORE CALLVALUE DUP1 ISZERO PUSH2 0xF JUMPI PUSH0 DUP1 REVERT JUMPDEST POP PUSH2 0xB91 DUP1 PUSH2 0x1D PUSH0 CODECOPY PUSH0 RETURN INVALID PUSH1 0x80 PUSH1 0x40 MSTORE CALLVALUE DUP1 ISZERO PUSH2 0xF JUMPI PUSH0 DUP1 REVERT JUMPDEST POP PUSH1 0x4 CALLDATASIZE LT PUSH2 0x7B JUMPI PUSH0 CALLDATALOAD PUSH1 0xE0 SHR DUP1 PUSH4 0x6F760F41 GT PUSH2 0x59 JUMPI DUP1 PUSH4 0x6F760F41 EQ PUSH2 0xEA JUMPI DUP1 PUSH4 0x877D0867 EQ PUSH2 0x106 JUMPI DUP1 PUSH4 0x8BAB8DD5 EQ PUSH2 0x136 JUMPI DUP1 PUSH4 0xEF5FB05B EQ PUSH2 0x166 JUMPI PUSH2 0x7B JUMP JUMPDEST DUP1 PUSH4 0x2E64CEC1 EQ PUSH2 0x7F JUMPI DUP1 PUSH4 0x2EBCE631 EQ PUSH2 0x9D JUMPI DUP1 PUSH4 0x6057361D EQ PUSH2 0xCE JUMPI JUMPDEST PUSH0 DUP1 REVERT JUMPDEST PUSH2 0x87 PUSH2 0x184 JUMP JUMPDEST PUSH1 0x40 MLOAD PUSH2 0x94 SWAP2 SWAP1 PUSH2 0x48F JUMP JUMPDEST PUSH1 0x40 MLOAD DUP1 SWAP2 SUB SWAP1 RETURN JUMPDEST PUSH2 0xB7 PUSH1 0x4 DUP1 CALLDATASIZE SUB DUP2 ADD SWAP1 PUSH2 0xB2 SWAP2 SWAP1 PUSH2 0x4EA JUMP JUMPDEST PUSH2 0x1D9 JUMP JUMPDEST PUSH1 0x40 MLOAD PUSH2 0xC5 SWAP3 SWAP2 SWAP1 PUSH2 0x5AE JUMP JUMPDEST PUSH1 0x40 MLOAD DUP1 SWAP2 SUB SWAP1 RETURN JUMPDEST PUSH2 0xE8 PUSH1 0x4 DUP1 CALLDATASIZE SUB DUP2 ADD SWAP1 PUSH2 0xE3 SWAP2 SWAP1 PUSH2 0x4EA JUMP JUMPDEST PUSH2 0x28E JUMP JUMPDEST STOP JUMPDEST PUSH2 0x104 PUSH1 0x4 DUP1 CALLDATASIZE SUB DUP2 ADD SWAP1 PUSH2 0xFF SWAP2 SWAP1 PUSH2 0x708 JUMP JUMPDEST PUSH2 0x2C2 JUMP JUMPDEST STOP JUMPDEST PUSH2 0x120 PUSH1 0x4 DUP1 CALLDATASIZE SUB DUP2 ADD SWAP1 PUSH2 0x11B SWAP2 SWAP1 PUSH2 0x4EA JUMP JUMPDEST PUSH2 0x346 JUMP JUMPDEST PUSH1 0x40 MLOAD PUSH2 0x12D SWAP2 SWAP1 PUSH2 0x762 JUMP JUMPDEST PUSH1 0x40 MLOAD DUP1 SWAP2 SUB SWAP1 RETURN JUMPDEST PUSH2 0x150 PUSH1 0x4 DUP1 CALLDATASIZE SUB DUP2 ADD SWAP1 PUSH2 0x14B SWAP2 SWAP1 PUSH2 0x77B JUMP JUMPDEST PUSH2 0x365 JUMP JUMPDEST PUSH1 0x40 MLOAD PUSH2 0x15D SWAP2 SWAP1 PUSH2 0x762 JUMP JUMPDEST PUSH1 0x40 MLOAD DUP1 SWAP2 SUB SWAP1 RETURN JUMPDEST PUSH2 0x16E PUSH2 0x392 JUMP JUMPDEST PUSH1 0x40 MLOAD PUSH2 0x17B SWAP2 SWAP1 PUSH2 0x7C2 JUMP JUMPDEST PUSH1 0x40 MLOAD DUP1 SWAP2 SUB SWAP1 RETURN JUMPDEST PUSH1 0x60 PUSH0 DUP1 SLOAD DUP1 PUSH1 0x20 MUL PUSH1 0x20 ADD PUSH1 0x40 MLOAD SWAP1 DUP2 ADD PUSH1 0x40 MSTORE DUP1 SWAP3 SWAP2 SWAP1 DUP2 DUP2 MSTORE PUSH1 0x20 ADD DUP3 DUP1 SLOAD DUP1 ISZERO PUSH2 0x1CF JUMPI PUSH1 0x20 MUL DUP3 ADD SWAP2 SWAP1 PUSH0 MSTORE PUSH1 0x20 PUSH0 KECCAK256 SWAP1 JUMPDEST DUP2 SLOAD DUP2 MSTORE PUSH1 0x20 ADD SWAP1 PUSH1 0x1 ADD SWAP1 DUP1 DUP4 GT PUSH2 0x1BB JUMPI JUMPDEST POP POP POP POP POP SWAP1 POP SWAP1 JUMP JUMPDEST PUSH1 0x1 DUP2 DUP2 SLOAD DUP2 LT PUSH2 0x1E8 JUMPI PUSH0 DUP1 REVERT JUMPDEST SWAP1 PUSH0 MSTORE PUSH1 0x20 PUSH0 KECCAK256 SWAP1 PUSH1 0x2 MUL ADD PUSH0 SWAP2 POP SWAP1 POP DUP1 PUSH0 ADD SLOAD SWAP1 DUP1 PUSH1 0x1 ADD DUP1 SLOAD PUSH2 0x20D SWAP1 PUSH2 0x80F JUMP JUMPDEST DUP1 PUSH1 0x1F ADD PUSH1 0x20 DUP1 SWAP2 DIV MUL PUSH1 0x20 ADD PUSH1 0x40 MLOAD SWAP1 DUP2 ADD PUSH1 0x40 MSTORE DUP1 SWAP3 SWAP2 SWAP1 DUP2 DUP2 MSTORE PUSH1 0x20 ADD DUP3 DUP1 SLOAD PUSH2 0x239 SWAP1 PUSH2 0x80F JUMP JUMPDEST DUP1 ISZERO PUSH2 0x284 JUMPI DUP1 PUSH1 0x1F LT PUSH2 0x25B JUMPI PUSH2 0x100 DUP1 DUP4 SLOAD DIV MUL DUP4 MSTORE SWAP2 PUSH1 0x20 ADD SWAP2 PUSH2 0x284 JUMP JUMPDEST DUP3 ADD SWAP2 SWAP1 PUSH0 MSTORE PUSH1 0x20 PUSH0 KECCAK256 SWAP1 JUMPDEST DUP2 SLOAD DUP2 MSTORE SWAP1 PUSH1 0x1 ADD SWAP1 PUSH1 0x20 ADD DUP1 DUP4 GT PUSH2 0x267 JUMPI DUP3 SWAP1 SUB PUSH1 0x1F AND DUP3 ADD SWAP2 JUMPDEST POP POP POP POP POP SWAP1 POP DUP3 JUMP JUMPDEST PUSH0 PUSH1 0x5 DUP3 PUSH2 0x29C SWAP2 SWAP1 PUSH2 0x86C JUMP JUMPDEST SWAP1 DUP1 PUSH1 0x1 DUP2 SLOAD ADD DUP1 DUP3 SSTORE DUP1 SWAP2 POP POP PUSH1 0x1 SWAP1 SUB SWAP1 PUSH0 MSTORE PUSH1 0x20 PUSH0 KECCAK256 ADD PUSH0 SWAP1 SWAP2 SWAP1 SWAP2 SWAP1 SWAP2 POP SSTORE POP JUMP JUMPDEST PUSH1 0x1 PUSH1 0x40 MLOAD DUP1 PUSH1 0x40 ADD PUSH1 0x40 MSTORE DUP1 DUP4 DUP2 MSTORE PUSH1 0x20 ADD DUP5 DUP2 MSTORE POP SWAP1 DUP1 PUSH1 0x1 DUP2 SLOAD ADD DUP1 DUP3 SSTORE DUP1 SWAP2 POP POP PUSH1 0x1 SWAP1 SUB SWAP1 PUSH0 MSTORE PUSH1 0x20 PUSH0 KECCAK256 SWAP1 PUSH1 0x2 MUL ADD PUSH0 SWAP1 SWAP2 SWAP1 SWAP2 SWAP1 SWAP2 POP PUSH0 DUP3 ADD MLOAD DUP2 PUSH0 ADD SSTORE PUSH1 0x20 DUP3 ADD MLOAD DUP2 PUSH1 0x1 ADD SWAP1 DUP2 PUSH2 0x31C SWAP2 SWAP1 PUSH2 0xA3C JUMP JUMPDEST POP POP POP DUP1 PUSH1 0x2 DUP4 PUSH1 0x40 MLOAD PUSH2 0x330 SWAP2 SWAP1 PUSH2 0xB45 JUMP JUMPDEST SWAP1 DUP2 MSTORE PUSH1 0x20 ADD PUSH1 0x40 MLOAD DUP1 SWAP2 SUB SWAP1 KECCAK256 DUP2 SWAP1 SSTORE POP POP POP JUMP JUMPDEST PUSH0 DUP2 DUP2 SLOAD DUP2 LT PUSH2 0x354 JUMPI PUSH0 DUP1 REVERT JUMPDEST SWAP1 PUSH0 MSTORE PUSH1 0x20 PUSH0 KECCAK256 ADD PUSH0 SWAP2 POP SWAP1 POP SLOAD DUP2 JUMP JUMPDEST PUSH1 0x2 DUP2 DUP1 MLOAD PUSH1 0x20 DUP2 ADD DUP3 ADD DUP1 MLOAD DUP5 DUP3 MSTORE PUSH1 0x20 DUP4 ADD PUSH1 0x20 DUP6 ADD KECCAK256 DUP2 DUP4 MSTORE DUP1 SWAP6 POP POP POP POP POP POP PUSH0 SWAP2 POP SWAP1 POP SLOAD DUP2 JUMP JUMPDEST PUSH1 0x60 PUSH1 0x40 MLOAD DUP1 PUSH1 0x40 ADD PUSH1 0x40 MSTORE DUP1 PUSH1 0x9 DUP2 MSTORE PUSH1 0x20 ADD PUSH32 0x48656C6C6C6C6F6F6F0000000000000000000000000000000000000000000000 DUP2 MSTORE POP SWAP1 POP SWAP1 JUMP JUMPDEST PUSH0 DUP2 MLOAD SWAP1 POP SWAP2 SWAP1 POP JUMP JUMPDEST PUSH0 DUP3 DUP3 MSTORE PUSH1 0x20 DUP3 ADD SWAP1 POP SWAP3 SWAP2 POP POP JUMP JUMPDEST PUSH0 DUP2 SWAP1 POP PUSH1 0x20 DUP3 ADD SWAP1 POP SWAP2 SWAP1 POP JUMP JUMPDEST PUSH0 DUP2 SWAP1 POP SWAP2 SWAP1 POP JUMP JUMPDEST PUSH2 0x40A DUP2 PUSH2 0x3F8 JUMP JUMPDEST DUP3 MSTORE POP POP JUMP JUMPDEST PUSH0 PUSH2 0x41B DUP4 DUP4 PUSH2 0x401 JUMP JUMPDEST PUSH1 0x20 DUP4 ADD SWAP1 POP SWAP3 SWAP2 POP POP JUMP JUMPDEST PUSH0 PUSH1 0x20 DUP3 ADD SWAP1 POP SWAP2 SWAP1 POP JUMP JUMPDEST PUSH0 PUSH2 0x43D DUP3 PUSH2 0x3CF JUMP JUMPDEST PUSH2 0x447 DUP2 DUP6 PUSH2 0x3D9 JUMP JUMPDEST SWAP4 POP PUSH2 0x452 DUP4 PUSH2 0x3E9 JUMP JUMPDEST DUP1 PUSH0 JUMPDEST DUP4 DUP2 LT ISZERO PUSH2 0x482 JUMPI DUP2 MLOAD PUSH2 0x469 DUP9 DUP3 PUSH2 0x410 JUMP JUMPDEST SWAP8 POP PUSH2 0x474 DUP4 PUSH2 0x427 JUMP JUMPDEST SWAP3 POP POP PUSH1 0x1 DUP2 ADD SWAP1 POP PUSH2 0x455 JUMP JUMPDEST POP DUP6 SWAP4 POP POP POP POP SWAP3 SWAP2 POP POP JUMP JUMPDEST PUSH0 PUSH1 0x20 DUP3 ADD SWAP1 POP DUP2 DUP2 SUB PUSH0 DUP4 ADD MSTORE PUSH2 0x4A7 DUP2 DUP5 PUSH2 0x433 JUMP JUMPDEST SWAP1 POP SWAP3 SWAP2 POP POP JUMP JUMPDEST PUSH0 PUSH1 0x40 MLOAD SWAP1 POP SWAP1 JUMP JUMPDEST PUSH0 DUP1 REVERT JUMPDEST PUSH0 DUP1 REVERT JUMPDEST PUSH2 0x4C9 DUP2 PUSH2 0x3F8 JUMP JUMPDEST DUP2 EQ PUSH2 0x4D3 JUMPI PUSH0 DUP1 REVERT JUMPDEST POP JUMP JUMPDEST PUSH0 DUP2 CALLDATALOAD SWAP1 POP PUSH2 0x4E4 DUP2 PUSH2 0x4C0 JUMP JUMPDEST SWAP3 SWAP2 POP POP JUMP JUMPDEST PUSH0 PUSH1 0x20 DUP3 DUP5 SUB SLT ISZERO PUSH2 0x4FF JUMPI PUSH2 0x4FE PUSH2 0x4B8 JUMP JUMPDEST JUMPDEST PUSH0 PUSH2 0x50C DUP5 DUP3 DUP6 ADD PUSH2 0x4D6 JUMP JUMPDEST SWAP2 POP POP SWAP3 SWAP2 POP POP JUMP JUMPDEST PUSH2 0x51E DUP2 PUSH2 0x3F8 JUMP JUMPDEST DUP3 MSTORE POP POP JUMP JUMPDEST PUSH0 DUP2 MLOAD SWAP1 POP SWAP2 SWAP1 POP JUMP JUMPDEST PUSH0 DUP3 DUP3 MSTORE PUSH1 0x20 DUP3 ADD SWAP1 POP SWAP3 SWAP2 POP POP JUMP JUMPDEST PUSH0 JUMPDEST DUP4 DUP2 LT ISZERO PUSH2 0x55B JUMPI DUP1 DUP3 ADD MLOAD DUP2 DUP5 ADD MSTORE PUSH1 0x20 DUP2 ADD SWAP1 POP PUSH2 0x540 JUMP JUMPDEST PUSH0 DUP5 DUP5 ADD MSTORE POP POP POP POP JUMP JUMPDEST PUSH0 PUSH1 0x1F NOT PUSH1 0x1F DUP4 ADD AND SWAP1 POP SWAP2 SWAP1 POP JUMP JUMPDEST PUSH0 PUSH2 0x580 DUP3 PUSH2 0x524 JUMP JUMPDEST PUSH2 0x58A DUP2 DUP6 PUSH2 0x52E JUMP JUMPDEST SWAP4 POP PUSH2 0x59A DUP2 DUP6 PUSH1 0x20 DUP7 ADD PUSH2 0x53E JUMP JUMPDEST PUSH2 0x5A3 DUP2 PUSH2 0x566 JUMP JUMPDEST DUP5 ADD SWAP2 POP POP SWAP3 SWAP2 POP POP JUMP JUMPDEST PUSH0 PUSH1 0x40 DUP3 ADD SWAP1 POP PUSH2 0x5C1 PUSH0 DUP4 ADD DUP6 PUSH2 0x515 JUMP JUMPDEST DUP2 DUP2 SUB PUSH1 0x20 DUP4 ADD MSTORE PUSH2 0x5D3 DUP2 DUP5 PUSH2 0x576 JUMP JUMPDEST SWAP1 POP SWAP4 SWAP3 POP POP POP JUMP JUMPDEST PUSH0 DUP1 REVERT JUMPDEST PUSH0 DUP1 REVERT JUMPDEST PUSH32 0x4E487B7100000000000000000000000000000000000000000000000000000000 PUSH0 MSTORE PUSH1 0x41 PUSH1 0x4 MSTORE PUSH1 0x24 PUSH0 REVERT JUMPDEST PUSH2 0x61A DUP3 PUSH2 0x566 JUMP JUMPDEST DUP2 ADD DUP2 DUP2 LT PUSH8 0xFFFFFFFFFFFFFFFF DUP3 GT OR ISZERO PUSH2 0x639 JUMPI PUSH2 0x638 PUSH2 0x5E4 JUMP JUMPDEST JUMPDEST DUP1 PUSH1 0x40 MSTORE POP POP POP JUMP JUMPDEST PUSH0 PUSH2 0x64B PUSH2 0x4AF JUMP JUMPDEST SWAP1 POP PUSH2 0x657 DUP3 DUP3 PUSH2 0x611 JUMP JUMPDEST SWAP2 SWAP1 POP JUMP JUMPDEST PUSH0 PUSH8 0xFFFFFFFFFFFFFFFF DUP3 GT ISZERO PUSH2 0x676 JUMPI PUSH2 0x675 PUSH2 0x5E4 JUMP JUMPDEST JUMPDEST PUSH2 0x67F DUP3 PUSH2 0x566 JUMP JUMPDEST SWAP1 POP PUSH1 0x20 DUP2 ADD SWAP1 POP SWAP2 SWAP1 POP JUMP JUMPDEST DUP3 DUP2 DUP4 CALLDATACOPY PUSH0 DUP4 DUP4 ADD MSTORE POP POP POP JUMP JUMPDEST PUSH0 PUSH2 0x6AC PUSH2 0x6A7 DUP5 PUSH2 0x65C JUMP JUMPDEST PUSH2 0x642 JUMP JUMPDEST SWAP1 POP DUP3 DUP2 MSTORE PUSH1 0x20 DUP2 ADD DUP5 DUP5 DUP5 ADD GT ISZERO PUSH2 0x6C8 JUMPI PUSH2 0x6C7 PUSH2 0x5E0 JUMP JUMPDEST JUMPDEST PUSH2 0x6D3 DUP5 DUP3 DUP6 PUSH2 0x68C JUMP JUMPDEST POP SWAP4 SWAP3 POP POP POP JUMP JUMPDEST PUSH0 DUP3 PUSH1 0x1F DUP4 ADD SLT PUSH2 0x6EF JUMPI PUSH2 0x6EE PUSH2 0x5DC JUMP JUMPDEST JUMPDEST DUP2 CALLDATALOAD PUSH2 0x6FF DUP5 DUP3 PUSH1 0x20 DUP7 ADD PUSH2 0x69A JUMP JUMPDEST SWAP2 POP POP SWAP3 SWAP2 POP POP JUMP JUMPDEST PUSH0 DUP1 PUSH1 0x40 DUP4 DUP6 SUB SLT ISZERO PUSH2 0x71E JUMPI PUSH2 0x71D PUSH2 0x4B8 JUMP JUMPDEST JUMPDEST PUSH0 DUP4 ADD CALLDATALOAD PUSH8 0xFFFFFFFFFFFFFFFF DUP2 GT ISZERO PUSH2 0x73B JUMPI PUSH2 0x73A PUSH2 0x4BC JUMP JUMPDEST JUMPDEST PUSH2 0x747 DUP6 DUP3 DUP7 ADD PUSH2 0x6DB JUMP JUMPDEST SWAP3 POP POP PUSH1 0x20 PUSH2 0x758 DUP6 DUP3 DUP7 ADD PUSH2 0x4D6 JUMP JUMPDEST SWAP2 POP POP SWAP3 POP SWAP3 SWAP1 POP JUMP JUMPDEST PUSH0 PUSH1 0x20 DUP3 ADD SWAP1 POP PUSH2 0x775 PUSH0 DUP4 ADD DUP5 PUSH2 0x515 JUMP JUMPDEST SWAP3 SWAP2 POP POP JUMP JUMPDEST PUSH0 PUSH1 0x20 DUP3 DUP5 SUB SLT ISZERO PUSH2 0x790 JUMPI PUSH2 0x78F PUSH2 0x4B8 JUMP JUMPDEST JUMPDEST PUSH0 DUP3 ADD CALLDATALOAD PUSH8 0xFFFFFFFFFFFFFFFF DUP2 GT ISZERO PUSH2 0x7AD JUMPI PUSH2 0x7AC PUSH2 0x4BC JUMP JUMPDEST JUMPDEST PUSH2 0x7B9 DUP5 DUP3 DUP6 ADD PUSH2 0x6DB JUMP JUMPDEST SWAP2 POP POP SWAP3 SWAP2 POP POP JUMP JUMPDEST PUSH0 PUSH1 0x20 DUP3 ADD SWAP1 POP DUP2 DUP2 SUB PUSH0 DUP4 ADD MSTORE PUSH2 0x7DA DUP2 DUP5 PUSH2 0x576 JUMP JUMPDEST SWAP1 POP SWAP3 SWAP2 POP POP JUMP JUMPDEST PUSH32 0x4E487B7100000000000000000000000000000000000000000000000000000000 PUSH0 MSTORE PUSH1 0x22 PUSH1 0x4 MSTORE PUSH1 0x24 PUSH0 REVERT JUMPDEST PUSH0 PUSH1 0x2 DUP3 DIV SWAP1 POP PUSH1 0x1 DUP3 AND DUP1 PUSH2 0x826 JUMPI PUSH1 0x7F DUP3 AND SWAP2 POP JUMPDEST PUSH1 0x20 DUP3 LT DUP2 SUB PUSH2 0x839 JUMPI PUSH2 0x838 PUSH2 0x7E2 JUMP JUMPDEST JUMPDEST POP SWAP2 SWAP1 POP JUMP JUMPDEST PUSH32 0x4E487B7100000000000000000000000000000000000000000000000000000000 PUSH0 MSTORE PUSH1 0x11 PUSH1 0x4 MSTORE PUSH1 0x24 PUSH0 REVERT JUMPDEST PUSH0 PUSH2 0x876 DUP3 PUSH2 0x3F8 JUMP JUMPDEST SWAP2 POP PUSH2 0x881 DUP4 PUSH2 0x3F8 JUMP JUMPDEST SWAP3 POP DUP3 DUP3 ADD SWAP1 POP DUP1 DUP3 GT ISZERO PUSH2 0x899 JUMPI PUSH2 0x898 PUSH2 0x83F JUMP JUMPDEST JUMPDEST SWAP3 SWAP2 POP POP JUMP JUMPDEST PUSH0 DUP2 SWAP1 POP DUP2 PUSH0 MSTORE PUSH1 0x20 PUSH0 KECCAK256 SWAP1 POP SWAP2 SWAP1 POP JUMP JUMPDEST PUSH0 PUSH1 0x20 PUSH1 0x1F DUP4 ADD DIV SWAP1 POP SWAP2 SWAP1 POP JUMP JUMPDEST PUSH0 DUP3 DUP3 SHL SWAP1 POP SWAP3 SWAP2 POP POP JUMP JUMPDEST PUSH0 PUSH1 0x8 DUP4 MUL PUSH2 0x8FB PUSH32 0xFFFFFFFFFFFFFFFFFFFFFFFFFFFFFFFFFFFFFFFFFFFFFFFFFFFFFFFFFFFFFFFF DUP3 PUSH2 0x8C0 JUMP JUMPDEST PUSH2 0x905 DUP7 DUP4 PUSH2 0x8C0 JUMP JUMPDEST SWAP6 POP DUP1 NOT DUP5 AND SWAP4 POP DUP1 DUP7 AND DUP5 OR SWAP3 POP POP POP SWAP4 SWAP3 POP POP POP JUMP JUMPDEST PUSH0 DUP2 SWAP1 POP SWAP2 SWAP1 POP JUMP JUMPDEST PUSH0 PUSH2 0x940 PUSH2 0x93B PUSH2 0x936 DUP5 PUSH2 0x3F8 JUMP JUMPDEST PUSH2 0x91D JUMP JUMPDEST PUSH2 0x3F8 JUMP JUMPDEST SWAP1 POP SWAP2 SWAP1 POP JUMP JUMPDEST PUSH0 DUP2 SWAP1 POP SWAP2 SWAP1 POP JUMP JUMPDEST PUSH2 0x959 DUP4 PUSH2 0x926 JUMP JUMPDEST PUSH2 0x96D PUSH2 0x965 DUP3 PUSH2 0x947 JUMP JUMPDEST DUP5 DUP5 SLOAD PUSH2 0x8CC JUMP JUMPDEST DUP3 SSTORE POP POP POP POP JUMP JUMPDEST PUSH0 SWAP1 JUMP JUMPDEST PUSH2 0x981 PUSH2 0x975 JUMP JUMPDEST PUSH2 0x98C DUP2 DUP5 DUP5 PUSH2 0x950 JUMP JUMPDEST POP POP POP JUMP JUMPDEST JUMPDEST DUP2 DUP2 LT ISZERO PUSH2 0x9AF JUMPI PUSH2 0x9A4 PUSH0 DUP3 PUSH2 0x979 JUMP JUMPDEST PUSH1 0x1 DUP2 ADD SWAP1 POP PUSH2 0x992 JUMP JUMPDEST POP POP JUMP JUMPDEST PUSH1 0x1F DUP3 GT ISZERO PUSH2 0x9F4 JUMPI PUSH2 0x9C5 DUP2 PUSH2 0x89F JUMP JUMPDEST PUSH2 0x9CE DUP5 PUSH2 0x8B1 JUMP JUMPDEST DUP2 ADD PUSH1 0x20 DUP6 LT ISZERO PUSH2 0x9DD JUMPI DUP2 SWAP1 POP JUMPDEST PUSH2 0x9F1 PUSH2 0x9E9 DUP6 PUSH2 0x8B1 JUMP JUMPDEST DUP4 ADD DUP3 PUSH2 0x991 JUMP JUMPDEST POP POP JUMPDEST POP POP POP JUMP JUMPDEST PUSH0 DUP3 DUP3 SHR SWAP1 POP SWAP3 SWAP2 POP POP JUMP JUMPDEST PUSH0 PUSH2 0xA14 PUSH0 NOT DUP5 PUSH1 0x8 MUL PUSH2 0x9F9 JUMP JUMPDEST NOT DUP1 DUP4 AND SWAP2 POP POP SWAP3 SWAP2 POP POP JUMP JUMPDEST PUSH0 PUSH2 0xA2C DUP4 DUP4 PUSH2 0xA05 JUMP JUMPDEST SWAP2 POP DUP3 PUSH1 0x2 MUL DUP3 OR SWAP1 POP SWAP3 SWAP2 POP POP JUMP JUMPDEST PUSH2 0xA45 DUP3 PUSH2 0x524 JUMP JUMPDEST PUSH8 0xFFFFFFFFFFFFFFFF DUP2 GT ISZERO PUSH2 0xA5E JUMPI PUSH2 0xA5D PUSH2 0x5E4 JUMP JUMPDEST JUMPDEST PUSH2 0xA68 DUP3 SLOAD PUSH2 0x80F JUMP JUMPDEST PUSH2 0xA73 DUP3 DUP3 DUP6 PUSH2 0x9B3 JUMP JUMPDEST PUSH0 PUSH1 0x20 SWAP1 POP PUSH1 0x1F DUP4 GT PUSH1 0x1 DUP2 EQ PUSH2 0xAA4 JUMPI PUSH0 DUP5 ISZERO PUSH2 0xA92 JUMPI DUP3 DUP8 ADD MLOAD SWAP1 POP JUMPDEST PUSH2 0xA9C DUP6 DUP3 PUSH2 0xA21 JUMP JUMPDEST DUP7 SSTORE POP PUSH2 0xB03 JUMP JUMPDEST PUSH1 0x1F NOT DUP5 AND PUSH2 0xAB2 DUP7 PUSH2 0x89F JUMP JUMPDEST PUSH0 JUMPDEST DUP3 DUP2 LT ISZERO PUSH2 0xAD9 JUMPI DUP5 DUP10 ADD MLOAD DUP3 SSTORE PUSH1 0x1 DUP3 ADD SWAP2 POP PUSH1 0x20 DUP6 ADD SWAP5 POP PUSH1 0x20 DUP2 ADD SWAP1 POP PUSH2 0xAB4 JUMP JUMPDEST DUP7 DUP4 LT ISZERO PUSH2 0xAF6 JUMPI DUP5 DUP10 ADD MLOAD PUSH2 0xAF2 PUSH1 0x1F DUP10 AND DUP3 PUSH2 0xA05 JUMP JUMPDEST DUP4 SSTORE POP JUMPDEST PUSH1 0x1 PUSH1 0x2 DUP9 MUL ADD DUP9 SSTORE POP POP POP JUMPDEST POP POP POP POP POP POP JUMP JUMPDEST PUSH0 DUP2 SWAP1 POP SWAP3 SWAP2 POP POP JUMP JUMPDEST PUSH0 PUSH2 0xB1F DUP3 PUSH2 0x524 JUMP JUMPDEST PUSH2 0xB29 DUP2 DUP6 PUSH2 0xB0B JUMP JUMPDEST SWAP4 POP PUSH2 0xB39 DUP2 DUP6 PUSH1 0x20 DUP7 ADD PUSH2 0x53E JUMP JUMPDEST DUP1 DUP5 ADD SWAP2 POP POP SWAP3 SWAP2 POP POP JUMP JUMPDEST PUSH0 PUSH2 0xB50 DUP3 DUP5 PUSH2 0xB15 JUMP JUMPDEST SWAP2 POP DUP2 SWAP1 POP SWAP3 SWAP2 POP POP JUMP INVALID LOG2 PUSH5 0x6970667358 0x22 SLT KECCAK256 DUP16 0xA6 0x23 0x1E 0xC1 PUSH12 0x69EC192F7C5E9F4FB5E2AD87 CREATE PUSH27 0xA343690DC861ECA416DA8FC964736F6C6343000818003300000000 "
				},
				"gasEstimates": {
					"creation": {
						"codeDepositCost": "592200",
						"executionCost": "623",
						"totalCost": "592823"
					},
					"external": {
						"addPerson(string,uint256)": "infinite",
						"listOfPeople(uint256)": "infinite",
						"myfavoriteNumber(uint256)": "infinite",
						"nameToFavoriteNumber(string)": "infinite",
						"retrieve()": "infinite",
						"sayHello()": "infinite",
						"store(uint256)": "infinite"
					}
				},
				"methodIdentifiers": {
					"addPerson(string,uint256)": "6f760f41",
					"listOfPeople(uint256)": "2ebce631",
					"myfavoriteNumber(uint256)": "877d0867",
					"nameToFavoriteNumber(string)": "8bab8dd5",
					"retrieve()": "2e64cec1",
					"sayHello()": "ef5fb05b",
					"store(uint256)": "6057361d"
				}
			},
			"storageLayout": {
				"storage": [
					{
						"astId": 34,
						"contract": "contracts/AddFiveStorage.sol:AddFiveStorage",
						"label": "myfavoriteNumber",
						"offset": 0,
						"slot": "0",
						"type": "t_array(t_uint256)dyn_storage"
					},
					{
						"astId": 43,
						"contract": "contracts/AddFiveStorage.sol:AddFiveStorage",
						"label": "listOfPeople",
						"offset": 0,
						"slot": "1",
						"type": "t_array(t_struct(Person)39_storage)dyn_storage"
					},
					{
						"astId": 47,
						"contract": "contracts/AddFiveStorage.sol:AddFiveStorage",
						"label": "nameToFavoriteNumber",
						"offset": 0,
						"slot": "2",
						"type": "t_mapping(t_string_memory_ptr,t_uint256)"
					}
				],
				"types": {
					"t_array(t_struct(Person)39_storage)dyn_storage": {
						"base": "t_struct(Person)39_storage",
						"encoding": "dynamic_array",
						"label": "struct SimpleStorage.Person[]",
						"numberOfBytes": "32"
					},
					"t_array(t_uint256)dyn_storage": {
						"base": "t_uint256",
						"encoding": "dynamic_array",
						"label": "uint256[]",
						"numberOfBytes": "32"
					},
					"t_mapping(t_string_memory_ptr,t_uint256)": {
						"encoding": "mapping",
						"key": "t_string_memory_ptr",
						"label": "mapping(string => uint256)",
						"numberOfBytes": "32",
						"value": "t_uint256"
					},
					"t_string_memory_ptr": {
						"encoding": "bytes",
						"label": "string",
						"numberOfBytes": "32"
					},
					"t_string_storage": {
						"encoding": "bytes",
						"label": "string",
						"numberOfBytes": "32"
					},
					"t_struct(Person)39_storage": {
						"encoding": "inplace",
						"label": "struct SimpleStorage.Person",
						"members": [
							{
								"astId": 36,
								"contract": "contracts/AddFiveStorage.sol:AddFiveStorage",
								"label": "favouriteNumber",
								"offset": 0,
								"slot": "0",
								"type": "t_uint256"
							},
							{
								"astId": 38,
								"contract": "contracts/AddFiveStorage.sol:AddFiveStorage",
								"label": "name",
								"offset": 0,
								"slot": "1",
								"type": "t_string_storage"
							}
						],
						"numberOfBytes": "64"
					},
					"t_uint256": {
						"encoding": "inplace",
						"label": "uint256",
						"numberOfBytes": "32"
					}
				}
			},
			"userdoc": {
				"kind": "user",
				"methods": {},
				"version": 1
			}
		}
	}
}