{
	"contracts/StorageFactory.sol": {
		"StorageFactory": {
			"abi": [
				{
					"inputs": [],
					"name": "createSimplestorageContract",
					"outputs": [],
					"stateMutability": "nonpayable",
					"type": "function"
				},
				{
					"inputs": [
						{
							"internalType": "uint256",
							"name": "",
							"type": "uint256"
						}
					],
					"name": "listOfSimpleStorageContracts",
					"outputs": [
						{
							"internalType": "contract SimpleStorage",
							"name": "",
							"type": "address"
						}
					],
					"stateMutability": "view",
					"type": "function"
				},
				{
					"inputs": [
						{
							"internalType": "uint256",
							"name": "_simpleStorageIndex",
							"type": "uint256"
						}
					],
					"name": "sfGet",
					"outputs": [
						{
							"internalType": "uint256[]",
							"name": "",
							"type": "uint256[]"
						}
					],
					"stateMutability": "view",
					"type": "function"
				},
				{
					"inputs": [
						{
							"internalType": "uint256",
							"name": "_simpleStorageIndex",
							"type": "uint256"
						},
						{
							"internalType": "uint256",
							"name": "_newSimpleStorageNumber",
							"type": "uint256"
						}
					],
					"name": "sfStore",
					"outputs": [],
					"stateMutability": "nonpayable",
					"type": "function"
				}
			],
			"devdoc": {
				"kind": "dev",
				"methods": {},
				"version": 1
			},
			"evm": {
				"assembly": "    /* \"contracts/StorageFactory.sol\":111:1297  contract StorageFactory {... */\n  mstore(0x40, 0x80)\n  callvalue\n  dup1\n  iszero\n  tag_1\n  jumpi\n  0x00\n  dup1\n  revert\ntag_1:\n  pop\n  dataSize(sub_0)\n  dup1\n  dataOffset(sub_0)\n  0x00\n  codecopy\n  0x00\n  return\nstop\n\nsub_0: assembly {\n        /* \"contracts/StorageFactory.sol\":111:1297  contract StorageFactory {... */\n      mstore(0x40, 0x80)\n      callvalue\n      dup1\n      iszero\n      tag_1\n      jumpi\n      0x00\n      dup1\n      revert\n    tag_1:\n      pop\n      jumpi(tag_2, lt(calldatasize, 0x04))\n      shr(0xe0, calldataload(0x00))\n      dup1\n      0x1563700f\n      eq\n      tag_3\n      jumpi\n      dup1\n      0x4b254294\n      eq\n      tag_4\n      jumpi\n      dup1\n      0xc5f19c20\n      eq\n      tag_5\n      jumpi\n      dup1\n      0xf39f3035\n      eq\n      tag_6\n      jumpi\n    tag_2:\n      0x00\n      dup1\n      revert\n        /* \"contracts/StorageFactory.sol\":729:967  function sfStore(uint256 _simpleStorageIndex, uint256 _newSimpleStorageNumber) public {... */\n    tag_3:\n      tag_7\n      0x04\n      dup1\n      calldatasize\n      sub\n      dup2\n      add\n      swap1\n      tag_8\n      swap2\n      swap1\n      tag_9\n      jump\t// in\n    tag_8:\n      tag_10\n      jump\t// in\n    tag_7:\n      stop\n        /* \"contracts/StorageFactory.sol\":441:637  function createSimplestorageContract () public {... */\n    tag_4:\n      tag_11\n      tag_12\n      jump\t// in\n    tag_11:\n      stop\n        /* \"contracts/StorageFactory.sol\":1069:1294  function sfGet(uint256 _simpleStorageIndex) public view returns (uint256[] memory) {... */\n    tag_5:\n      tag_13\n      0x04\n      dup1\n      calldatasize\n      sub\n      dup2\n      add\n      swap1\n      tag_14\n      swap2\n      swap1\n      tag_15\n      jump\t// in\n    tag_14:\n      tag_16\n      jump\t// in\n    tag_13:\n      mload(0x40)\n      tag_17\n      swap2\n      swap1\n      tag_18\n      jump\t// in\n    tag_17:\n      mload(0x40)\n      dup1\n      swap2\n      sub\n      swap1\n      return\n        /* \"contracts/StorageFactory.sol\":252:303  SimpleStorage[] public listOfSimpleStorageContracts */\n    tag_6:\n      tag_19\n      0x04\n      dup1\n      calldatasize\n      sub\n      dup2\n      add\n      swap1\n      tag_20\n      swap2\n      swap1\n      tag_15\n      jump\t// in\n    tag_20:\n      tag_21\n      jump\t// in\n    tag_19:\n      mload(0x40)\n      tag_22\n      swap2\n      swap1\n      tag_23\n      jump\t// in\n    tag_22:\n      mload(0x40)\n      dup1\n      swap2\n      sub\n      swap1\n      return\n        /* \"contracts/StorageFactory.sol\":729:967  function sfStore(uint256 _simpleStorageIndex, uint256 _newSimpleStorageNumber) public {... */\n    tag_10:\n        /* \"contracts/StorageFactory.sol\":824:853  SimpleStorage mySimpleStorage */\n      0x00\n        /* \"contracts/StorageFactory.sol\":856:884  listOfSimpleStorageContracts */\n      dup1\n        /* \"contracts/StorageFactory.sol\":885:904  _simpleStorageIndex */\n      dup4\n        /* \"contracts/StorageFactory.sol\":856:905  listOfSimpleStorageContracts[_simpleStorageIndex] */\n      dup2\n      sload\n      dup2\n      lt\n      tag_25\n      jumpi\n      tag_26\n      tag_27\n      jump\t// in\n    tag_26:\n    tag_25:\n      swap1\n      0x00\n      mstore\n      keccak256(0x00, 0x20)\n      add\n      0x00\n      swap1\n      sload\n      swap1\n      0x0100\n      exp\n      swap1\n      div\n      0xffffffffffffffffffffffffffffffffffffffff\n      and\n        /* \"contracts/StorageFactory.sol\":824:905  SimpleStorage mySimpleStorage = listOfSimpleStorageContracts[_simpleStorageIndex] */\n      swap1\n      pop\n        /* \"contracts/StorageFactory.sol\":914:929  mySimpleStorage */\n      dup1\n        /* \"contracts/StorageFactory.sol\":914:935  mySimpleStorage.store */\n      0xffffffffffffffffffffffffffffffffffffffff\n      and\n      0x6057361d\n        /* \"contracts/StorageFactory.sol\":936:959  _newSimpleStorageNumber */\n      dup4\n        /* \"contracts/StorageFactory.sol\":914:960  mySimpleStorage.store(_newSimpleStorageNumber) */\n      mload(0x40)\n      dup3\n      0xffffffff\n      and\n      0xe0\n      shl\n      dup2\n      mstore\n      0x04\n      add\n      tag_29\n      swap2\n      swap1\n      tag_30\n      jump\t// in\n    tag_29:\n      0x00\n      mload(0x40)\n      dup1\n      dup4\n      sub\n      dup2\n      0x00\n      dup8\n      dup1\n      extcodesize\n      iszero\n      dup1\n      iszero\n      tag_31\n      jumpi\n      0x00\n      dup1\n      revert\n    tag_31:\n      pop\n      gas\n      call\n      iszero\n      dup1\n      iszero\n      tag_33\n      jumpi\n      returndatasize\n      0x00\n      dup1\n      returndatacopy\n      revert(0x00, returndatasize)\n    tag_33:\n      pop\n      pop\n      pop\n      pop\n        /* \"contracts/StorageFactory.sol\":815:967  {... */\n      pop\n        /* \"contracts/StorageFactory.sol\":729:967  function sfStore(uint256 _simpleStorageIndex, uint256 _newSimpleStorageNumber) public {... */\n      pop\n      pop\n      jump\t// out\n        /* \"contracts/StorageFactory.sol\":441:637  function createSimplestorageContract () public {... */\n    tag_12:\n        /* \"contracts/StorageFactory.sol\":498:537  SimpleStorage newSimpleStorageContracts */\n      0x00\n        /* \"contracts/StorageFactory.sol\":541:560  new SimpleStorage() */\n      mload(0x40)\n      tag_35\n      swap1\n      tag_36\n      jump\t// in\n    tag_35:\n      mload(0x40)\n      dup1\n      swap2\n      sub\n      swap1\n      0x00\n      create\n      dup1\n      iszero\n      dup1\n      iszero\n      tag_37\n      jumpi\n      returndatasize\n      0x00\n      dup1\n      returndatacopy\n      revert(0x00, returndatasize)\n    tag_37:\n      pop\n        /* \"contracts/StorageFactory.sol\":498:560  SimpleStorage newSimpleStorageContracts =  new SimpleStorage() */\n      swap1\n      pop\n        /* \"contracts/StorageFactory.sol\":570:598  listOfSimpleStorageContracts */\n      0x00\n        /* \"contracts/StorageFactory.sol\":604:629  newSimpleStorageContracts */\n      dup2\n        /* \"contracts/StorageFactory.sol\":570:630  listOfSimpleStorageContracts.push(newSimpleStorageContracts) */\n      swap1\n      dup1\n      0x01\n      dup2\n      sload\n      add\n      dup1\n      dup3\n      sstore\n      dup1\n      swap2\n      pop\n      pop\n      0x01\n      swap1\n      sub\n      swap1\n      0x00\n      mstore\n      keccak256(0x00, 0x20)\n      add\n      0x00\n      swap1\n      swap2\n      swap1\n      swap2\n      swap1\n      swap2\n      0x0100\n      exp\n      dup2\n      sload\n      dup2\n      0xffffffffffffffffffffffffffffffffffffffff\n      mul\n      not\n      and\n      swap1\n      dup4\n      0xffffffffffffffffffffffffffffffffffffffff\n      and\n      mul\n      or\n      swap1\n      sstore\n      pop\n        /* \"contracts/StorageFactory.sol\":488:637  {... */\n      pop\n        /* \"contracts/StorageFactory.sol\":441:637  function createSimplestorageContract () public {... */\n      jump\t// out\n        /* \"contracts/StorageFactory.sol\":1069:1294  function sfGet(uint256 _simpleStorageIndex) public view returns (uint256[] memory) {... */\n    tag_16:\n        /* \"contracts/StorageFactory.sol\":1134:1150  uint256[] memory */\n      0x60\n        /* \"contracts/StorageFactory.sol\":1162:1191  SimpleStorage mySimpleStorage */\n      0x00\n        /* \"contracts/StorageFactory.sol\":1194:1222  listOfSimpleStorageContracts */\n      dup1\n        /* \"contracts/StorageFactory.sol\":1223:1242  _simpleStorageIndex */\n      dup4\n        /* \"contracts/StorageFactory.sol\":1194:1243  listOfSimpleStorageContracts[_simpleStorageIndex] */\n      dup2\n      sload\n      dup2\n      lt\n      tag_40\n      jumpi\n      tag_41\n      tag_27\n      jump\t// in\n    tag_41:\n    tag_40:\n      swap1\n      0x00\n      mstore\n      keccak256(0x00, 0x20)\n      add\n      0x00\n      swap1\n      sload\n      swap1\n      0x0100\n      exp\n      swap1\n      div\n      0xffffffffffffffffffffffffffffffffffffffff\n      and\n        /* \"contracts/StorageFactory.sol\":1162:1243  SimpleStorage mySimpleStorage = listOfSimpleStorageContracts[_simpleStorageIndex] */\n      swap1\n      pop\n        /* \"contracts/StorageFactory.sol\":1261:1276  mySimpleStorage */\n      dup1\n        /* \"contracts/StorageFactory.sol\":1261:1285  mySimpleStorage.retrieve */\n      0xffffffffffffffffffffffffffffffffffffffff\n      and\n      0x2e64cec1\n        /* \"contracts/StorageFactory.sol\":1261:1287  mySimpleStorage.retrieve() */\n      mload(0x40)\n      dup2\n      0xffffffff\n      and\n      0xe0\n      shl\n      dup2\n      mstore\n      0x04\n      add\n      0x00\n      mload(0x40)\n      dup1\n      dup4\n      sub\n      dup2\n      dup7\n      gas\n      staticcall\n      iszero\n      dup1\n      iszero\n      tag_44\n      jumpi\n      returndatasize\n      0x00\n      dup1\n      returndatacopy\n      revert(0x00, returndatasize)\n    tag_44:\n      pop\n      pop\n      pop\n      pop\n      mload(0x40)\n      returndatasize\n      0x00\n      dup3\n      returndatacopy\n      returndatasize\n      not(0x1f)\n      0x1f\n      dup3\n      add\n      and\n      dup3\n      add\n      dup1\n      0x40\n      mstore\n      pop\n      dup2\n      add\n      swap1\n      tag_45\n      swap2\n      swap1\n      tag_46\n      jump\t// in\n    tag_45:\n        /* \"contracts/StorageFactory.sol\":1254:1287  return mySimpleStorage.retrieve() */\n      swap2\n      pop\n      pop\n        /* \"contracts/StorageFactory.sol\":1069:1294  function sfGet(uint256 _simpleStorageIndex) public view returns (uint256[] memory) {... */\n      swap2\n      swap1\n      pop\n      jump\t// out\n        /* \"contracts/StorageFactory.sol\":252:303  SimpleStorage[] public listOfSimpleStorageContracts */\n    tag_21:\n      0x00\n      dup2\n      dup2\n      sload\n      dup2\n      lt\n      tag_47\n      jumpi\n      0x00\n      dup1\n      revert\n    tag_47:\n      swap1\n      0x00\n      mstore\n      keccak256(0x00, 0x20)\n      add\n      0x00\n      swap2\n      pop\n      sload\n      swap1\n      0x0100\n      exp\n      swap1\n      div\n      0xffffffffffffffffffffffffffffffffffffffff\n      and\n      dup2\n      jump\t// out\n    tag_36:\n      dataSize(sub_0)\n      dup1\n      dataOffset(sub_0)\n      dup4\n      codecopy\n      add\n      swap1\n      jump\t// out\n        /* \"#utility.yul\":7:82   */\n    tag_49:\n        /* \"#utility.yul\":40:46   */\n      0x00\n        /* \"#utility.yul\":73:75   */\n      0x40\n        /* \"#utility.yul\":67:76   */\n      mload\n        /* \"#utility.yul\":57:76   */\n      swap1\n      pop\n        /* \"#utility.yul\":7:82   */\n      swap1\n      jump\t// out\n        /* \"#utility.yul\":88:205   */\n    tag_50:\n        /* \"#utility.yul\":197:198   */\n      0x00\n        /* \"#utility.yul\":194:195   */\n      dup1\n        /* \"#utility.yul\":187:199   */\n      revert\n        /* \"#utility.yul\":211:328   */\n    tag_51:\n        /* \"#utility.yul\":320:321   */\n      0x00\n        /* \"#utility.yul\":317:318   */\n      dup1\n        /* \"#utility.yul\":310:322   */\n      revert\n        /* \"#utility.yul\":334:411   */\n    tag_52:\n        /* \"#utility.yul\":371:378   */\n      0x00\n        /* \"#utility.yul\":400:405   */\n      dup2\n        /* \"#utility.yul\":389:405   */\n      swap1\n      pop\n        /* \"#utility.yul\":334:411   */\n      swap2\n      swap1\n      pop\n      jump\t// out\n        /* \"#utility.yul\":417:539   */\n    tag_53:\n        /* \"#utility.yul\":490:514   */\n      tag_85\n        /* \"#utility.yul\":508:513   */\n      dup2\n        /* \"#utility.yul\":490:514   */\n      tag_52\n      jump\t// in\n    tag_85:\n        /* \"#utility.yul\":483:488   */\n      dup2\n        /* \"#utility.yul\":480:515   */\n      eq\n        /* \"#utility.yul\":470:533   */\n      tag_86\n      jumpi\n        /* \"#utility.yul\":529:530   */\n      0x00\n        /* \"#utility.yul\":526:527   */\n      dup1\n        /* \"#utility.yul\":519:531   */\n      revert\n        /* \"#utility.yul\":470:533   */\n    tag_86:\n        /* \"#utility.yul\":417:539   */\n      pop\n      jump\t// out\n        /* \"#utility.yul\":545:684   */\n    tag_54:\n        /* \"#utility.yul\":591:596   */\n      0x00\n        /* \"#utility.yul\":629:635   */\n      dup2\n        /* \"#utility.yul\":616:636   */\n      calldataload\n        /* \"#utility.yul\":607:636   */\n      swap1\n      pop\n        /* \"#utility.yul\":645:678   */\n      tag_88\n        /* \"#utility.yul\":672:677   */\n      dup2\n        /* \"#utility.yul\":645:678   */\n      tag_53\n      jump\t// in\n    tag_88:\n        /* \"#utility.yul\":545:684   */\n      swap3\n      swap2\n      pop\n      pop\n      jump\t// out\n        /* \"#utility.yul\":690:1164   */\n    tag_9:\n        /* \"#utility.yul\":758:764   */\n      0x00\n        /* \"#utility.yul\":766:772   */\n      dup1\n        /* \"#utility.yul\":815:817   */\n      0x40\n        /* \"#utility.yul\":803:812   */\n      dup4\n        /* \"#utility.yul\":794:801   */\n      dup6\n        /* \"#utility.yul\":790:813   */\n      sub\n        /* \"#utility.yul\":786:818   */\n      slt\n        /* \"#utility.yul\":783:902   */\n      iszero\n      tag_90\n      jumpi\n        /* \"#utility.yul\":821:900   */\n      tag_91\n      tag_50\n      jump\t// in\n    tag_91:\n        /* \"#utility.yul\":783:902   */\n    tag_90:\n        /* \"#utility.yul\":941:942   */\n      0x00\n        /* \"#utility.yul\":966:1019   */\n      tag_92\n        /* \"#utility.yul\":1011:1018   */\n      dup6\n        /* \"#utility.yul\":1002:1008   */\n      dup3\n        /* \"#utility.yul\":991:1000   */\n      dup7\n        /* \"#utility.yul\":987:1009   */\n      add\n        /* \"#utility.yul\":966:1019   */\n      tag_54\n      jump\t// in\n    tag_92:\n        /* \"#utility.yul\":956:1019   */\n      swap3\n      pop\n        /* \"#utility.yul\":912:1029   */\n      pop\n        /* \"#utility.yul\":1068:1070   */\n      0x20\n        /* \"#utility.yul\":1094:1147   */\n      tag_93\n        /* \"#utility.yul\":1139:1146   */\n      dup6\n        /* \"#utility.yul\":1130:1136   */\n      dup3\n        /* \"#utility.yul\":1119:1128   */\n      dup7\n        /* \"#utility.yul\":1115:1137   */\n      add\n        /* \"#utility.yul\":1094:1147   */\n      tag_54\n      jump\t// in\n    tag_93:\n        /* \"#utility.yul\":1084:1147   */\n      swap2\n      pop\n        /* \"#utility.yul\":1039:1157   */\n      pop\n        /* \"#utility.yul\":690:1164   */\n      swap3\n      pop\n      swap3\n      swap1\n      pop\n      jump\t// out\n        /* \"#utility.yul\":1170:1499   */\n    tag_15:\n        /* \"#utility.yul\":1229:1235   */\n      0x00\n        /* \"#utility.yul\":1278:1280   */\n      0x20\n        /* \"#utility.yul\":1266:1275   */\n      dup3\n        /* \"#utility.yul\":1257:1264   */\n      dup5\n        /* \"#utility.yul\":1253:1276   */\n      sub\n        /* \"#utility.yul\":1249:1281   */\n      slt\n        /* \"#utility.yul\":1246:1365   */\n      iszero\n      tag_95\n      jumpi\n        /* \"#utility.yul\":1284:1363   */\n      tag_96\n      tag_50\n      jump\t// in\n    tag_96:\n        /* \"#utility.yul\":1246:1365   */\n    tag_95:\n        /* \"#utility.yul\":1404:1405   */\n      0x00\n        /* \"#utility.yul\":1429:1482   */\n      tag_97\n        /* \"#utility.yul\":1474:1481   */\n      dup5\n        /* \"#utility.yul\":1465:1471   */\n      dup3\n        /* \"#utility.yul\":1454:1463   */\n      dup6\n        /* \"#utility.yul\":1450:1472   */\n      add\n        /* \"#utility.yul\":1429:1482   */\n      tag_54\n      jump\t// in\n    tag_97:\n        /* \"#utility.yul\":1419:1482   */\n      swap2\n      pop\n        /* \"#utility.yul\":1375:1492   */\n      pop\n        /* \"#utility.yul\":1170:1499   */\n      swap3\n      swap2\n      pop\n      pop\n      jump\t// out\n        /* \"#utility.yul\":1505:1619   */\n    tag_55:\n        /* \"#utility.yul\":1572:1578   */\n      0x00\n        /* \"#utility.yul\":1606:1611   */\n      dup2\n        /* \"#utility.yul\":1600:1612   */\n      mload\n        /* \"#utility.yul\":1590:1612   */\n      swap1\n      pop\n        /* \"#utility.yul\":1505:1619   */\n      swap2\n      swap1\n      pop\n      jump\t// out\n        /* \"#utility.yul\":1625:1809   */\n    tag_56:\n        /* \"#utility.yul\":1724:1735   */\n      0x00\n        /* \"#utility.yul\":1758:1764   */\n      dup3\n        /* \"#utility.yul\":1753:1756   */\n      dup3\n        /* \"#utility.yul\":1746:1765   */\n      mstore\n        /* \"#utility.yul\":1798:1802   */\n      0x20\n        /* \"#utility.yul\":1793:1796   */\n      dup3\n        /* \"#utility.yul\":1789:1803   */\n      add\n        /* \"#utility.yul\":1774:1803   */\n      swap1\n      pop\n        /* \"#utility.yul\":1625:1809   */\n      swap3\n      swap2\n      pop\n      pop\n      jump\t// out\n        /* \"#utility.yul\":1815:1947   */\n    tag_57:\n        /* \"#utility.yul\":1882:1886   */\n      0x00\n        /* \"#utility.yul\":1905:1908   */\n      dup2\n        /* \"#utility.yul\":1897:1908   */\n      swap1\n      pop\n        /* \"#utility.yul\":1935:1939   */\n      0x20\n        /* \"#utility.yul\":1930:1933   */\n      dup3\n        /* \"#utility.yul\":1926:1940   */\n      add\n        /* \"#utility.yul\":1918:1940   */\n      swap1\n      pop\n        /* \"#utility.yul\":1815:1947   */\n      swap2\n      swap1\n      pop\n      jump\t// out\n        /* \"#utility.yul\":1953:2061   */\n    tag_58:\n        /* \"#utility.yul\":2030:2054   */\n      tag_102\n        /* \"#utility.yul\":2048:2053   */\n      dup2\n        /* \"#utility.yul\":2030:2054   */\n      tag_52\n      jump\t// in\n    tag_102:\n        /* \"#utility.yul\":2025:2028   */\n      dup3\n        /* \"#utility.yul\":2018:2055   */\n      mstore\n        /* \"#utility.yul\":1953:2061   */\n      pop\n      pop\n      jump\t// out\n        /* \"#utility.yul\":2067:2246   */\n    tag_59:\n        /* \"#utility.yul\":2136:2146   */\n      0x00\n        /* \"#utility.yul\":2157:2203   */\n      tag_104\n        /* \"#utility.yul\":2199:2202   */\n      dup4\n        /* \"#utility.yul\":2191:2197   */\n      dup4\n        /* \"#utility.yul\":2157:2203   */\n      tag_58\n      jump\t// in\n    tag_104:\n        /* \"#utility.yul\":2235:2239   */\n      0x20\n        /* \"#utility.yul\":2230:2233   */\n      dup4\n        /* \"#utility.yul\":2226:2240   */\n      add\n        /* \"#utility.yul\":2212:2240   */\n      swap1\n      pop\n        /* \"#utility.yul\":2067:2246   */\n      swap3\n      swap2\n      pop\n      pop\n      jump\t// out\n        /* \"#utility.yul\":2252:2365   */\n    tag_60:\n        /* \"#utility.yul\":2322:2326   */\n      0x00\n        /* \"#utility.yul\":2354:2358   */\n      0x20\n        /* \"#utility.yul\":2349:2352   */\n      dup3\n        /* \"#utility.yul\":2345:2359   */\n      add\n        /* \"#utility.yul\":2337:2359   */\n      swap1\n      pop\n        /* \"#utility.yul\":2252:2365   */\n      swap2\n      swap1\n      pop\n      jump\t// out\n        /* \"#utility.yul\":2401:3133   */\n    tag_61:\n        /* \"#utility.yul\":2520:2523   */\n      0x00\n        /* \"#utility.yul\":2549:2603   */\n      tag_107\n        /* \"#utility.yul\":2597:2602   */\n      dup3\n        /* \"#utility.yul\":2549:2603   */\n      tag_55\n      jump\t// in\n    tag_107:\n        /* \"#utility.yul\":2619:2705   */\n      tag_108\n        /* \"#utility.yul\":2698:2704   */\n      dup2\n        /* \"#utility.yul\":2693:2696   */\n      dup6\n        /* \"#utility.yul\":2619:2705   */\n      tag_56\n      jump\t// in\n    tag_108:\n        /* \"#utility.yul\":2612:2705   */\n      swap4\n      pop\n        /* \"#utility.yul\":2729:2785   */\n      tag_109\n        /* \"#utility.yul\":2779:2784   */\n      dup4\n        /* \"#utility.yul\":2729:2785   */\n      tag_57\n      jump\t// in\n    tag_109:\n        /* \"#utility.yul\":2808:2815   */\n      dup1\n        /* \"#utility.yul\":2839:2840   */\n      0x00\n        /* \"#utility.yul\":2824:3108   */\n    tag_110:\n        /* \"#utility.yul\":2849:2855   */\n      dup4\n        /* \"#utility.yul\":2846:2847   */\n      dup2\n        /* \"#utility.yul\":2843:2856   */\n      lt\n        /* \"#utility.yul\":2824:3108   */\n      iszero\n      tag_112\n      jumpi\n        /* \"#utility.yul\":2925:2931   */\n      dup2\n        /* \"#utility.yul\":2919:2932   */\n      mload\n        /* \"#utility.yul\":2952:3015   */\n      tag_113\n        /* \"#utility.yul\":3011:3014   */\n      dup9\n        /* \"#utility.yul\":2996:3009   */\n      dup3\n        /* \"#utility.yul\":2952:3015   */\n      tag_59\n      jump\t// in\n    tag_113:\n        /* \"#utility.yul\":2945:3015   */\n      swap8\n      pop\n        /* \"#utility.yul\":3038:3098   */\n      tag_114\n        /* \"#utility.yul\":3091:3097   */\n      dup4\n        /* \"#utility.yul\":3038:3098   */\n      tag_60\n      jump\t// in\n    tag_114:\n        /* \"#utility.yul\":3028:3098   */\n      swap3\n      pop\n        /* \"#utility.yul\":2884:3108   */\n      pop\n        /* \"#utility.yul\":2871:2872   */\n      0x01\n        /* \"#utility.yul\":2868:2869   */\n      dup2\n        /* \"#utility.yul\":2864:2873   */\n      add\n        /* \"#utility.yul\":2859:2873   */\n      swap1\n      pop\n        /* \"#utility.yul\":2824:3108   */\n      jump(tag_110)\n    tag_112:\n        /* \"#utility.yul\":2828:2842   */\n      pop\n        /* \"#utility.yul\":3124:3127   */\n      dup6\n        /* \"#utility.yul\":3117:3127   */\n      swap4\n      pop\n        /* \"#utility.yul\":2525:3133   */\n      pop\n      pop\n      pop\n        /* \"#utility.yul\":2401:3133   */\n      swap3\n      swap2\n      pop\n      pop\n      jump\t// out\n        /* \"#utility.yul\":3139:3512   */\n    tag_18:\n        /* \"#utility.yul\":3282:3286   */\n      0x00\n        /* \"#utility.yul\":3320:3322   */\n      0x20\n        /* \"#utility.yul\":3309:3318   */\n      dup3\n        /* \"#utility.yul\":3305:3323   */\n      add\n        /* \"#utility.yul\":3297:3323   */\n      swap1\n      pop\n        /* \"#utility.yul\":3369:3378   */\n      dup2\n        /* \"#utility.yul\":3363:3367   */\n      dup2\n        /* \"#utility.yul\":3359:3379   */\n      sub\n        /* \"#utility.yul\":3355:3356   */\n      0x00\n        /* \"#utility.yul\":3344:3353   */\n      dup4\n        /* \"#utility.yul\":3340:3357   */\n      add\n        /* \"#utility.yul\":3333:3380   */\n      mstore\n        /* \"#utility.yul\":3397:3505   */\n      tag_116\n        /* \"#utility.yul\":3500:3504   */\n      dup2\n        /* \"#utility.yul\":3491:3497   */\n      dup5\n        /* \"#utility.yul\":3397:3505   */\n      tag_61\n      jump\t// in\n    tag_116:\n        /* \"#utility.yul\":3389:3505   */\n      swap1\n      pop\n        /* \"#utility.yul\":3139:3512   */\n      swap3\n      swap2\n      pop\n      pop\n      jump\t// out\n        /* \"#utility.yul\":3518:3644   */\n    tag_62:\n        /* \"#utility.yul\":3555:3562   */\n      0x00\n        /* \"#utility.yul\":3595:3637   */\n      0xffffffffffffffffffffffffffffffffffffffff\n        /* \"#utility.yul\":3588:3593   */\n      dup3\n        /* \"#utility.yul\":3584:3638   */\n      and\n        /* \"#utility.yul\":3573:3638   */\n      swap1\n      pop\n        /* \"#utility.yul\":3518:3644   */\n      swap2\n      swap1\n      pop\n      jump\t// out\n        /* \"#utility.yul\":3650:3710   */\n    tag_63:\n        /* \"#utility.yul\":3678:3681   */\n      0x00\n        /* \"#utility.yul\":3699:3704   */\n      dup2\n        /* \"#utility.yul\":3692:3704   */\n      swap1\n      pop\n        /* \"#utility.yul\":3650:3710   */\n      swap2\n      swap1\n      pop\n      jump\t// out\n        /* \"#utility.yul\":3716:3858   */\n    tag_64:\n        /* \"#utility.yul\":3766:3775   */\n      0x00\n        /* \"#utility.yul\":3799:3852   */\n      tag_120\n        /* \"#utility.yul\":3817:3851   */\n      tag_121\n        /* \"#utility.yul\":3826:3850   */\n      tag_122\n        /* \"#utility.yul\":3844:3849   */\n      dup5\n        /* \"#utility.yul\":3826:3850   */\n      tag_62\n      jump\t// in\n    tag_122:\n        /* \"#utility.yul\":3817:3851   */\n      tag_63\n      jump\t// in\n    tag_121:\n        /* \"#utility.yul\":3799:3852   */\n      tag_62\n      jump\t// in\n    tag_120:\n        /* \"#utility.yul\":3786:3852   */\n      swap1\n      pop\n        /* \"#utility.yul\":3716:3858   */\n      swap2\n      swap1\n      pop\n      jump\t// out\n        /* \"#utility.yul\":3864:3990   */\n    tag_65:\n        /* \"#utility.yul\":3914:3923   */\n      0x00\n        /* \"#utility.yul\":3947:3984   */\n      tag_124\n        /* \"#utility.yul\":3978:3983   */\n      dup3\n        /* \"#utility.yul\":3947:3984   */\n      tag_64\n      jump\t// in\n    tag_124:\n        /* \"#utility.yul\":3934:3984   */\n      swap1\n      pop\n        /* \"#utility.yul\":3864:3990   */\n      swap2\n      swap1\n      pop\n      jump\t// out\n        /* \"#utility.yul\":3996:4142   */\n    tag_66:\n        /* \"#utility.yul\":4066:4075   */\n      0x00\n        /* \"#utility.yul\":4099:4136   */\n      tag_126\n        /* \"#utility.yul\":4130:4135   */\n      dup3\n        /* \"#utility.yul\":4099:4136   */\n      tag_65\n      jump\t// in\n    tag_126:\n        /* \"#utility.yul\":4086:4136   */\n      swap1\n      pop\n        /* \"#utility.yul\":3996:4142   */\n      swap2\n      swap1\n      pop\n      jump\t// out\n        /* \"#utility.yul\":4148:4319   */\n    tag_67:\n        /* \"#utility.yul\":4255:4312   */\n      tag_128\n        /* \"#utility.yul\":4306:4311   */\n      dup2\n        /* \"#utility.yul\":4255:4312   */\n      tag_66\n      jump\t// in\n    tag_128:\n        /* \"#utility.yul\":4250:4253   */\n      dup3\n        /* \"#utility.yul\":4243:4313   */\n      mstore\n        /* \"#utility.yul\":4148:4319   */\n      pop\n      pop\n      jump\t// out\n        /* \"#utility.yul\":4325:4587   */\n    tag_23:\n        /* \"#utility.yul\":4438:4442   */\n      0x00\n        /* \"#utility.yul\":4476:4478   */\n      0x20\n        /* \"#utility.yul\":4465:4474   */\n      dup3\n        /* \"#utility.yul\":4461:4479   */\n      add\n        /* \"#utility.yul\":4453:4479   */\n      swap1\n      pop\n        /* \"#utility.yul\":4489:4580   */\n      tag_130\n        /* \"#utility.yul\":4577:4578   */\n      0x00\n        /* \"#utility.yul\":4566:4575   */\n      dup4\n        /* \"#utility.yul\":4562:4579   */\n      add\n        /* \"#utility.yul\":4553:4559   */\n      dup5\n        /* \"#utility.yul\":4489:4580   */\n      tag_67\n      jump\t// in\n    tag_130:\n        /* \"#utility.yul\":4325:4587   */\n      swap3\n      swap2\n      pop\n      pop\n      jump\t// out\n        /* \"#utility.yul\":4593:4773   */\n    tag_27:\n        /* \"#utility.yul\":4641:4718   */\n      0x4e487b7100000000000000000000000000000000000000000000000000000000\n        /* \"#utility.yul\":4638:4639   */\n      0x00\n        /* \"#utility.yul\":4631:4719   */\n      mstore\n        /* \"#utility.yul\":4738:4742   */\n      0x32\n        /* \"#utility.yul\":4735:4736   */\n      0x04\n        /* \"#utility.yul\":4728:4743   */\n      mstore\n        /* \"#utility.yul\":4762:4766   */\n      0x24\n        /* \"#utility.yul\":4759:4760   */\n      0x00\n        /* \"#utility.yul\":4752:4767   */\n      revert\n        /* \"#utility.yul\":4779:4897   */\n    tag_68:\n        /* \"#utility.yul\":4866:4890   */\n      tag_133\n        /* \"#utility.yul\":4884:4889   */\n      dup2\n        /* \"#utility.yul\":4866:4890   */\n      tag_52\n      jump\t// in\n    tag_133:\n        /* \"#utility.yul\":4861:4864   */\n      dup3\n        /* \"#utility.yul\":4854:4891   */\n      mstore\n        /* \"#utility.yul\":4779:4897   */\n      pop\n      pop\n      jump\t// out\n        /* \"#utility.yul\":4903:5125   */\n    tag_30:\n        /* \"#utility.yul\":4996:5000   */\n      0x00\n        /* \"#utility.yul\":5034:5036   */\n      0x20\n        /* \"#utility.yul\":5023:5032   */\n      dup3\n        /* \"#utility.yul\":5019:5037   */\n      add\n        /* \"#utility.yul\":5011:5037   */\n      swap1\n      pop\n        /* \"#utility.yul\":5047:5118   */\n      tag_135\n        /* \"#utility.yul\":5115:5116   */\n      0x00\n        /* \"#utility.yul\":5104:5113   */\n      dup4\n        /* \"#utility.yul\":5100:5117   */\n      add\n        /* \"#utility.yul\":5091:5097   */\n      dup5\n        /* \"#utility.yul\":5047:5118   */\n      tag_68\n      jump\t// in\n    tag_135:\n        /* \"#utility.yul\":4903:5125   */\n      swap3\n      swap2\n      pop\n      pop\n      jump\t// out\n        /* \"#utility.yul\":5131:5248   */\n    tag_69:\n        /* \"#utility.yul\":5240:5241   */\n      0x00\n        /* \"#utility.yul\":5237:5238   */\n      dup1\n        /* \"#utility.yul\":5230:5242   */\n      revert\n        /* \"#utility.yul\":5254:5356   */\n    tag_70:\n        /* \"#utility.yul\":5295:5301   */\n      0x00\n        /* \"#utility.yul\":5346:5348   */\n      0x1f\n        /* \"#utility.yul\":5342:5349   */\n      not\n        /* \"#utility.yul\":5337:5339   */\n      0x1f\n        /* \"#utility.yul\":5330:5335   */\n      dup4\n        /* \"#utility.yul\":5326:5340   */\n      add\n        /* \"#utility.yul\":5322:5350   */\n      and\n        /* \"#utility.yul\":5312:5350   */\n      swap1\n      pop\n        /* \"#utility.yul\":5254:5356   */\n      swap2\n      swap1\n      pop\n      jump\t// out\n        /* \"#utility.yul\":5362:5542   */\n    tag_71:\n        /* \"#utility.yul\":5410:5487   */\n      0x4e487b7100000000000000000000000000000000000000000000000000000000\n        /* \"#utility.yul\":5407:5408   */\n      0x00\n        /* \"#utility.yul\":5400:5488   */\n      mstore\n        /* \"#utility.yul\":5507:5511   */\n      0x41\n        /* \"#utility.yul\":5504:5505   */\n      0x04\n        /* \"#utility.yul\":5497:5512   */\n      mstore\n        /* \"#utility.yul\":5531:5535   */\n      0x24\n        /* \"#utility.yul\":5528:5529   */\n      0x00\n        /* \"#utility.yul\":5521:5536   */\n      revert\n        /* \"#utility.yul\":5548:5829   */\n    tag_72:\n        /* \"#utility.yul\":5631:5658   */\n      tag_140\n        /* \"#utility.yul\":5653:5657   */\n      dup3\n        /* \"#utility.yul\":5631:5658   */\n      tag_70\n      jump\t// in\n    tag_140:\n        /* \"#utility.yul\":5623:5629   */\n      dup2\n        /* \"#utility.yul\":5619:5659   */\n      add\n        /* \"#utility.yul\":5761:5767   */\n      dup2\n        /* \"#utility.yul\":5749:5759   */\n      dup2\n        /* \"#utility.yul\":5746:5768   */\n      lt\n        /* \"#utility.yul\":5725:5743   */\n      0xffffffffffffffff\n        /* \"#utility.yul\":5713:5723   */\n      dup3\n        /* \"#utility.yul\":5710:5744   */\n      gt\n        /* \"#utility.yul\":5707:5769   */\n      or\n        /* \"#utility.yul\":5704:5792   */\n      iszero\n      tag_141\n      jumpi\n        /* \"#utility.yul\":5772:5790   */\n      tag_142\n      tag_71\n      jump\t// in\n    tag_142:\n        /* \"#utility.yul\":5704:5792   */\n    tag_141:\n        /* \"#utility.yul\":5812:5822   */\n      dup1\n        /* \"#utility.yul\":5808:5810   */\n      0x40\n        /* \"#utility.yul\":5801:5823   */\n      mstore\n        /* \"#utility.yul\":5591:5829   */\n      pop\n        /* \"#utility.yul\":5548:5829   */\n      pop\n      pop\n      jump\t// out\n        /* \"#utility.yul\":5835:5964   */\n    tag_73:\n        /* \"#utility.yul\":5869:5875   */\n      0x00\n        /* \"#utility.yul\":5896:5916   */\n      tag_144\n      tag_49\n      jump\t// in\n    tag_144:\n        /* \"#utility.yul\":5886:5916   */\n      swap1\n      pop\n        /* \"#utility.yul\":5925:5958   */\n      tag_145\n        /* \"#utility.yul\":5953:5957   */\n      dup3\n        /* \"#utility.yul\":5945:5951   */\n      dup3\n        /* \"#utility.yul\":5925:5958   */\n      tag_72\n      jump\t// in\n    tag_145:\n        /* \"#utility.yul\":5835:5964   */\n      swap2\n      swap1\n      pop\n      jump\t// out\n        /* \"#utility.yul\":5970:6281   */\n    tag_74:\n        /* \"#utility.yul\":6047:6051   */\n      0x00\n        /* \"#utility.yul\":6137:6155   */\n      0xffffffffffffffff\n        /* \"#utility.yul\":6129:6135   */\n      dup3\n        /* \"#utility.yul\":6126:6156   */\n      gt\n        /* \"#utility.yul\":6123:6179   */\n      iszero\n      tag_147\n      jumpi\n        /* \"#utility.yul\":6159:6177   */\n      tag_148\n      tag_71\n      jump\t// in\n    tag_148:\n        /* \"#utility.yul\":6123:6179   */\n    tag_147:\n        /* \"#utility.yul\":6209:6213   */\n      0x20\n        /* \"#utility.yul\":6201:6207   */\n      dup3\n        /* \"#utility.yul\":6197:6214   */\n      mul\n        /* \"#utility.yul\":6189:6214   */\n      swap1\n      pop\n        /* \"#utility.yul\":6269:6273   */\n      0x20\n        /* \"#utility.yul\":6263:6267   */\n      dup2\n        /* \"#utility.yul\":6259:6274   */\n      add\n        /* \"#utility.yul\":6251:6274   */\n      swap1\n      pop\n        /* \"#utility.yul\":5970:6281   */\n      swap2\n      swap1\n      pop\n      jump\t// out\n        /* \"#utility.yul\":6287:6404   */\n    tag_75:\n        /* \"#utility.yul\":6396:6397   */\n      0x00\n        /* \"#utility.yul\":6393:6394   */\n      dup1\n        /* \"#utility.yul\":6386:6398   */\n      revert\n        /* \"#utility.yul\":6410:6553   */\n    tag_76:\n        /* \"#utility.yul\":6467:6472   */\n      0x00\n        /* \"#utility.yul\":6498:6504   */\n      dup2\n        /* \"#utility.yul\":6492:6505   */\n      mload\n        /* \"#utility.yul\":6483:6505   */\n      swap1\n      pop\n        /* \"#utility.yul\":6514:6547   */\n      tag_151\n        /* \"#utility.yul\":6541:6546   */\n      dup2\n        /* \"#utility.yul\":6514:6547   */\n      tag_53\n      jump\t// in\n    tag_151:\n        /* \"#utility.yul\":6410:6553   */\n      swap3\n      swap2\n      pop\n      pop\n      jump\t// out\n        /* \"#utility.yul\":6576:7308   */\n    tag_77:\n        /* \"#utility.yul\":6683:6688   */\n      0x00\n        /* \"#utility.yul\":6708:6789   */\n      tag_153\n        /* \"#utility.yul\":6724:6788   */\n      tag_154\n        /* \"#utility.yul\":6781:6787   */\n      dup5\n        /* \"#utility.yul\":6724:6788   */\n      tag_74\n      jump\t// in\n    tag_154:\n        /* \"#utility.yul\":6708:6789   */\n      tag_73\n      jump\t// in\n    tag_153:\n        /* \"#utility.yul\":6699:6789   */\n      swap1\n      pop\n        /* \"#utility.yul\":6809:6814   */\n      dup1\n        /* \"#utility.yul\":6838:6844   */\n      dup4\n        /* \"#utility.yul\":6831:6836   */\n      dup3\n        /* \"#utility.yul\":6824:6845   */\n      mstore\n        /* \"#utility.yul\":6872:6876   */\n      0x20\n        /* \"#utility.yul\":6865:6870   */\n      dup3\n        /* \"#utility.yul\":6861:6877   */\n      add\n        /* \"#utility.yul\":6854:6877   */\n      swap1\n      pop\n        /* \"#utility.yul\":6925:6929   */\n      0x20\n        /* \"#utility.yul\":6917:6923   */\n      dup5\n        /* \"#utility.yul\":6913:6930   */\n      mul\n        /* \"#utility.yul\":6905:6911   */\n      dup4\n        /* \"#utility.yul\":6901:6931   */\n      add\n        /* \"#utility.yul\":6954:6957   */\n      dup6\n        /* \"#utility.yul\":6946:6952   */\n      dup2\n        /* \"#utility.yul\":6943:6958   */\n      gt\n        /* \"#utility.yul\":6940:7062   */\n      iszero\n      tag_155\n      jumpi\n        /* \"#utility.yul\":6973:7052   */\n      tag_156\n      tag_75\n      jump\t// in\n    tag_156:\n        /* \"#utility.yul\":6940:7062   */\n    tag_155:\n        /* \"#utility.yul\":7088:7094   */\n      dup4\n        /* \"#utility.yul\":7071:7302   */\n    tag_157:\n        /* \"#utility.yul\":7105:7111   */\n      dup2\n        /* \"#utility.yul\":7100:7103   */\n      dup2\n        /* \"#utility.yul\":7097:7112   */\n      lt\n        /* \"#utility.yul\":7071:7302   */\n      iszero\n      tag_159\n      jumpi\n        /* \"#utility.yul\":7180:7183   */\n      dup1\n        /* \"#utility.yul\":7209:7257   */\n      tag_160\n        /* \"#utility.yul\":7253:7256   */\n      dup9\n        /* \"#utility.yul\":7241:7251   */\n      dup3\n        /* \"#utility.yul\":7209:7257   */\n      tag_76\n      jump\t// in\n    tag_160:\n        /* \"#utility.yul\":7204:7207   */\n      dup5\n        /* \"#utility.yul\":7197:7258   */\n      mstore\n        /* \"#utility.yul\":7287:7291   */\n      0x20\n        /* \"#utility.yul\":7282:7285   */\n      dup5\n        /* \"#utility.yul\":7278:7292   */\n      add\n        /* \"#utility.yul\":7271:7292   */\n      swap4\n      pop\n        /* \"#utility.yul\":7147:7302   */\n      pop\n        /* \"#utility.yul\":7131:7135   */\n      0x20\n        /* \"#utility.yul\":7126:7129   */\n      dup2\n        /* \"#utility.yul\":7122:7136   */\n      add\n        /* \"#utility.yul\":7115:7136   */\n      swap1\n      pop\n        /* \"#utility.yul\":7071:7302   */\n      jump(tag_157)\n    tag_159:\n        /* \"#utility.yul\":7075:7096   */\n      pop\n        /* \"#utility.yul\":6689:7308   */\n      pop\n      pop\n        /* \"#utility.yul\":6576:7308   */\n      swap4\n      swap3\n      pop\n      pop\n      pop\n      jump\t// out\n        /* \"#utility.yul\":7331:7716   */\n    tag_78:\n        /* \"#utility.yul\":7413:7418   */\n      0x00\n        /* \"#utility.yul\":7462:7465   */\n      dup3\n        /* \"#utility.yul\":7455:7459   */\n      0x1f\n        /* \"#utility.yul\":7447:7453   */\n      dup4\n        /* \"#utility.yul\":7443:7460   */\n      add\n        /* \"#utility.yul\":7439:7466   */\n      slt\n        /* \"#utility.yul\":7429:7551   */\n      tag_162\n      jumpi\n        /* \"#utility.yul\":7470:7549   */\n      tag_163\n      tag_69\n      jump\t// in\n    tag_163:\n        /* \"#utility.yul\":7429:7551   */\n    tag_162:\n        /* \"#utility.yul\":7580:7586   */\n      dup2\n        /* \"#utility.yul\":7574:7587   */\n      mload\n        /* \"#utility.yul\":7605:7710   */\n      tag_164\n        /* \"#utility.yul\":7706:7709   */\n      dup5\n        /* \"#utility.yul\":7698:7704   */\n      dup3\n        /* \"#utility.yul\":7691:7695   */\n      0x20\n        /* \"#utility.yul\":7683:7689   */\n      dup7\n        /* \"#utility.yul\":7679:7696   */\n      add\n        /* \"#utility.yul\":7605:7710   */\n      tag_77\n      jump\t// in\n    tag_164:\n        /* \"#utility.yul\":7596:7710   */\n      swap2\n      pop\n        /* \"#utility.yul\":7419:7716   */\n      pop\n        /* \"#utility.yul\":7331:7716   */\n      swap3\n      swap2\n      pop\n      pop\n      jump\t// out\n        /* \"#utility.yul\":7722:8276   */\n    tag_46:\n        /* \"#utility.yul\":7817:7823   */\n      0x00\n        /* \"#utility.yul\":7866:7868   */\n      0x20\n        /* \"#utility.yul\":7854:7863   */\n      dup3\n        /* \"#utility.yul\":7845:7852   */\n      dup5\n        /* \"#utility.yul\":7841:7864   */\n      sub\n        /* \"#utility.yul\":7837:7869   */\n      slt\n        /* \"#utility.yul\":7834:7953   */\n      iszero\n      tag_166\n      jumpi\n        /* \"#utility.yul\":7872:7951   */\n      tag_167\n      tag_50\n      jump\t// in\n    tag_167:\n        /* \"#utility.yul\":7834:7953   */\n    tag_166:\n        /* \"#utility.yul\":8013:8014   */\n      0x00\n        /* \"#utility.yul\":8002:8011   */\n      dup3\n        /* \"#utility.yul\":7998:8015   */\n      add\n        /* \"#utility.yul\":7992:8016   */\n      mload\n        /* \"#utility.yul\":8043:8061   */\n      0xffffffffffffffff\n        /* \"#utility.yul\":8035:8041   */\n      dup2\n        /* \"#utility.yul\":8032:8062   */\n      gt\n        /* \"#utility.yul\":8029:8146   */\n      iszero\n      tag_168\n      jumpi\n        /* \"#utility.yul\":8065:8144   */\n      tag_169\n      tag_51\n      jump\t// in\n    tag_169:\n        /* \"#utility.yul\":8029:8146   */\n    tag_168:\n        /* \"#utility.yul\":8170:8259   */\n      tag_170\n        /* \"#utility.yul\":8251:8258   */\n      dup5\n        /* \"#utility.yul\":8242:8248   */\n      dup3\n        /* \"#utility.yul\":8231:8240   */\n      dup6\n        /* \"#utility.yul\":8227:8249   */\n      add\n        /* \"#utility.yul\":8170:8259   */\n      tag_78\n      jump\t// in\n    tag_170:\n        /* \"#utility.yul\":8160:8259   */\n      swap2\n      pop\n        /* \"#utility.yul\":7963:8269   */\n      pop\n        /* \"#utility.yul\":7722:8276   */\n      swap3\n      swap2\n      pop\n      pop\n      jump\t// out\n    stop\n\n    sub_0: assembly {\n            /* \"contracts/SimpleStorage.sol\":88:1185  contract SimpleStorage {... */\n          mstore(0x40, 0x80)\n          callvalue\n          dup1\n          iszero\n          tag_1\n          jumpi\n          0x00\n          dup1\n          revert\n        tag_1:\n          pop\n          dataSize(sub_0)\n          dup1\n          dataOffset(sub_0)\n          0x00\n          codecopy\n          0x00\n          return\n        stop\n\n        sub_0: assembly {\n                /* \"contracts/SimpleStorage.sol\":88:1185  contract SimpleStorage {... */\n              mstore(0x40, 0x80)\n              callvalue\n              dup1\n              iszero\n              tag_1\n              jumpi\n              0x00\n              dup1\n              revert\n            tag_1:\n              pop\n              jumpi(tag_2, lt(calldatasize, 0x04))\n              shr(0xe0, calldataload(0x00))\n              dup1\n              0x2e64cec1\n              eq\n              tag_3\n              jumpi\n              dup1\n              0x2ebce631\n              eq\n              tag_4\n              jumpi\n              dup1\n              0x6057361d\n              eq\n              tag_5\n              jumpi\n              dup1\n              0x6f760f41\n              eq\n              tag_6\n              jumpi\n              dup1\n              0x877d0867\n              eq\n              tag_7\n              jumpi\n              dup1\n              0x8bab8dd5\n              eq\n              tag_8\n              jumpi\n            tag_2:\n              0x00\n              dup1\n              revert\n                /* \"contracts/SimpleStorage.sol\":827:920  function retrieve() public view returns(uint256[] memory){... */\n            tag_3:\n              tag_9\n              tag_10\n              jump\t// in\n            tag_9:\n              mload(0x40)\n              tag_11\n              swap2\n              swap1\n              tag_12\n              jump\t// in\n            tag_11:\n              mload(0x40)\n              dup1\n              swap2\n              sub\n              swap1\n              return\n                /* \"contracts/SimpleStorage.sol\":428:456  Person[] public listOfPeople */\n            tag_4:\n              tag_13\n              0x04\n              dup1\n              calldatasize\n              sub\n              dup2\n              add\n              swap1\n              tag_14\n              swap2\n              swap1\n              tag_15\n              jump\t// in\n            tag_14:\n              tag_16\n              jump\t// in\n            tag_13:\n              mload(0x40)\n              tag_17\n              swap3\n              swap2\n              swap1\n              tag_18\n              jump\t// in\n            tag_17:\n              mload(0x40)\n              dup1\n              swap2\n              sub\n              swap1\n              return\n                /* \"contracts/SimpleStorage.sol\":663:766  function store (uint _favoriteNumber) public virtual{... */\n            tag_5:\n              tag_19\n              0x04\n              dup1\n              calldatasize\n              sub\n              dup2\n              add\n              swap1\n              tag_20\n              swap2\n              swap1\n              tag_15\n              jump\t// in\n            tag_20:\n              tag_21\n              jump\t// in\n            tag_19:\n              stop\n                /* \"contracts/SimpleStorage.sol\":987:1182  function addPerson( string memory _name, uint256 _favoriteNumber) public {... */\n            tag_6:\n              tag_22\n              0x04\n              dup1\n              calldatasize\n              sub\n              dup2\n              add\n              swap1\n              tag_23\n              swap2\n              swap1\n              tag_24\n              jump\t// in\n            tag_23:\n              tag_25\n              jump\t// in\n            tag_22:\n              stop\n                /* \"contracts/SimpleStorage.sol\":180:213  uint256[] public myfavoriteNumber */\n            tag_7:\n              tag_26\n              0x04\n              dup1\n              calldatasize\n              sub\n              dup2\n              add\n              swap1\n              tag_27\n              swap2\n              swap1\n              tag_15\n              jump\t// in\n            tag_27:\n              tag_28\n              jump\t// in\n            tag_26:\n              mload(0x40)\n              tag_29\n              swap2\n              swap1\n              tag_30\n              jump\t// in\n            tag_29:\n              mload(0x40)\n              dup1\n              swap2\n              sub\n              swap1\n              return\n                /* \"contracts/SimpleStorage.sol\":543:597  mapping(string => uint256) public nameToFavoriteNumber */\n            tag_8:\n              tag_31\n              0x04\n              dup1\n              calldatasize\n              sub\n              dup2\n              add\n              swap1\n              tag_32\n              swap2\n              swap1\n              tag_33\n              jump\t// in\n            tag_32:\n              tag_34\n              jump\t// in\n            tag_31:\n              mload(0x40)\n              tag_35\n              swap2\n              swap1\n              tag_30\n              jump\t// in\n            tag_35:\n              mload(0x40)\n              dup1\n              swap2\n              sub\n              swap1\n              return\n                /* \"contracts/SimpleStorage.sol\":827:920  function retrieve() public view returns(uint256[] memory){... */\n            tag_10:\n                /* \"contracts/SimpleStorage.sol\":867:883  uint256[] memory */\n              0x60\n                /* \"contracts/SimpleStorage.sol\":897:913  myfavoriteNumber */\n              0x00\n                /* \"contracts/SimpleStorage.sol\":890:913  return myfavoriteNumber */\n              dup1\n              sload\n              dup1\n              0x20\n              mul\n              0x20\n              add\n              mload(0x40)\n              swap1\n              dup2\n              add\n              0x40\n              mstore\n              dup1\n              swap3\n              swap2\n              swap1\n              dup2\n              dup2\n              mstore\n              0x20\n              add\n              dup3\n              dup1\n              sload\n              dup1\n              iszero\n              tag_37\n              jumpi\n              0x20\n              mul\n              dup3\n              add\n              swap2\n              swap1\n              0x00\n              mstore\n              keccak256(0x00, 0x20)\n              swap1\n            tag_38:\n              dup2\n              sload\n              dup2\n              mstore\n              0x20\n              add\n              swap1\n              0x01\n              add\n              swap1\n              dup1\n              dup4\n              gt\n              tag_38\n              jumpi\n            tag_37:\n              pop\n              pop\n              pop\n              pop\n              pop\n              swap1\n              pop\n                /* \"contracts/SimpleStorage.sol\":827:920  function retrieve() public view returns(uint256[] memory){... */\n              swap1\n              jump\t// out\n                /* \"contracts/SimpleStorage.sol\":428:456  Person[] public listOfPeople */\n            tag_16:\n              0x01\n              dup2\n              dup2\n              sload\n              dup2\n              lt\n              tag_39\n              jumpi\n              0x00\n              dup1\n              revert\n            tag_39:\n              swap1\n              0x00\n              mstore\n              keccak256(0x00, 0x20)\n              swap1\n              0x02\n              mul\n              add\n              0x00\n              swap2\n              pop\n              swap1\n              pop\n              dup1\n              0x00\n              add\n              sload\n              swap1\n              dup1\n              0x01\n              add\n              dup1\n              sload\n              tag_41\n              swap1\n              tag_42\n              jump\t// in\n            tag_41:\n              dup1\n              0x1f\n              add\n              0x20\n              dup1\n              swap2\n              div\n              mul\n              0x20\n              add\n              mload(0x40)\n              swap1\n              dup2\n              add\n              0x40\n              mstore\n              dup1\n              swap3\n              swap2\n              swap1\n              dup2\n              dup2\n              mstore\n              0x20\n              add\n              dup3\n              dup1\n              sload\n              tag_43\n              swap1\n              tag_42\n              jump\t// in\n            tag_43:\n              dup1\n              iszero\n              tag_44\n              jumpi\n              dup1\n              0x1f\n              lt\n              tag_45\n              jumpi\n              0x0100\n              dup1\n              dup4\n              sload\n              div\n              mul\n              dup4\n              mstore\n              swap2\n              0x20\n              add\n              swap2\n              jump(tag_44)\n            tag_45:\n              dup3\n              add\n              swap2\n              swap1\n              0x00\n              mstore\n              keccak256(0x00, 0x20)\n              swap1\n            tag_46:\n              dup2\n              sload\n              dup2\n              mstore\n              swap1\n              0x01\n              add\n              swap1\n              0x20\n              add\n              dup1\n              dup4\n              gt\n              tag_46\n              jumpi\n              dup3\n              swap1\n              sub\n              0x1f\n              and\n              dup3\n              add\n              swap2\n            tag_44:\n              pop\n              pop\n              pop\n              pop\n              pop\n              swap1\n              pop\n              dup3\n              jump\t// out\n                /* \"contracts/SimpleStorage.sol\":663:766  function store (uint _favoriteNumber) public virtual{... */\n            tag_21:\n                /* \"contracts/SimpleStorage.sol\":722:738  myfavoriteNumber */\n              0x00\n                /* \"contracts/SimpleStorage.sol\":744:759  _favoriteNumber */\n              dup2\n                /* \"contracts/SimpleStorage.sol\":722:760  myfavoriteNumber.push(_favoriteNumber) */\n              swap1\n              dup1\n              0x01\n              dup2\n              sload\n              add\n              dup1\n              dup3\n              sstore\n              dup1\n              swap2\n              pop\n              pop\n              0x01\n              swap1\n              sub\n              swap1\n              0x00\n              mstore\n              keccak256(0x00, 0x20)\n              add\n              0x00\n              swap1\n              swap2\n              swap1\n              swap2\n              swap1\n              swap2\n              pop\n              sstore\n                /* \"contracts/SimpleStorage.sol\":663:766  function store (uint _favoriteNumber) public virtual{... */\n              pop\n              jump\t// out\n                /* \"contracts/SimpleStorage.sol\":987:1182  function addPerson( string memory _name, uint256 _favoriteNumber) public {... */\n            tag_25:\n                /* \"contracts/SimpleStorage.sol\":1070:1082  listOfPeople */\n              0x01\n                /* \"contracts/SimpleStorage.sol\":1088:1118  Person(_favoriteNumber, _name) */\n              mload(0x40)\n              dup1\n              0x40\n              add\n              0x40\n              mstore\n              dup1\n                /* \"contracts/SimpleStorage.sol\":1095:1110  _favoriteNumber */\n              dup4\n                /* \"contracts/SimpleStorage.sol\":1088:1118  Person(_favoriteNumber, _name) */\n              dup2\n              mstore\n              0x20\n              add\n                /* \"contracts/SimpleStorage.sol\":1112:1117  _name */\n              dup5\n                /* \"contracts/SimpleStorage.sol\":1088:1118  Person(_favoriteNumber, _name) */\n              dup2\n              mstore\n              pop\n                /* \"contracts/SimpleStorage.sol\":1070:1119  listOfPeople.push(Person(_favoriteNumber, _name)) */\n              swap1\n              dup1\n              0x01\n              dup2\n              sload\n              add\n              dup1\n              dup3\n              sstore\n              dup1\n              swap2\n              pop\n              pop\n              0x01\n              swap1\n              sub\n              swap1\n              0x00\n              mstore\n              keccak256(0x00, 0x20)\n              swap1\n              0x02\n              mul\n              add\n              0x00\n              swap1\n              swap2\n              swap1\n              swap2\n              swap1\n              swap2\n              pop\n              0x00\n              dup3\n              add\n              mload\n              dup2\n              0x00\n              add\n              sstore\n              0x20\n              dup3\n              add\n              mload\n              dup2\n              0x01\n              add\n              swap1\n              dup2\n              tag_51\n              swap2\n              swap1\n              tag_52\n              jump\t// in\n            tag_51:\n              pop\n              pop\n              pop\n                /* \"contracts/SimpleStorage.sol\":1160:1175  _favoriteNumber */\n              dup1\n                /* \"contracts/SimpleStorage.sol\":1129:1149  nameToFavoriteNumber */\n              0x02\n                /* \"contracts/SimpleStorage.sol\":1150:1155  _name */\n              dup4\n                /* \"contracts/SimpleStorage.sol\":1129:1156  nameToFavoriteNumber[_name] */\n              mload(0x40)\n              tag_53\n              swap2\n              swap1\n              tag_54\n              jump\t// in\n            tag_53:\n              swap1\n              dup2\n              mstore\n              0x20\n              add\n              mload(0x40)\n              dup1\n              swap2\n              sub\n              swap1\n              keccak256\n                /* \"contracts/SimpleStorage.sol\":1129:1175  nameToFavoriteNumber[_name]  = _favoriteNumber */\n              dup2\n              swap1\n              sstore\n              pop\n                /* \"contracts/SimpleStorage.sol\":987:1182  function addPerson( string memory _name, uint256 _favoriteNumber) public {... */\n              pop\n              pop\n              jump\t// out\n                /* \"contracts/SimpleStorage.sol\":180:213  uint256[] public myfavoriteNumber */\n            tag_28:\n              0x00\n              dup2\n              dup2\n              sload\n              dup2\n              lt\n              tag_55\n              jumpi\n              0x00\n              dup1\n              revert\n            tag_55:\n              swap1\n              0x00\n              mstore\n              keccak256(0x00, 0x20)\n              add\n              0x00\n              swap2\n              pop\n              swap1\n              pop\n              sload\n              dup2\n              jump\t// out\n                /* \"contracts/SimpleStorage.sol\":543:597  mapping(string => uint256) public nameToFavoriteNumber */\n            tag_34:\n              0x02\n              dup2\n              dup1\n              mload\n              0x20\n              dup2\n              add\n              dup3\n              add\n              dup1\n              mload\n              dup5\n              dup3\n              mstore\n              0x20\n              dup4\n              add\n              0x20\n              dup6\n              add\n              keccak256\n              dup2\n              dup4\n              mstore\n              dup1\n              swap6\n              pop\n              pop\n              pop\n              pop\n              pop\n              pop\n              0x00\n              swap2\n              pop\n              swap1\n              pop\n              sload\n              dup2\n              jump\t// out\n                /* \"#utility.yul\":7:121   */\n            tag_57:\n                /* \"#utility.yul\":74:80   */\n              0x00\n                /* \"#utility.yul\":108:113   */\n              dup2\n                /* \"#utility.yul\":102:114   */\n              mload\n                /* \"#utility.yul\":92:114   */\n              swap1\n              pop\n                /* \"#utility.yul\":7:121   */\n              swap2\n              swap1\n              pop\n              jump\t// out\n                /* \"#utility.yul\":127:311   */\n            tag_58:\n                /* \"#utility.yul\":226:237   */\n              0x00\n                /* \"#utility.yul\":260:266   */\n              dup3\n                /* \"#utility.yul\":255:258   */\n              dup3\n                /* \"#utility.yul\":248:267   */\n              mstore\n                /* \"#utility.yul\":300:304   */\n              0x20\n                /* \"#utility.yul\":295:298   */\n              dup3\n                /* \"#utility.yul\":291:305   */\n              add\n                /* \"#utility.yul\":276:305   */\n              swap1\n              pop\n                /* \"#utility.yul\":127:311   */\n              swap3\n              swap2\n              pop\n              pop\n              jump\t// out\n                /* \"#utility.yul\":317:449   */\n            tag_59:\n                /* \"#utility.yul\":384:388   */\n              0x00\n                /* \"#utility.yul\":407:410   */\n              dup2\n                /* \"#utility.yul\":399:410   */\n              swap1\n              pop\n                /* \"#utility.yul\":437:441   */\n              0x20\n                /* \"#utility.yul\":432:435   */\n              dup3\n                /* \"#utility.yul\":428:442   */\n              add\n                /* \"#utility.yul\":420:442   */\n              swap1\n              pop\n                /* \"#utility.yul\":317:449   */\n              swap2\n              swap1\n              pop\n              jump\t// out\n                /* \"#utility.yul\":455:532   */\n            tag_60:\n                /* \"#utility.yul\":492:499   */\n              0x00\n                /* \"#utility.yul\":521:526   */\n              dup2\n                /* \"#utility.yul\":510:526   */\n              swap1\n              pop\n                /* \"#utility.yul\":455:532   */\n              swap2\n              swap1\n              pop\n              jump\t// out\n                /* \"#utility.yul\":538:646   */\n            tag_61:\n                /* \"#utility.yul\":615:639   */\n              tag_109\n                /* \"#utility.yul\":633:638   */\n              dup2\n                /* \"#utility.yul\":615:639   */\n              tag_60\n              jump\t// in\n            tag_109:\n                /* \"#utility.yul\":610:613   */\n              dup3\n                /* \"#utility.yul\":603:640   */\n              mstore\n                /* \"#utility.yul\":538:646   */\n              pop\n              pop\n              jump\t// out\n                /* \"#utility.yul\":652:831   */\n            tag_62:\n                /* \"#utility.yul\":721:731   */\n              0x00\n                /* \"#utility.yul\":742:788   */\n              tag_111\n                /* \"#utility.yul\":784:787   */\n              dup4\n                /* \"#utility.yul\":776:782   */\n              dup4\n                /* \"#utility.yul\":742:788   */\n              tag_61\n              jump\t// in\n            tag_111:\n                /* \"#utility.yul\":820:824   */\n              0x20\n                /* \"#utility.yul\":815:818   */\n              dup4\n                /* \"#utility.yul\":811:825   */\n              add\n                /* \"#utility.yul\":797:825   */\n              swap1\n              pop\n                /* \"#utility.yul\":652:831   */\n              swap3\n              swap2\n              pop\n              pop\n              jump\t// out\n                /* \"#utility.yul\":837:950   */\n            tag_63:\n                /* \"#utility.yul\":907:911   */\n              0x00\n                /* \"#utility.yul\":939:943   */\n              0x20\n                /* \"#utility.yul\":934:937   */\n              dup3\n                /* \"#utility.yul\":930:944   */\n              add\n                /* \"#utility.yul\":922:944   */\n              swap1\n              pop\n                /* \"#utility.yul\":837:950   */\n              swap2\n              swap1\n              pop\n              jump\t// out\n                /* \"#utility.yul\":986:1718   */\n            tag_64:\n                /* \"#utility.yul\":1105:1108   */\n              0x00\n                /* \"#utility.yul\":1134:1188   */\n              tag_114\n                /* \"#utility.yul\":1182:1187   */\n              dup3\n                /* \"#utility.yul\":1134:1188   */\n              tag_57\n              jump\t// in\n            tag_114:\n                /* \"#utility.yul\":1204:1290   */\n              tag_115\n                /* \"#utility.yul\":1283:1289   */\n              dup2\n                /* \"#utility.yul\":1278:1281   */\n              dup6\n                /* \"#utility.yul\":1204:1290   */\n              tag_58\n              jump\t// in\n            tag_115:\n                /* \"#utility.yul\":1197:1290   */\n              swap4\n              pop\n                /* \"#utility.yul\":1314:1370   */\n              tag_116\n                /* \"#utility.yul\":1364:1369   */\n              dup4\n                /* \"#utility.yul\":1314:1370   */\n              tag_59\n              jump\t// in\n            tag_116:\n                /* \"#utility.yul\":1393:1400   */\n              dup1\n                /* \"#utility.yul\":1424:1425   */\n              0x00\n                /* \"#utility.yul\":1409:1693   */\n            tag_117:\n                /* \"#utility.yul\":1434:1440   */\n              dup4\n                /* \"#utility.yul\":1431:1432   */\n              dup2\n                /* \"#utility.yul\":1428:1441   */\n              lt\n                /* \"#utility.yul\":1409:1693   */\n              iszero\n              tag_119\n              jumpi\n                /* \"#utility.yul\":1510:1516   */\n              dup2\n                /* \"#utility.yul\":1504:1517   */\n              mload\n                /* \"#utility.yul\":1537:1600   */\n              tag_120\n                /* \"#utility.yul\":1596:1599   */\n              dup9\n                /* \"#utility.yul\":1581:1594   */\n              dup3\n                /* \"#utility.yul\":1537:1600   */\n              tag_62\n              jump\t// in\n            tag_120:\n                /* \"#utility.yul\":1530:1600   */\n              swap8\n              pop\n                /* \"#utility.yul\":1623:1683   */\n              tag_121\n                /* \"#utility.yul\":1676:1682   */\n              dup4\n                /* \"#utility.yul\":1623:1683   */\n              tag_63\n              jump\t// in\n            tag_121:\n                /* \"#utility.yul\":1613:1683   */\n              swap3\n              pop\n                /* \"#utility.yul\":1469:1693   */\n              pop\n                /* \"#utility.yul\":1456:1457   */\n              0x01\n                /* \"#utility.yul\":1453:1454   */\n              dup2\n                /* \"#utility.yul\":1449:1458   */\n              add\n                /* \"#utility.yul\":1444:1458   */\n              swap1\n              pop\n                /* \"#utility.yul\":1409:1693   */\n              jump(tag_117)\n            tag_119:\n                /* \"#utility.yul\":1413:1427   */\n              pop\n                /* \"#utility.yul\":1709:1712   */\n              dup6\n                /* \"#utility.yul\":1702:1712   */\n              swap4\n              pop\n                /* \"#utility.yul\":1110:1718   */\n              pop\n              pop\n              pop\n                /* \"#utility.yul\":986:1718   */\n              swap3\n              swap2\n              pop\n              pop\n              jump\t// out\n                /* \"#utility.yul\":1724:2097   */\n            tag_12:\n                /* \"#utility.yul\":1867:1871   */\n              0x00\n                /* \"#utility.yul\":1905:1907   */\n              0x20\n                /* \"#utility.yul\":1894:1903   */\n              dup3\n                /* \"#utility.yul\":1890:1908   */\n              add\n                /* \"#utility.yul\":1882:1908   */\n              swap1\n              pop\n                /* \"#utility.yul\":1954:1963   */\n              dup2\n                /* \"#utility.yul\":1948:1952   */\n              dup2\n                /* \"#utility.yul\":1944:1964   */\n              sub\n                /* \"#utility.yul\":1940:1941   */\n              0x00\n                /* \"#utility.yul\":1929:1938   */\n              dup4\n                /* \"#utility.yul\":1925:1942   */\n              add\n                /* \"#utility.yul\":1918:1965   */\n              mstore\n                /* \"#utility.yul\":1982:2090   */\n              tag_123\n                /* \"#utility.yul\":2085:2089   */\n              dup2\n                /* \"#utility.yul\":2076:2082   */\n              dup5\n                /* \"#utility.yul\":1982:2090   */\n              tag_64\n              jump\t// in\n            tag_123:\n                /* \"#utility.yul\":1974:2090   */\n              swap1\n              pop\n                /* \"#utility.yul\":1724:2097   */\n              swap3\n              swap2\n              pop\n              pop\n              jump\t// out\n                /* \"#utility.yul\":2103:2178   */\n            tag_65:\n                /* \"#utility.yul\":2136:2142   */\n              0x00\n                /* \"#utility.yul\":2169:2171   */\n              0x40\n                /* \"#utility.yul\":2163:2172   */\n              mload\n                /* \"#utility.yul\":2153:2172   */\n              swap1\n              pop\n                /* \"#utility.yul\":2103:2178   */\n              swap1\n              jump\t// out\n                /* \"#utility.yul\":2184:2301   */\n            tag_66:\n                /* \"#utility.yul\":2293:2294   */\n              0x00\n                /* \"#utility.yul\":2290:2291   */\n              dup1\n                /* \"#utility.yul\":2283:2295   */\n              revert\n                /* \"#utility.yul\":2307:2424   */\n            tag_67:\n                /* \"#utility.yul\":2416:2417   */\n              0x00\n                /* \"#utility.yul\":2413:2414   */\n              dup1\n                /* \"#utility.yul\":2406:2418   */\n              revert\n                /* \"#utility.yul\":2430:2552   */\n            tag_68:\n                /* \"#utility.yul\":2503:2527   */\n              tag_128\n                /* \"#utility.yul\":2521:2526   */\n              dup2\n                /* \"#utility.yul\":2503:2527   */\n              tag_60\n              jump\t// in\n            tag_128:\n                /* \"#utility.yul\":2496:2501   */\n              dup2\n                /* \"#utility.yul\":2493:2528   */\n              eq\n                /* \"#utility.yul\":2483:2546   */\n              tag_129\n              jumpi\n                /* \"#utility.yul\":2542:2543   */\n              0x00\n                /* \"#utility.yul\":2539:2540   */\n              dup1\n                /* \"#utility.yul\":2532:2544   */\n              revert\n                /* \"#utility.yul\":2483:2546   */\n            tag_129:\n                /* \"#utility.yul\":2430:2552   */\n              pop\n              jump\t// out\n                /* \"#utility.yul\":2558:2697   */\n            tag_69:\n                /* \"#utility.yul\":2604:2609   */\n              0x00\n                /* \"#utility.yul\":2642:2648   */\n              dup2\n                /* \"#utility.yul\":2629:2649   */\n              calldataload\n                /* \"#utility.yul\":2620:2649   */\n              swap1\n              pop\n                /* \"#utility.yul\":2658:2691   */\n              tag_131\n                /* \"#utility.yul\":2685:2690   */\n              dup2\n                /* \"#utility.yul\":2658:2691   */\n              tag_68\n              jump\t// in\n            tag_131:\n                /* \"#utility.yul\":2558:2697   */\n              swap3\n              swap2\n              pop\n              pop\n              jump\t// out\n                /* \"#utility.yul\":2703:3032   */\n            tag_15:\n                /* \"#utility.yul\":2762:2768   */\n              0x00\n                /* \"#utility.yul\":2811:2813   */\n              0x20\n                /* \"#utility.yul\":2799:2808   */\n              dup3\n                /* \"#utility.yul\":2790:2797   */\n              dup5\n                /* \"#utility.yul\":2786:2809   */\n              sub\n                /* \"#utility.yul\":2782:2814   */\n              slt\n                /* \"#utility.yul\":2779:2898   */\n              iszero\n              tag_133\n              jumpi\n                /* \"#utility.yul\":2817:2896   */\n              tag_134\n              tag_66\n              jump\t// in\n            tag_134:\n                /* \"#utility.yul\":2779:2898   */\n            tag_133:\n                /* \"#utility.yul\":2937:2938   */\n              0x00\n                /* \"#utility.yul\":2962:3015   */\n              tag_135\n                /* \"#utility.yul\":3007:3014   */\n              dup5\n                /* \"#utility.yul\":2998:3004   */\n              dup3\n                /* \"#utility.yul\":2987:2996   */\n              dup6\n                /* \"#utility.yul\":2983:3005   */\n              add\n                /* \"#utility.yul\":2962:3015   */\n              tag_69\n              jump\t// in\n            tag_135:\n                /* \"#utility.yul\":2952:3015   */\n              swap2\n              pop\n                /* \"#utility.yul\":2908:3025   */\n              pop\n                /* \"#utility.yul\":2703:3032   */\n              swap3\n              swap2\n              pop\n              pop\n              jump\t// out\n                /* \"#utility.yul\":3038:3156   */\n            tag_70:\n                /* \"#utility.yul\":3125:3149   */\n              tag_137\n                /* \"#utility.yul\":3143:3148   */\n              dup2\n                /* \"#utility.yul\":3125:3149   */\n              tag_60\n              jump\t// in\n            tag_137:\n                /* \"#utility.yul\":3120:3123   */\n              dup3\n                /* \"#utility.yul\":3113:3150   */\n              mstore\n                /* \"#utility.yul\":3038:3156   */\n              pop\n              pop\n              jump\t// out\n                /* \"#utility.yul\":3162:3261   */\n            tag_71:\n                /* \"#utility.yul\":3214:3220   */\n              0x00\n                /* \"#utility.yul\":3248:3253   */\n              dup2\n                /* \"#utility.yul\":3242:3254   */\n              mload\n                /* \"#utility.yul\":3232:3254   */\n              swap1\n              pop\n                /* \"#utility.yul\":3162:3261   */\n              swap2\n              swap1\n              pop\n              jump\t// out\n                /* \"#utility.yul\":3267:3436   */\n            tag_72:\n                /* \"#utility.yul\":3351:3362   */\n              0x00\n                /* \"#utility.yul\":3385:3391   */\n              dup3\n                /* \"#utility.yul\":3380:3383   */\n              dup3\n                /* \"#utility.yul\":3373:3392   */\n              mstore\n                /* \"#utility.yul\":3425:3429   */\n              0x20\n                /* \"#utility.yul\":3420:3423   */\n              dup3\n                /* \"#utility.yul\":3416:3430   */\n              add\n                /* \"#utility.yul\":3401:3430   */\n              swap1\n              pop\n                /* \"#utility.yul\":3267:3436   */\n              swap3\n              swap2\n              pop\n              pop\n              jump\t// out\n                /* \"#utility.yul\":3442:3688   */\n            tag_73:\n                /* \"#utility.yul\":3523:3524   */\n              0x00\n                /* \"#utility.yul\":3533:3646   */\n            tag_141:\n                /* \"#utility.yul\":3547:3553   */\n              dup4\n                /* \"#utility.yul\":3544:3545   */\n              dup2\n                /* \"#utility.yul\":3541:3554   */\n              lt\n                /* \"#utility.yul\":3533:3646   */\n              iszero\n              tag_143\n              jumpi\n                /* \"#utility.yul\":3632:3633   */\n              dup1\n                /* \"#utility.yul\":3627:3630   */\n              dup3\n                /* \"#utility.yul\":3623:3634   */\n              add\n                /* \"#utility.yul\":3617:3635   */\n              mload\n                /* \"#utility.yul\":3613:3614   */\n              dup2\n                /* \"#utility.yul\":3608:3611   */\n              dup5\n                /* \"#utility.yul\":3604:3615   */\n              add\n                /* \"#utility.yul\":3597:3636   */\n              mstore\n                /* \"#utility.yul\":3569:3571   */\n              0x20\n                /* \"#utility.yul\":3566:3567   */\n              dup2\n                /* \"#utility.yul\":3562:3572   */\n              add\n                /* \"#utility.yul\":3557:3572   */\n              swap1\n              pop\n                /* \"#utility.yul\":3533:3646   */\n              jump(tag_141)\n            tag_143:\n                /* \"#utility.yul\":3680:3681   */\n              0x00\n                /* \"#utility.yul\":3671:3677   */\n              dup5\n                /* \"#utility.yul\":3666:3669   */\n              dup5\n                /* \"#utility.yul\":3662:3678   */\n              add\n                /* \"#utility.yul\":3655:3682   */\n              mstore\n                /* \"#utility.yul\":3504:3688   */\n              pop\n                /* \"#utility.yul\":3442:3688   */\n              pop\n              pop\n              pop\n              jump\t// out\n                /* \"#utility.yul\":3694:3796   */\n            tag_74:\n                /* \"#utility.yul\":3735:3741   */\n              0x00\n                /* \"#utility.yul\":3786:3788   */\n              0x1f\n                /* \"#utility.yul\":3782:3789   */\n              not\n                /* \"#utility.yul\":3777:3779   */\n              0x1f\n                /* \"#utility.yul\":3770:3775   */\n              dup4\n                /* \"#utility.yul\":3766:3780   */\n              add\n                /* \"#utility.yul\":3762:3790   */\n              and\n                /* \"#utility.yul\":3752:3790   */\n              swap1\n              pop\n                /* \"#utility.yul\":3694:3796   */\n              swap2\n              swap1\n              pop\n              jump\t// out\n                /* \"#utility.yul\":3802:4179   */\n            tag_75:\n                /* \"#utility.yul\":3890:3893   */\n              0x00\n                /* \"#utility.yul\":3918:3957   */\n              tag_146\n                /* \"#utility.yul\":3951:3956   */\n              dup3\n                /* \"#utility.yul\":3918:3957   */\n              tag_71\n              jump\t// in\n            tag_146:\n                /* \"#utility.yul\":3973:4044   */\n              tag_147\n                /* \"#utility.yul\":4037:4043   */\n              dup2\n                /* \"#utility.yul\":4032:4035   */\n              dup6\n                /* \"#utility.yul\":3973:4044   */\n              tag_72\n              jump\t// in\n            tag_147:\n                /* \"#utility.yul\":3966:4044   */\n              swap4\n              pop\n                /* \"#utility.yul\":4053:4118   */\n              tag_148\n                /* \"#utility.yul\":4111:4117   */\n              dup2\n                /* \"#utility.yul\":4106:4109   */\n              dup6\n                /* \"#utility.yul\":4099:4103   */\n              0x20\n                /* \"#utility.yul\":4092:4097   */\n              dup7\n                /* \"#utility.yul\":4088:4104   */\n              add\n                /* \"#utility.yul\":4053:4118   */\n              tag_73\n              jump\t// in\n            tag_148:\n                /* \"#utility.yul\":4143:4172   */\n              tag_149\n                /* \"#utility.yul\":4165:4171   */\n              dup2\n                /* \"#utility.yul\":4143:4172   */\n              tag_74\n              jump\t// in\n            tag_149:\n                /* \"#utility.yul\":4138:4141   */\n              dup5\n                /* \"#utility.yul\":4134:4173   */\n              add\n                /* \"#utility.yul\":4127:4173   */\n              swap2\n              pop\n                /* \"#utility.yul\":3894:4179   */\n              pop\n                /* \"#utility.yul\":3802:4179   */\n              swap3\n              swap2\n              pop\n              pop\n              jump\t// out\n                /* \"#utility.yul\":4185:4608   */\n            tag_18:\n                /* \"#utility.yul\":4326:4330   */\n              0x00\n                /* \"#utility.yul\":4364:4366   */\n              0x40\n                /* \"#utility.yul\":4353:4362   */\n              dup3\n                /* \"#utility.yul\":4349:4367   */\n              add\n                /* \"#utility.yul\":4341:4367   */\n              swap1\n              pop\n                /* \"#utility.yul\":4377:4448   */\n              tag_151\n                /* \"#utility.yul\":4445:4446   */\n              0x00\n                /* \"#utility.yul\":4434:4443   */\n              dup4\n                /* \"#utility.yul\":4430:4447   */\n              add\n                /* \"#utility.yul\":4421:4427   */\n              dup6\n                /* \"#utility.yul\":4377:4448   */\n              tag_70\n              jump\t// in\n            tag_151:\n                /* \"#utility.yul\":4495:4504   */\n              dup2\n                /* \"#utility.yul\":4489:4493   */\n              dup2\n                /* \"#utility.yul\":4485:4505   */\n              sub\n                /* \"#utility.yul\":4480:4482   */\n              0x20\n                /* \"#utility.yul\":4469:4478   */\n              dup4\n                /* \"#utility.yul\":4465:4483   */\n              add\n                /* \"#utility.yul\":4458:4506   */\n              mstore\n                /* \"#utility.yul\":4523:4601   */\n              tag_152\n                /* \"#utility.yul\":4596:4600   */\n              dup2\n                /* \"#utility.yul\":4587:4593   */\n              dup5\n                /* \"#utility.yul\":4523:4601   */\n              tag_75\n              jump\t// in\n            tag_152:\n                /* \"#utility.yul\":4515:4601   */\n              swap1\n              pop\n                /* \"#utility.yul\":4185:4608   */\n              swap4\n              swap3\n              pop\n              pop\n              pop\n              jump\t// out\n                /* \"#utility.yul\":4614:4731   */\n            tag_76:\n                /* \"#utility.yul\":4723:4724   */\n              0x00\n                /* \"#utility.yul\":4720:4721   */\n              dup1\n                /* \"#utility.yul\":4713:4725   */\n              revert\n                /* \"#utility.yul\":4737:4854   */\n            tag_77:\n                /* \"#utility.yul\":4846:4847   */\n              0x00\n                /* \"#utility.yul\":4843:4844   */\n              dup1\n                /* \"#utility.yul\":4836:4848   */\n              revert\n                /* \"#utility.yul\":4860:5040   */\n            tag_78:\n                /* \"#utility.yul\":4908:4985   */\n              0x4e487b7100000000000000000000000000000000000000000000000000000000\n                /* \"#utility.yul\":4905:4906   */\n              0x00\n                /* \"#utility.yul\":4898:4986   */\n              mstore\n                /* \"#utility.yul\":5005:5009   */\n              0x41\n                /* \"#utility.yul\":5002:5003   */\n              0x04\n                /* \"#utility.yul\":4995:5010   */\n              mstore\n                /* \"#utility.yul\":5029:5033   */\n              0x24\n                /* \"#utility.yul\":5026:5027   */\n              0x00\n                /* \"#utility.yul\":5019:5034   */\n              revert\n                /* \"#utility.yul\":5046:5327   */\n            tag_79:\n                /* \"#utility.yul\":5129:5156   */\n              tag_157\n                /* \"#utility.yul\":5151:5155   */\n              dup3\n                /* \"#utility.yul\":5129:5156   */\n              tag_74\n              jump\t// in\n            tag_157:\n                /* \"#utility.yul\":5121:5127   */\n              dup2\n                /* \"#utility.yul\":5117:5157   */\n              add\n                /* \"#utility.yul\":5259:5265   */\n              dup2\n                /* \"#utility.yul\":5247:5257   */\n              dup2\n                /* \"#utility.yul\":5244:5266   */\n              lt\n                /* \"#utility.yul\":5223:5241   */\n              0xffffffffffffffff\n                /* \"#utility.yul\":5211:5221   */\n              dup3\n                /* \"#utility.yul\":5208:5242   */\n              gt\n                /* \"#utility.yul\":5205:5267   */\n              or\n                /* \"#utility.yul\":5202:5290   */\n              iszero\n              tag_158\n              jumpi\n                /* \"#utility.yul\":5270:5288   */\n              tag_159\n              tag_78\n              jump\t// in\n            tag_159:\n                /* \"#utility.yul\":5202:5290   */\n            tag_158:\n                /* \"#utility.yul\":5310:5320   */\n              dup1\n                /* \"#utility.yul\":5306:5308   */\n              0x40\n                /* \"#utility.yul\":5299:5321   */\n              mstore\n                /* \"#utility.yul\":5089:5327   */\n              pop\n                /* \"#utility.yul\":5046:5327   */\n              pop\n              pop\n              jump\t// out\n                /* \"#utility.yul\":5333:5462   */\n            tag_80:\n                /* \"#utility.yul\":5367:5373   */\n              0x00\n                /* \"#utility.yul\":5394:5414   */\n              tag_161\n              tag_65\n              jump\t// in\n            tag_161:\n                /* \"#utility.yul\":5384:5414   */\n              swap1\n              pop\n                /* \"#utility.yul\":5423:5456   */\n              tag_162\n                /* \"#utility.yul\":5451:5455   */\n              dup3\n                /* \"#utility.yul\":5443:5449   */\n              dup3\n                /* \"#utility.yul\":5423:5456   */\n              tag_79\n              jump\t// in\n            tag_162:\n                /* \"#utility.yul\":5333:5462   */\n              swap2\n              swap1\n              pop\n              jump\t// out\n                /* \"#utility.yul\":5468:5776   */\n            tag_81:\n                /* \"#utility.yul\":5530:5534   */\n              0x00\n                /* \"#utility.yul\":5620:5638   */\n              0xffffffffffffffff\n                /* \"#utility.yul\":5612:5618   */\n              dup3\n                /* \"#utility.yul\":5609:5639   */\n              gt\n                /* \"#utility.yul\":5606:5662   */\n              iszero\n              tag_164\n              jumpi\n                /* \"#utility.yul\":5642:5660   */\n              tag_165\n              tag_78\n              jump\t// in\n            tag_165:\n                /* \"#utility.yul\":5606:5662   */\n            tag_164:\n                /* \"#utility.yul\":5680:5709   */\n              tag_166\n                /* \"#utility.yul\":5702:5708   */\n              dup3\n                /* \"#utility.yul\":5680:5709   */\n              tag_74\n              jump\t// in\n            tag_166:\n                /* \"#utility.yul\":5672:5709   */\n              swap1\n              pop\n                /* \"#utility.yul\":5764:5768   */\n              0x20\n                /* \"#utility.yul\":5758:5762   */\n              dup2\n                /* \"#utility.yul\":5754:5769   */\n              add\n                /* \"#utility.yul\":5746:5769   */\n              swap1\n              pop\n                /* \"#utility.yul\":5468:5776   */\n              swap2\n              swap1\n              pop\n              jump\t// out\n                /* \"#utility.yul\":5782:5928   */\n            tag_82:\n                /* \"#utility.yul\":5879:5885   */\n              dup3\n                /* \"#utility.yul\":5874:5877   */\n              dup2\n                /* \"#utility.yul\":5869:5872   */\n              dup4\n                /* \"#utility.yul\":5856:5886   */\n              calldatacopy\n                /* \"#utility.yul\":5920:5921   */\n              0x00\n                /* \"#utility.yul\":5911:5917   */\n              dup4\n                /* \"#utility.yul\":5906:5909   */\n              dup4\n                /* \"#utility.yul\":5902:5918   */\n              add\n                /* \"#utility.yul\":5895:5922   */\n              mstore\n                /* \"#utility.yul\":5782:5928   */\n              pop\n              pop\n              pop\n              jump\t// out\n                /* \"#utility.yul\":5934:6359   */\n            tag_83:\n                /* \"#utility.yul\":6012:6017   */\n              0x00\n                /* \"#utility.yul\":6037:6103   */\n              tag_169\n                /* \"#utility.yul\":6053:6102   */\n              tag_170\n                /* \"#utility.yul\":6095:6101   */\n              dup5\n                /* \"#utility.yul\":6053:6102   */\n              tag_81\n              jump\t// in\n            tag_170:\n                /* \"#utility.yul\":6037:6103   */\n              tag_80\n              jump\t// in\n            tag_169:\n                /* \"#utility.yul\":6028:6103   */\n              swap1\n              pop\n                /* \"#utility.yul\":6126:6132   */\n              dup3\n                /* \"#utility.yul\":6119:6124   */\n              dup2\n                /* \"#utility.yul\":6112:6133   */\n              mstore\n                /* \"#utility.yul\":6164:6168   */\n              0x20\n                /* \"#utility.yul\":6157:6162   */\n              dup2\n                /* \"#utility.yul\":6153:6169   */\n              add\n                /* \"#utility.yul\":6202:6205   */\n              dup5\n                /* \"#utility.yul\":6193:6199   */\n              dup5\n                /* \"#utility.yul\":6188:6191   */\n              dup5\n                /* \"#utility.yul\":6184:6200   */\n              add\n                /* \"#utility.yul\":6181:6206   */\n              gt\n                /* \"#utility.yul\":6178:6290   */\n              iszero\n              tag_171\n              jumpi\n                /* \"#utility.yul\":6209:6288   */\n              tag_172\n              tag_77\n              jump\t// in\n            tag_172:\n                /* \"#utility.yul\":6178:6290   */\n            tag_171:\n                /* \"#utility.yul\":6299:6353   */\n              tag_173\n                /* \"#utility.yul\":6346:6352   */\n              dup5\n                /* \"#utility.yul\":6341:6344   */\n              dup3\n                /* \"#utility.yul\":6336:6339   */\n              dup6\n                /* \"#utility.yul\":6299:6353   */\n              tag_82\n              jump\t// in\n            tag_173:\n                /* \"#utility.yul\":6018:6359   */\n              pop\n                /* \"#utility.yul\":5934:6359   */\n              swap4\n              swap3\n              pop\n              pop\n              pop\n              jump\t// out\n                /* \"#utility.yul\":6379:6719   */\n            tag_84:\n                /* \"#utility.yul\":6435:6440   */\n              0x00\n                /* \"#utility.yul\":6484:6487   */\n              dup3\n                /* \"#utility.yul\":6477:6481   */\n              0x1f\n                /* \"#utility.yul\":6469:6475   */\n              dup4\n                /* \"#utility.yul\":6465:6482   */\n              add\n                /* \"#utility.yul\":6461:6488   */\n              slt\n                /* \"#utility.yul\":6451:6573   */\n              tag_175\n              jumpi\n                /* \"#utility.yul\":6492:6571   */\n              tag_176\n              tag_76\n              jump\t// in\n            tag_176:\n                /* \"#utility.yul\":6451:6573   */\n            tag_175:\n                /* \"#utility.yul\":6609:6615   */\n              dup2\n                /* \"#utility.yul\":6596:6616   */\n              calldataload\n                /* \"#utility.yul\":6634:6713   */\n              tag_177\n                /* \"#utility.yul\":6709:6712   */\n              dup5\n                /* \"#utility.yul\":6701:6707   */\n              dup3\n                /* \"#utility.yul\":6694:6698   */\n              0x20\n                /* \"#utility.yul\":6686:6692   */\n              dup7\n                /* \"#utility.yul\":6682:6699   */\n              add\n                /* \"#utility.yul\":6634:6713   */\n              tag_83\n              jump\t// in\n            tag_177:\n                /* \"#utility.yul\":6625:6713   */\n              swap2\n              pop\n                /* \"#utility.yul\":6441:6719   */\n              pop\n                /* \"#utility.yul\":6379:6719   */\n              swap3\n              swap2\n              pop\n              pop\n              jump\t// out\n                /* \"#utility.yul\":6725:7379   */\n            tag_24:\n                /* \"#utility.yul\":6803:6809   */\n              0x00\n                /* \"#utility.yul\":6811:6817   */\n              dup1\n                /* \"#utility.yul\":6860:6862   */\n              0x40\n                /* \"#utility.yul\":6848:6857   */\n              dup4\n                /* \"#utility.yul\":6839:6846   */\n              dup6\n                /* \"#utility.yul\":6835:6858   */\n              sub\n                /* \"#utility.yul\":6831:6863   */\n              slt\n                /* \"#utility.yul\":6828:6947   */\n              iszero\n              tag_179\n              jumpi\n                /* \"#utility.yul\":6866:6945   */\n              tag_180\n              tag_66\n              jump\t// in\n            tag_180:\n                /* \"#utility.yul\":6828:6947   */\n            tag_179:\n                /* \"#utility.yul\":7014:7015   */\n              0x00\n                /* \"#utility.yul\":7003:7012   */\n              dup4\n                /* \"#utility.yul\":6999:7016   */\n              add\n                /* \"#utility.yul\":6986:7017   */\n              calldataload\n                /* \"#utility.yul\":7044:7062   */\n              0xffffffffffffffff\n                /* \"#utility.yul\":7036:7042   */\n              dup2\n                /* \"#utility.yul\":7033:7063   */\n              gt\n                /* \"#utility.yul\":7030:7147   */\n              iszero\n              tag_181\n              jumpi\n                /* \"#utility.yul\":7066:7145   */\n              tag_182\n              tag_67\n              jump\t// in\n            tag_182:\n                /* \"#utility.yul\":7030:7147   */\n            tag_181:\n                /* \"#utility.yul\":7171:7234   */\n              tag_183\n                /* \"#utility.yul\":7226:7233   */\n              dup6\n                /* \"#utility.yul\":7217:7223   */\n              dup3\n                /* \"#utility.yul\":7206:7215   */\n              dup7\n                /* \"#utility.yul\":7202:7224   */\n              add\n                /* \"#utility.yul\":7171:7234   */\n              tag_84\n              jump\t// in\n            tag_183:\n                /* \"#utility.yul\":7161:7234   */\n              swap3\n              pop\n                /* \"#utility.yul\":6957:7244   */\n              pop\n                /* \"#utility.yul\":7283:7285   */\n              0x20\n                /* \"#utility.yul\":7309:7362   */\n              tag_184\n                /* \"#utility.yul\":7354:7361   */\n              dup6\n                /* \"#utility.yul\":7345:7351   */\n              dup3\n                /* \"#utility.yul\":7334:7343   */\n              dup7\n                /* \"#utility.yul\":7330:7352   */\n              add\n                /* \"#utility.yul\":7309:7362   */\n              tag_69\n              jump\t// in\n            tag_184:\n                /* \"#utility.yul\":7299:7362   */\n              swap2\n              pop\n                /* \"#utility.yul\":7254:7372   */\n              pop\n                /* \"#utility.yul\":6725:7379   */\n              swap3\n              pop\n              swap3\n              swap1\n              pop\n              jump\t// out\n                /* \"#utility.yul\":7385:7607   */\n            tag_30:\n                /* \"#utility.yul\":7478:7482   */\n              0x00\n                /* \"#utility.yul\":7516:7518   */\n              0x20\n                /* \"#utility.yul\":7505:7514   */\n              dup3\n                /* \"#utility.yul\":7501:7519   */\n              add\n                /* \"#utility.yul\":7493:7519   */\n              swap1\n              pop\n                /* \"#utility.yul\":7529:7600   */\n              tag_186\n                /* \"#utility.yul\":7597:7598   */\n              0x00\n                /* \"#utility.yul\":7586:7595   */\n              dup4\n                /* \"#utility.yul\":7582:7599   */\n              add\n                /* \"#utility.yul\":7573:7579   */\n              dup5\n                /* \"#utility.yul\":7529:7600   */\n              tag_70\n              jump\t// in\n            tag_186:\n                /* \"#utility.yul\":7385:7607   */\n              swap3\n              swap2\n              pop\n              pop\n              jump\t// out\n                /* \"#utility.yul\":7613:8122   */\n            tag_33:\n                /* \"#utility.yul\":7682:7688   */\n              0x00\n                /* \"#utility.yul\":7731:7733   */\n              0x20\n                /* \"#utility.yul\":7719:7728   */\n              dup3\n                /* \"#utility.yul\":7710:7717   */\n              dup5\n                /* \"#utility.yul\":7706:7729   */\n              sub\n                /* \"#utility.yul\":7702:7734   */\n              slt\n                /* \"#utility.yul\":7699:7818   */\n              iszero\n              tag_188\n              jumpi\n                /* \"#utility.yul\":7737:7816   */\n              tag_189\n              tag_66\n              jump\t// in\n            tag_189:\n                /* \"#utility.yul\":7699:7818   */\n            tag_188:\n                /* \"#utility.yul\":7885:7886   */\n              0x00\n                /* \"#utility.yul\":7874:7883   */\n              dup3\n                /* \"#utility.yul\":7870:7887   */\n              add\n                /* \"#utility.yul\":7857:7888   */\n              calldataload\n                /* \"#utility.yul\":7915:7933   */\n              0xffffffffffffffff\n                /* \"#utility.yul\":7907:7913   */\n              dup2\n                /* \"#utility.yul\":7904:7934   */\n              gt\n                /* \"#utility.yul\":7901:8018   */\n              iszero\n              tag_190\n              jumpi\n                /* \"#utility.yul\":7937:8016   */\n              tag_191\n              tag_67\n              jump\t// in\n            tag_191:\n                /* \"#utility.yul\":7901:8018   */\n            tag_190:\n                /* \"#utility.yul\":8042:8105   */\n              tag_192\n                /* \"#utility.yul\":8097:8104   */\n              dup5\n                /* \"#utility.yul\":8088:8094   */\n              dup3\n                /* \"#utility.yul\":8077:8086   */\n              dup6\n                /* \"#utility.yul\":8073:8095   */\n              add\n                /* \"#utility.yul\":8042:8105   */\n              tag_84\n              jump\t// in\n            tag_192:\n                /* \"#utility.yul\":8032:8105   */\n              swap2\n              pop\n                /* \"#utility.yul\":7828:8115   */\n              pop\n                /* \"#utility.yul\":7613:8122   */\n              swap3\n              swap2\n              pop\n              pop\n              jump\t// out\n                /* \"#utility.yul\":8128:8308   */\n            tag_85:\n                /* \"#utility.yul\":8176:8253   */\n              0x4e487b7100000000000000000000000000000000000000000000000000000000\n                /* \"#utility.yul\":8173:8174   */\n              0x00\n                /* \"#utility.yul\":8166:8254   */\n              mstore\n                /* \"#utility.yul\":8273:8277   */\n              0x22\n                /* \"#utility.yul\":8270:8271   */\n              0x04\n                /* \"#utility.yul\":8263:8278   */\n              mstore\n                /* \"#utility.yul\":8297:8301   */\n              0x24\n                /* \"#utility.yul\":8294:8295   */\n              0x00\n                /* \"#utility.yul\":8287:8302   */\n              revert\n                /* \"#utility.yul\":8314:8634   */\n            tag_42:\n                /* \"#utility.yul\":8358:8364   */\n              0x00\n                /* \"#utility.yul\":8395:8396   */\n              0x02\n                /* \"#utility.yul\":8389:8393   */\n              dup3\n                /* \"#utility.yul\":8385:8397   */\n              div\n                /* \"#utility.yul\":8375:8397   */\n              swap1\n              pop\n                /* \"#utility.yul\":8442:8443   */\n              0x01\n                /* \"#utility.yul\":8436:8440   */\n              dup3\n                /* \"#utility.yul\":8432:8444   */\n              and\n                /* \"#utility.yul\":8463:8481   */\n              dup1\n                /* \"#utility.yul\":8453:8534   */\n              tag_195\n              jumpi\n                /* \"#utility.yul\":8519:8523   */\n              0x7f\n                /* \"#utility.yul\":8511:8517   */\n              dup3\n                /* \"#utility.yul\":8507:8524   */\n              and\n                /* \"#utility.yul\":8497:8524   */\n              swap2\n              pop\n                /* \"#utility.yul\":8453:8534   */\n            tag_195:\n                /* \"#utility.yul\":8581:8583   */\n              0x20\n                /* \"#utility.yul\":8573:8579   */\n              dup3\n                /* \"#utility.yul\":8570:8584   */\n              lt\n                /* \"#utility.yul\":8550:8568   */\n              dup2\n                /* \"#utility.yul\":8547:8585   */\n              sub\n                /* \"#utility.yul\":8544:8628   */\n              tag_196\n              jumpi\n                /* \"#utility.yul\":8600:8618   */\n              tag_197\n              tag_85\n              jump\t// in\n            tag_197:\n                /* \"#utility.yul\":8544:8628   */\n            tag_196:\n                /* \"#utility.yul\":8365:8634   */\n              pop\n                /* \"#utility.yul\":8314:8634   */\n              swap2\n              swap1\n              pop\n              jump\t// out\n                /* \"#utility.yul\":8640:8781   */\n            tag_86:\n                /* \"#utility.yul\":8689:8693   */\n              0x00\n                /* \"#utility.yul\":8712:8715   */\n              dup2\n                /* \"#utility.yul\":8704:8715   */\n              swap1\n              pop\n                /* \"#utility.yul\":8735:8738   */\n              dup2\n                /* \"#utility.yul\":8732:8733   */\n              0x00\n                /* \"#utility.yul\":8725:8739   */\n              mstore\n                /* \"#utility.yul\":8769:8773   */\n              0x20\n                /* \"#utility.yul\":8766:8767   */\n              0x00\n                /* \"#utility.yul\":8756:8774   */\n              keccak256\n                /* \"#utility.yul\":8748:8774   */\n              swap1\n              pop\n                /* \"#utility.yul\":8640:8781   */\n              swap2\n              swap1\n              pop\n              jump\t// out\n                /* \"#utility.yul\":8787:8880   */\n            tag_87:\n                /* \"#utility.yul\":8824:8830   */\n              0x00\n                /* \"#utility.yul\":8871:8873   */\n              0x20\n                /* \"#utility.yul\":8866:8868   */\n              0x1f\n                /* \"#utility.yul\":8859:8864   */\n              dup4\n                /* \"#utility.yul\":8855:8869   */\n              add\n                /* \"#utility.yul\":8851:8874   */\n              div\n                /* \"#utility.yul\":8841:8874   */\n              swap1\n              pop\n                /* \"#utility.yul\":8787:8880   */\n              swap2\n              swap1\n              pop\n              jump\t// out\n                /* \"#utility.yul\":8886:8993   */\n            tag_88:\n                /* \"#utility.yul\":8930:8938   */\n              0x00\n                /* \"#utility.yul\":8980:8985   */\n              dup3\n                /* \"#utility.yul\":8974:8978   */\n              dup3\n                /* \"#utility.yul\":8970:8986   */\n              shl\n                /* \"#utility.yul\":8949:8986   */\n              swap1\n              pop\n                /* \"#utility.yul\":8886:8993   */\n              swap3\n              swap2\n              pop\n              pop\n              jump\t// out\n                /* \"#utility.yul\":8999:9392   */\n            tag_89:\n                /* \"#utility.yul\":9068:9074   */\n              0x00\n                /* \"#utility.yul\":9118:9119   */\n              0x08\n                /* \"#utility.yul\":9106:9116   */\n              dup4\n                /* \"#utility.yul\":9102:9120   */\n              mul\n                /* \"#utility.yul\":9141:9238   */\n              tag_202\n                /* \"#utility.yul\":9171:9237   */\n              0xffffffffffffffffffffffffffffffffffffffffffffffffffffffffffffffff\n                /* \"#utility.yul\":9160:9169   */\n              dup3\n                /* \"#utility.yul\":9141:9238   */\n              tag_88\n              jump\t// in\n            tag_202:\n                /* \"#utility.yul\":9259:9298   */\n              tag_203\n                /* \"#utility.yul\":9289:9297   */\n              dup7\n                /* \"#utility.yul\":9278:9287   */\n              dup4\n                /* \"#utility.yul\":9259:9298   */\n              tag_88\n              jump\t// in\n            tag_203:\n                /* \"#utility.yul\":9247:9298   */\n              swap6\n              pop\n                /* \"#utility.yul\":9331:9335   */\n              dup1\n                /* \"#utility.yul\":9327:9336   */\n              not\n                /* \"#utility.yul\":9320:9325   */\n              dup5\n                /* \"#utility.yul\":9316:9337   */\n              and\n                /* \"#utility.yul\":9307:9337   */\n              swap4\n              pop\n                /* \"#utility.yul\":9380:9384   */\n              dup1\n                /* \"#utility.yul\":9370:9378   */\n              dup7\n                /* \"#utility.yul\":9366:9385   */\n              and\n                /* \"#utility.yul\":9359:9364   */\n              dup5\n                /* \"#utility.yul\":9356:9386   */\n              or\n                /* \"#utility.yul\":9346:9386   */\n              swap3\n              pop\n                /* \"#utility.yul\":9075:9392   */\n              pop\n              pop\n                /* \"#utility.yul\":8999:9392   */\n              swap4\n              swap3\n              pop\n              pop\n              pop\n              jump\t// out\n                /* \"#utility.yul\":9398:9458   */\n            tag_90:\n                /* \"#utility.yul\":9426:9429   */\n              0x00\n                /* \"#utility.yul\":9447:9452   */\n              dup2\n                /* \"#utility.yul\":9440:9452   */\n              swap1\n              pop\n                /* \"#utility.yul\":9398:9458   */\n              swap2\n              swap1\n              pop\n              jump\t// out\n                /* \"#utility.yul\":9464:9606   */\n            tag_91:\n                /* \"#utility.yul\":9514:9523   */\n              0x00\n                /* \"#utility.yul\":9547:9600   */\n              tag_206\n                /* \"#utility.yul\":9565:9599   */\n              tag_207\n                /* \"#utility.yul\":9574:9598   */\n              tag_208\n                /* \"#utility.yul\":9592:9597   */\n              dup5\n                /* \"#utility.yul\":9574:9598   */\n              tag_60\n              jump\t// in\n            tag_208:\n                /* \"#utility.yul\":9565:9599   */\n              tag_90\n              jump\t// in\n            tag_207:\n                /* \"#utility.yul\":9547:9600   */\n              tag_60\n              jump\t// in\n            tag_206:\n                /* \"#utility.yul\":9534:9600   */\n              swap1\n              pop\n                /* \"#utility.yul\":9464:9606   */\n              swap2\n              swap1\n              pop\n              jump\t// out\n                /* \"#utility.yul\":9612:9687   */\n            tag_92:\n                /* \"#utility.yul\":9655:9658   */\n              0x00\n                /* \"#utility.yul\":9676:9681   */\n              dup2\n                /* \"#utility.yul\":9669:9681   */\n              swap1\n              pop\n                /* \"#utility.yul\":9612:9687   */\n              swap2\n              swap1\n              pop\n              jump\t// out\n                /* \"#utility.yul\":9693:9962   */\n            tag_93:\n                /* \"#utility.yul\":9803:9842   */\n              tag_211\n                /* \"#utility.yul\":9834:9841   */\n              dup4\n                /* \"#utility.yul\":9803:9842   */\n              tag_91\n              jump\t// in\n            tag_211:\n                /* \"#utility.yul\":9864:9955   */\n              tag_212\n                /* \"#utility.yul\":9913:9954   */\n              tag_213\n                /* \"#utility.yul\":9937:9953   */\n              dup3\n                /* \"#utility.yul\":9913:9954   */\n              tag_92\n              jump\t// in\n            tag_213:\n                /* \"#utility.yul\":9905:9911   */\n              dup5\n                /* \"#utility.yul\":9898:9902   */\n              dup5\n                /* \"#utility.yul\":9892:9903   */\n              sload\n                /* \"#utility.yul\":9864:9955   */\n              tag_89\n              jump\t// in\n            tag_212:\n                /* \"#utility.yul\":9858:9862   */\n              dup3\n                /* \"#utility.yul\":9851:9956   */\n              sstore\n                /* \"#utility.yul\":9769:9962   */\n              pop\n                /* \"#utility.yul\":9693:9962   */\n              pop\n              pop\n              pop\n              jump\t// out\n                /* \"#utility.yul\":9968:10041   */\n            tag_94:\n                /* \"#utility.yul\":10013:10016   */\n              0x00\n                /* \"#utility.yul\":9968:10041   */\n              swap1\n              jump\t// out\n                /* \"#utility.yul\":10047:10236   */\n            tag_95:\n                /* \"#utility.yul\":10124:10156   */\n              tag_216\n              tag_94\n              jump\t// in\n            tag_216:\n                /* \"#utility.yul\":10165:10230   */\n              tag_217\n                /* \"#utility.yul\":10223:10229   */\n              dup2\n                /* \"#utility.yul\":10215:10221   */\n              dup5\n                /* \"#utility.yul\":10209:10213   */\n              dup5\n                /* \"#utility.yul\":10165:10230   */\n              tag_93\n              jump\t// in\n            tag_217:\n                /* \"#utility.yul\":10100:10236   */\n              pop\n                /* \"#utility.yul\":10047:10236   */\n              pop\n              pop\n              jump\t// out\n                /* \"#utility.yul\":10242:10428   */\n            tag_96:\n                /* \"#utility.yul\":10302:10422   */\n            tag_219:\n                /* \"#utility.yul\":10319:10322   */\n              dup2\n                /* \"#utility.yul\":10312:10317   */\n              dup2\n                /* \"#utility.yul\":10309:10323   */\n              lt\n                /* \"#utility.yul\":10302:10422   */\n              iszero\n              tag_221\n              jumpi\n                /* \"#utility.yul\":10373:10412   */\n              tag_222\n                /* \"#utility.yul\":10410:10411   */\n              0x00\n                /* \"#utility.yul\":10403:10408   */\n              dup3\n                /* \"#utility.yul\":10373:10412   */\n              tag_95\n              jump\t// in\n            tag_222:\n                /* \"#utility.yul\":10346:10347   */\n              0x01\n                /* \"#utility.yul\":10339:10344   */\n              dup2\n                /* \"#utility.yul\":10335:10348   */\n              add\n                /* \"#utility.yul\":10326:10348   */\n              swap1\n              pop\n                /* \"#utility.yul\":10302:10422   */\n              jump(tag_219)\n            tag_221:\n                /* \"#utility.yul\":10242:10428   */\n              pop\n              pop\n              jump\t// out\n                /* \"#utility.yul\":10434:10977   */\n            tag_97:\n                /* \"#utility.yul\":10535:10537   */\n              0x1f\n                /* \"#utility.yul\":10530:10533   */\n              dup3\n                /* \"#utility.yul\":10527:10538   */\n              gt\n                /* \"#utility.yul\":10524:10970   */\n              iszero\n              tag_224\n              jumpi\n                /* \"#utility.yul\":10569:10607   */\n              tag_225\n                /* \"#utility.yul\":10601:10606   */\n              dup2\n                /* \"#utility.yul\":10569:10607   */\n              tag_86\n              jump\t// in\n            tag_225:\n                /* \"#utility.yul\":10653:10682   */\n              tag_226\n                /* \"#utility.yul\":10671:10681   */\n              dup5\n                /* \"#utility.yul\":10653:10682   */\n              tag_87\n              jump\t// in\n            tag_226:\n                /* \"#utility.yul\":10643:10651   */\n              dup2\n                /* \"#utility.yul\":10639:10683   */\n              add\n                /* \"#utility.yul\":10836:10838   */\n              0x20\n                /* \"#utility.yul\":10824:10834   */\n              dup6\n                /* \"#utility.yul\":10821:10839   */\n              lt\n                /* \"#utility.yul\":10818:10867   */\n              iszero\n              tag_227\n              jumpi\n                /* \"#utility.yul\":10857:10865   */\n              dup2\n                /* \"#utility.yul\":10842:10865   */\n              swap1\n              pop\n                /* \"#utility.yul\":10818:10867   */\n            tag_227:\n                /* \"#utility.yul\":10880:10960   */\n              tag_228\n                /* \"#utility.yul\":10936:10958   */\n              tag_229\n                /* \"#utility.yul\":10954:10957   */\n              dup6\n                /* \"#utility.yul\":10936:10958   */\n              tag_87\n              jump\t// in\n            tag_229:\n                /* \"#utility.yul\":10926:10934   */\n              dup4\n                /* \"#utility.yul\":10922:10959   */\n              add\n                /* \"#utility.yul\":10909:10920   */\n              dup3\n                /* \"#utility.yul\":10880:10960   */\n              tag_96\n              jump\t// in\n            tag_228:\n                /* \"#utility.yul\":10539:10970   */\n              pop\n              pop\n                /* \"#utility.yul\":10524:10970   */\n            tag_224:\n                /* \"#utility.yul\":10434:10977   */\n              pop\n              pop\n              pop\n              jump\t// out\n                /* \"#utility.yul\":10983:11100   */\n            tag_98:\n                /* \"#utility.yul\":11037:11045   */\n              0x00\n                /* \"#utility.yul\":11087:11092   */\n              dup3\n                /* \"#utility.yul\":11081:11085   */\n              dup3\n                /* \"#utility.yul\":11077:11093   */\n              shr\n                /* \"#utility.yul\":11056:11093   */\n              swap1\n              pop\n                /* \"#utility.yul\":10983:11100   */\n              swap3\n              swap2\n              pop\n              pop\n              jump\t// out\n                /* \"#utility.yul\":11106:11275   */\n            tag_99:\n                /* \"#utility.yul\":11150:11156   */\n              0x00\n                /* \"#utility.yul\":11183:11234   */\n              tag_232\n                /* \"#utility.yul\":11231:11232   */\n              0x00\n                /* \"#utility.yul\":11227:11233   */\n              not\n                /* \"#utility.yul\":11219:11224   */\n              dup5\n                /* \"#utility.yul\":11216:11217   */\n              0x08\n                /* \"#utility.yul\":11212:11225   */\n              mul\n                /* \"#utility.yul\":11183:11234   */\n              tag_98\n              jump\t// in\n            tag_232:\n                /* \"#utility.yul\":11179:11235   */\n              not\n                /* \"#utility.yul\":11264:11268   */\n              dup1\n                /* \"#utility.yul\":11258:11262   */\n              dup4\n                /* \"#utility.yul\":11254:11269   */\n              and\n                /* \"#utility.yul\":11244:11269   */\n              swap2\n              pop\n                /* \"#utility.yul\":11157:11275   */\n              pop\n                /* \"#utility.yul\":11106:11275   */\n              swap3\n              swap2\n              pop\n              pop\n              jump\t// out\n                /* \"#utility.yul\":11280:11575   */\n            tag_100:\n                /* \"#utility.yul\":11356:11360   */\n              0x00\n                /* \"#utility.yul\":11502:11531   */\n              tag_234\n                /* \"#utility.yul\":11527:11530   */\n              dup4\n                /* \"#utility.yul\":11521:11525   */\n              dup4\n                /* \"#utility.yul\":11502:11531   */\n              tag_99\n              jump\t// in\n            tag_234:\n                /* \"#utility.yul\":11494:11531   */\n              swap2\n              pop\n                /* \"#utility.yul\":11564:11567   */\n              dup3\n                /* \"#utility.yul\":11561:11562   */\n              0x02\n                /* \"#utility.yul\":11557:11568   */\n              mul\n                /* \"#utility.yul\":11551:11555   */\n              dup3\n                /* \"#utility.yul\":11548:11569   */\n              or\n                /* \"#utility.yul\":11540:11569   */\n              swap1\n              pop\n                /* \"#utility.yul\":11280:11575   */\n              swap3\n              swap2\n              pop\n              pop\n              jump\t// out\n                /* \"#utility.yul\":11580:12975   */\n            tag_52:\n                /* \"#utility.yul\":11697:11734   */\n              tag_236\n                /* \"#utility.yul\":11730:11733   */\n              dup3\n                /* \"#utility.yul\":11697:11734   */\n              tag_71\n              jump\t// in\n            tag_236:\n                /* \"#utility.yul\":11799:11817   */\n              0xffffffffffffffff\n                /* \"#utility.yul\":11791:11797   */\n              dup2\n                /* \"#utility.yul\":11788:11818   */\n              gt\n                /* \"#utility.yul\":11785:11841   */\n              iszero\n              tag_237\n              jumpi\n                /* \"#utility.yul\":11821:11839   */\n              tag_238\n              tag_78\n              jump\t// in\n            tag_238:\n                /* \"#utility.yul\":11785:11841   */\n            tag_237:\n                /* \"#utility.yul\":11865:11903   */\n              tag_239\n                /* \"#utility.yul\":11897:11901   */\n              dup3\n                /* \"#utility.yul\":11891:11902   */\n              sload\n                /* \"#utility.yul\":11865:11903   */\n              tag_42\n              jump\t// in\n            tag_239:\n                /* \"#utility.yul\":11950:12017   */\n              tag_240\n                /* \"#utility.yul\":12010:12016   */\n              dup3\n                /* \"#utility.yul\":12002:12008   */\n              dup3\n                /* \"#utility.yul\":11996:12000   */\n              dup6\n                /* \"#utility.yul\":11950:12017   */\n              tag_97\n              jump\t// in\n            tag_240:\n                /* \"#utility.yul\":12044:12045   */\n              0x00\n                /* \"#utility.yul\":12068:12072   */\n              0x20\n                /* \"#utility.yul\":12055:12072   */\n              swap1\n              pop\n                /* \"#utility.yul\":12100:12102   */\n              0x1f\n                /* \"#utility.yul\":12092:12098   */\n              dup4\n                /* \"#utility.yul\":12089:12103   */\n              gt\n                /* \"#utility.yul\":12117:12118   */\n              0x01\n                /* \"#utility.yul\":12112:12730   */\n              dup2\n              eq\n              tag_242\n              jumpi\n                /* \"#utility.yul\":12774:12775   */\n              0x00\n                /* \"#utility.yul\":12791:12797   */\n              dup5\n                /* \"#utility.yul\":12788:12865   */\n              iszero\n              tag_243\n              jumpi\n                /* \"#utility.yul\":12840:12849   */\n              dup3\n                /* \"#utility.yul\":12835:12838   */\n              dup8\n                /* \"#utility.yul\":12831:12850   */\n              add\n                /* \"#utility.yul\":12825:12851   */\n              mload\n                /* \"#utility.yul\":12816:12851   */\n              swap1\n              pop\n                /* \"#utility.yul\":12788:12865   */\n            tag_243:\n                /* \"#utility.yul\":12891:12958   */\n              tag_244\n                /* \"#utility.yul\":12951:12957   */\n              dup6\n                /* \"#utility.yul\":12944:12949   */\n              dup3\n                /* \"#utility.yul\":12891:12958   */\n              tag_100\n              jump\t// in\n            tag_244:\n                /* \"#utility.yul\":12885:12889   */\n              dup7\n                /* \"#utility.yul\":12878:12959   */\n              sstore\n                /* \"#utility.yul\":12747:12969   */\n              pop\n                /* \"#utility.yul\":12082:12969   */\n              jump(tag_241)\n                /* \"#utility.yul\":12112:12730   */\n            tag_242:\n                /* \"#utility.yul\":12164:12168   */\n              0x1f\n                /* \"#utility.yul\":12160:12169   */\n              not\n                /* \"#utility.yul\":12152:12158   */\n              dup5\n                /* \"#utility.yul\":12148:12170   */\n              and\n                /* \"#utility.yul\":12198:12235   */\n              tag_245\n                /* \"#utility.yul\":12230:12234   */\n              dup7\n                /* \"#utility.yul\":12198:12235   */\n              tag_86\n              jump\t// in\n            tag_245:\n                /* \"#utility.yul\":12257:12258   */\n              0x00\n                /* \"#utility.yul\":12271:12479   */\n            tag_246:\n                /* \"#utility.yul\":12285:12292   */\n              dup3\n                /* \"#utility.yul\":12282:12283   */\n              dup2\n                /* \"#utility.yul\":12279:12293   */\n              lt\n                /* \"#utility.yul\":12271:12479   */\n              iszero\n              tag_248\n              jumpi\n                /* \"#utility.yul\":12364:12373   */\n              dup5\n                /* \"#utility.yul\":12359:12362   */\n              dup10\n                /* \"#utility.yul\":12355:12374   */\n              add\n                /* \"#utility.yul\":12349:12375   */\n              mload\n                /* \"#utility.yul\":12341:12347   */\n              dup3\n                /* \"#utility.yul\":12334:12376   */\n              sstore\n                /* \"#utility.yul\":12415:12416   */\n              0x01\n                /* \"#utility.yul\":12407:12413   */\n              dup3\n                /* \"#utility.yul\":12403:12417   */\n              add\n                /* \"#utility.yul\":12393:12417   */\n              swap2\n              pop\n                /* \"#utility.yul\":12462:12464   */\n              0x20\n                /* \"#utility.yul\":12451:12460   */\n              dup6\n                /* \"#utility.yul\":12447:12465   */\n              add\n                /* \"#utility.yul\":12434:12465   */\n              swap5\n              pop\n                /* \"#utility.yul\":12308:12312   */\n              0x20\n                /* \"#utility.yul\":12305:12306   */\n              dup2\n                /* \"#utility.yul\":12301:12313   */\n              add\n                /* \"#utility.yul\":12296:12313   */\n              swap1\n              pop\n                /* \"#utility.yul\":12271:12479   */\n              jump(tag_246)\n            tag_248:\n                /* \"#utility.yul\":12507:12513   */\n              dup7\n                /* \"#utility.yul\":12498:12505   */\n              dup4\n                /* \"#utility.yul\":12495:12514   */\n              lt\n                /* \"#utility.yul\":12492:12671   */\n              iszero\n              tag_249\n              jumpi\n                /* \"#utility.yul\":12565:12574   */\n              dup5\n                /* \"#utility.yul\":12560:12563   */\n              dup10\n                /* \"#utility.yul\":12556:12575   */\n              add\n                /* \"#utility.yul\":12550:12576   */\n              mload\n                /* \"#utility.yul\":12608:12656   */\n              tag_250\n                /* \"#utility.yul\":12650:12654   */\n              0x1f\n                /* \"#utility.yul\":12642:12648   */\n              dup10\n                /* \"#utility.yul\":12638:12655   */\n              and\n                /* \"#utility.yul\":12627:12636   */\n              dup3\n                /* \"#utility.yul\":12608:12656   */\n              tag_99\n              jump\t// in\n            tag_250:\n                /* \"#utility.yul\":12600:12606   */\n              dup4\n                /* \"#utility.yul\":12593:12657   */\n              sstore\n                /* \"#utility.yul\":12515:12671   */\n              pop\n                /* \"#utility.yul\":12492:12671   */\n            tag_249:\n                /* \"#utility.yul\":12717:12718   */\n              0x01\n                /* \"#utility.yul\":12713:12714   */\n              0x02\n                /* \"#utility.yul\":12705:12711   */\n              dup9\n                /* \"#utility.yul\":12701:12715   */\n              mul\n                /* \"#utility.yul\":12697:12719   */\n              add\n                /* \"#utility.yul\":12691:12695   */\n              dup9\n                /* \"#utility.yul\":12684:12720   */\n              sstore\n                /* \"#utility.yul\":12119:12730   */\n              pop\n              pop\n              pop\n                /* \"#utility.yul\":12082:12969   */\n            tag_241:\n              pop\n                /* \"#utility.yul\":11672:12975   */\n              pop\n              pop\n              pop\n                /* \"#utility.yul\":11580:12975   */\n              pop\n              pop\n              jump\t// out\n                /* \"#utility.yul\":12981:13129   */\n            tag_101:\n                /* \"#utility.yul\":13083:13094   */\n              0x00\n                /* \"#utility.yul\":13120:13123   */\n              dup2\n                /* \"#utility.yul\":13105:13123   */\n              swap1\n              pop\n                /* \"#utility.yul\":12981:13129   */\n              swap3\n              swap2\n              pop\n              pop\n              jump\t// out\n                /* \"#utility.yul\":13135:13525   */\n            tag_102:\n                /* \"#utility.yul\":13241:13244   */\n              0x00\n                /* \"#utility.yul\":13269:13308   */\n              tag_253\n                /* \"#utility.yul\":13302:13307   */\n              dup3\n                /* \"#utility.yul\":13269:13308   */\n              tag_71\n              jump\t// in\n            tag_253:\n                /* \"#utility.yul\":13324:13413   */\n              tag_254\n                /* \"#utility.yul\":13406:13412   */\n              dup2\n                /* \"#utility.yul\":13401:13404   */\n              dup6\n                /* \"#utility.yul\":13324:13413   */\n              tag_101\n              jump\t// in\n            tag_254:\n                /* \"#utility.yul\":13317:13413   */\n              swap4\n              pop\n                /* \"#utility.yul\":13422:13487   */\n              tag_255\n                /* \"#utility.yul\":13480:13486   */\n              dup2\n                /* \"#utility.yul\":13475:13478   */\n              dup6\n                /* \"#utility.yul\":13468:13472   */\n              0x20\n                /* \"#utility.yul\":13461:13466   */\n              dup7\n                /* \"#utility.yul\":13457:13473   */\n              add\n                /* \"#utility.yul\":13422:13487   */\n              tag_73\n              jump\t// in\n            tag_255:\n                /* \"#utility.yul\":13512:13518   */\n              dup1\n                /* \"#utility.yul\":13507:13510   */\n              dup5\n                /* \"#utility.yul\":13503:13519   */\n              add\n                /* \"#utility.yul\":13496:13519   */\n              swap2\n              pop\n                /* \"#utility.yul\":13245:13525   */\n              pop\n                /* \"#utility.yul\":13135:13525   */\n              swap3\n              swap2\n              pop\n              pop\n              jump\t// out\n                /* \"#utility.yul\":13531:13806   */\n            tag_54:\n                /* \"#utility.yul\":13663:13666   */\n              0x00\n                /* \"#utility.yul\":13685:13780   */\n              tag_257\n                /* \"#utility.yul\":13776:13779   */\n              dup3\n                /* \"#utility.yul\":13767:13773   */\n              dup5\n                /* \"#utility.yul\":13685:13780   */\n              tag_102\n              jump\t// in\n            tag_257:\n                /* \"#utility.yul\":13678:13780   */\n              swap2\n              pop\n                /* \"#utility.yul\":13797:13800   */\n              dup2\n                /* \"#utility.yul\":13790:13800   */\n              swap1\n              pop\n                /* \"#utility.yul\":13531:13806   */\n              swap3\n              swap2\n              pop\n              pop\n              jump\t// out\n\n            auxdata: 0xa264697066735822122035ee28e437bfb97c83d0d335fe4538d9de6c3ce8122495e094462439868b11ac64736f6c63430008180033\n        }\n    }\n\n    auxdata: 0xa2646970667358221220a21a682206dae372d3d60dd302ba39d20ab51e237eb1630527b4e67cf737c96c64736f6c63430008180033\n}\n",
				"bytecode": {
					"linkReferences": {},
					"object": "608060405234801561000f575f80fd5b506112008061001d5f395ff3fe608060405234801561000f575f80fd5b506004361061004a575f3560e01c80631563700f1461004e5780634b2542941461006a578063c5f19c2014610074578063f39f3035146100a4575b5f80fd5b6100686004803603810190610063919061034b565b6100d4565b005b61007261017d565b005b61008e60048036038101906100899190610389565b610208565b60405161009b919061046b565b60405180910390f35b6100be60048036038101906100b99190610389565b6102c0565b6040516100cb9190610505565b60405180910390f35b5f8083815481106100e8576100e761051e565b5b905f5260205f20015f9054906101000a900473ffffffffffffffffffffffffffffffffffffffff1690508073ffffffffffffffffffffffffffffffffffffffff16636057361d836040518263ffffffff1660e01b815260040161014b919061055a565b5f604051808303815f87803b158015610162575f80fd5b505af1158015610174573d5f803e3d5ffd5b50505050505050565b5f60405161018a906102fa565b604051809103905ff0801580156101a3573d5f803e3d5ffd5b5090505f81908060018154018082558091505060019003905f5260205f20015f9091909190916101000a81548173ffffffffffffffffffffffffffffffffffffffff021916908373ffffffffffffffffffffffffffffffffffffffff16021790555050565b60605f80838154811061021e5761021d61051e565b5b905f5260205f20015f9054906101000a900473ffffffffffffffffffffffffffffffffffffffff1690508073ffffffffffffffffffffffffffffffffffffffff16632e64cec16040518163ffffffff1660e01b81526004015f60405180830381865afa158015610290573d5f803e3d5ffd5b505050506040513d5f823e3d601f19601f820116820180604052508101906102b891906106d7565b915050919050565b5f81815481106102ce575f80fd5b905f5260205f20015f915054906101000a900473ffffffffffffffffffffffffffffffffffffffff1681565b610aac8061071f83390190565b5f604051905090565b5f80fd5b5f80fd5b5f819050919050565b61032a81610318565b8114610334575f80fd5b50565b5f8135905061034581610321565b92915050565b5f806040838503121561036157610360610310565b5b5f61036e85828601610337565b925050602061037f85828601610337565b9150509250929050565b5f6020828403121561039e5761039d610310565b5b5f6103ab84828501610337565b91505092915050565b5f81519050919050565b5f82825260208201905092915050565b5f819050602082019050919050565b6103e681610318565b82525050565b5f6103f783836103dd565b60208301905092915050565b5f602082019050919050565b5f610419826103b4565b61042381856103be565b935061042e836103ce565b805f5b8381101561045e57815161044588826103ec565b975061045083610403565b925050600181019050610431565b5085935050505092915050565b5f6020820190508181035f830152610483818461040f565b905092915050565b5f73ffffffffffffffffffffffffffffffffffffffff82169050919050565b5f819050919050565b5f6104cd6104c86104c38461048b565b6104aa565b61048b565b9050919050565b5f6104de826104b3565b9050919050565b5f6104ef826104d4565b9050919050565b6104ff816104e5565b82525050565b5f6020820190506105185f8301846104f6565b92915050565b7f4e487b71000000000000000000000000000000000000000000000000000000005f52603260045260245ffd5b61055481610318565b82525050565b5f60208201905061056d5f83018461054b565b92915050565b5f80fd5b5f601f19601f8301169050919050565b7f4e487b71000000000000000000000000000000000000000000000000000000005f52604160045260245ffd5b6105bd82610577565b810181811067ffffffffffffffff821117156105dc576105db610587565b5b80604052505050565b5f6105ee610307565b90506105fa82826105b4565b919050565b5f67ffffffffffffffff82111561061957610618610587565b5b602082029050602081019050919050565b5f80fd5b5f8151905061063c81610321565b92915050565b5f61065461064f846105ff565b6105e5565b905080838252602082019050602084028301858111156106775761067661062a565b5b835b818110156106a0578061068c888261062e565b845260208401935050602081019050610679565b5050509392505050565b5f82601f8301126106be576106bd610573565b5b81516106ce848260208601610642565b91505092915050565b5f602082840312156106ec576106eb610310565b5b5f82015167ffffffffffffffff81111561070957610708610314565b5b610715848285016106aa565b9150509291505056fe608060405234801561000f575f80fd5b50610a8f8061001d5f395ff3fe608060405234801561000f575f80fd5b5060043610610060575f3560e01c80632e64cec1146100645780632ebce631146100825780636057361d146100b35780636f760f41146100cf578063877d0867146100eb5780638bab8dd51461011b575b5f80fd5b61006c61014b565b604051610079919061040d565b60405180910390f35b61009c60048036038101906100979190610468565b6101a0565b6040516100aa92919061052c565b60405180910390f35b6100cd60048036038101906100c89190610468565b610255565b005b6100e960048036038101906100e49190610686565b61027d565b005b61010560048036038101906101009190610468565b610301565b60405161011291906106e0565b60405180910390f35b610135600480360381019061013091906106f9565b610320565b60405161014291906106e0565b60405180910390f35b60605f80548060200260200160405190810160405280929190818152602001828054801561019657602002820191905f5260205f20905b815481526020019060010190808311610182575b5050505050905090565b600181815481106101af575f80fd5b905f5260205f2090600202015f91509050805f0154908060010180546101d49061076d565b80601f01602080910402602001604051908101604052809291908181526020018280546102009061076d565b801561024b5780601f106102225761010080835404028352916020019161024b565b820191905f5260205f20905b81548152906001019060200180831161022e57829003601f168201915b5050505050905082565b5f81908060018154018082558091505060019003905f5260205f20015f909190919091505550565b6001604051806040016040528083815260200184815250908060018154018082558091505060019003905f5260205f2090600202015f909190919091505f820151815f015560208201518160010190816102d7919061093a565b505050806002836040516102eb9190610a43565b9081526020016040518091039020819055505050565b5f818154811061030f575f80fd5b905f5260205f20015f915090505481565b6002818051602081018201805184825260208301602085012081835280955050505050505f915090505481565b5f81519050919050565b5f82825260208201905092915050565b5f819050602082019050919050565b5f819050919050565b61038881610376565b82525050565b5f610399838361037f565b60208301905092915050565b5f602082019050919050565b5f6103bb8261034d565b6103c58185610357565b93506103d083610367565b805f5b838110156104005781516103e7888261038e565b97506103f2836103a5565b9250506001810190506103d3565b5085935050505092915050565b5f6020820190508181035f83015261042581846103b1565b905092915050565b5f604051905090565b5f80fd5b5f80fd5b61044781610376565b8114610451575f80fd5b50565b5f813590506104628161043e565b92915050565b5f6020828403121561047d5761047c610436565b5b5f61048a84828501610454565b91505092915050565b61049c81610376565b82525050565b5f81519050919050565b5f82825260208201905092915050565b5f5b838110156104d95780820151818401526020810190506104be565b5f8484015250505050565b5f601f19601f8301169050919050565b5f6104fe826104a2565b61050881856104ac565b93506105188185602086016104bc565b610521816104e4565b840191505092915050565b5f60408201905061053f5f830185610493565b818103602083015261055181846104f4565b90509392505050565b5f80fd5b5f80fd5b7f4e487b71000000000000000000000000000000000000000000000000000000005f52604160045260245ffd5b610598826104e4565b810181811067ffffffffffffffff821117156105b7576105b6610562565b5b80604052505050565b5f6105c961042d565b90506105d5828261058f565b919050565b5f67ffffffffffffffff8211156105f4576105f3610562565b5b6105fd826104e4565b9050602081019050919050565b828183375f83830152505050565b5f61062a610625846105da565b6105c0565b9050828152602081018484840111156106465761064561055e565b5b61065184828561060a565b509392505050565b5f82601f83011261066d5761066c61055a565b5b813561067d848260208601610618565b91505092915050565b5f806040838503121561069c5761069b610436565b5b5f83013567ffffffffffffffff8111156106b9576106b861043a565b5b6106c585828601610659565b92505060206106d685828601610454565b9150509250929050565b5f6020820190506106f35f830184610493565b92915050565b5f6020828403121561070e5761070d610436565b5b5f82013567ffffffffffffffff81111561072b5761072a61043a565b5b61073784828501610659565b91505092915050565b7f4e487b71000000000000000000000000000000000000000000000000000000005f52602260045260245ffd5b5f600282049050600182168061078457607f821691505b60208210810361079757610796610740565b5b50919050565b5f819050815f5260205f209050919050565b5f6020601f8301049050919050565b5f82821b905092915050565b5f600883026107f97fffffffffffffffffffffffffffffffffffffffffffffffffffffffffffffffff826107be565b61080386836107be565b95508019841693508086168417925050509392505050565b5f819050919050565b5f61083e61083961083484610376565b61081b565b610376565b9050919050565b5f819050919050565b61085783610824565b61086b61086382610845565b8484546107ca565b825550505050565b5f90565b61087f610873565b61088a81848461084e565b505050565b5b818110156108ad576108a25f82610877565b600181019050610890565b5050565b601f8211156108f2576108c38161079d565b6108cc846107af565b810160208510156108db578190505b6108ef6108e7856107af565b83018261088f565b50505b505050565b5f82821c905092915050565b5f6109125f19846008026108f7565b1980831691505092915050565b5f61092a8383610903565b9150826002028217905092915050565b610943826104a2565b67ffffffffffffffff81111561095c5761095b610562565b5b610966825461076d565b6109718282856108b1565b5f60209050601f8311600181146109a2575f8415610990578287015190505b61099a858261091f565b865550610a01565b601f1984166109b08661079d565b5f5b828110156109d7578489015182556001820191506020850194506020810190506109b2565b868310156109f457848901516109f0601f891682610903565b8355505b6001600288020188555050505b505050505050565b5f81905092915050565b5f610a1d826104a2565b610a278185610a09565b9350610a378185602086016104bc565b80840191505092915050565b5f610a4e8284610a13565b91508190509291505056fea264697066735822122035ee28e437bfb97c83d0d335fe4538d9de6c3ce8122495e094462439868b11ac64736f6c63430008180033a2646970667358221220a21a682206dae372d3d60dd302ba39d20ab51e237eb1630527b4e67cf737c96c64736f6c63430008180033",
					"opcodes": "PUSH1 0x80 PUSH1 0x40 MSTORE CALLVALUE DUP1 ISZERO PUSH2 0xF JUMPI PUSH0 DUP1 REVERT JUMPDEST POP PUSH2 0x1200 DUP1 PUSH2 0x1D PUSH0 CODECOPY PUSH0 RETURN INVALID PUSH1 0x80 PUSH1 0x40 MSTORE CALLVALUE DUP1 ISZERO PUSH2 0xF JUMPI PUSH0 DUP1 REVERT JUMPDEST POP PUSH1 0x4 CALLDATASIZE LT PUSH2 0x4A JUMPI PUSH0 CALLDATALOAD PUSH1 0xE0 SHR DUP1 PUSH4 0x1563700F EQ PUSH2 0x4E JUMPI DUP1 PUSH4 0x4B254294 EQ PUSH2 0x6A JUMPI DUP1 PUSH4 0xC5F19C20 EQ PUSH2 0x74 JUMPI DUP1 PUSH4 0xF39F3035 EQ PUSH2 0xA4 JUMPI JUMPDEST PUSH0 DUP1 REVERT JUMPDEST PUSH2 0x68 PUSH1 0x4 DUP1 CALLDATASIZE SUB DUP2 ADD SWAP1 PUSH2 0x63 SWAP2 SWAP1 PUSH2 0x34B JUMP JUMPDEST PUSH2 0xD4 JUMP JUMPDEST STOP JUMPDEST PUSH2 0x72 PUSH2 0x17D JUMP JUMPDEST STOP JUMPDEST PUSH2 0x8E PUSH1 0x4 DUP1 CALLDATASIZE SUB DUP2 ADD SWAP1 PUSH2 0x89 SWAP2 SWAP1 PUSH2 0x389 JUMP JUMPDEST PUSH2 0x208 JUMP JUMPDEST PUSH1 0x40 MLOAD PUSH2 0x9B SWAP2 SWAP1 PUSH2 0x46B JUMP JUMPDEST PUSH1 0x40 MLOAD DUP1 SWAP2 SUB SWAP1 RETURN JUMPDEST PUSH2 0xBE PUSH1 0x4 DUP1 CALLDATASIZE SUB DUP2 ADD SWAP1 PUSH2 0xB9 SWAP2 SWAP1 PUSH2 0x389 JUMP JUMPDEST PUSH2 0x2C0 JUMP JUMPDEST PUSH1 0x40 MLOAD PUSH2 0xCB SWAP2 SWAP1 PUSH2 0x505 JUMP JUMPDEST PUSH1 0x40 MLOAD DUP1 SWAP2 SUB SWAP1 RETURN JUMPDEST PUSH0 DUP1 DUP4 DUP2 SLOAD DUP2 LT PUSH2 0xE8 JUMPI PUSH2 0xE7 PUSH2 0x51E JUMP JUMPDEST JUMPDEST SWAP1 PUSH0 MSTORE PUSH1 0x20 PUSH0 KECCAK256 ADD PUSH0 SWAP1 SLOAD SWAP1 PUSH2 0x100 EXP SWAP1 DIV PUSH20 0xFFFFFFFFFFFFFFFFFFFFFFFFFFFFFFFFFFFFFFFF AND SWAP1 POP DUP1 PUSH20 0xFFFFFFFFFFFFFFFFFFFFFFFFFFFFFFFFFFFFFFFF AND PUSH4 0x6057361D DUP4 PUSH1 0x40 MLOAD DUP3 PUSH4 0xFFFFFFFF AND PUSH1 0xE0 SHL DUP2 MSTORE PUSH1 0x4 ADD PUSH2 0x14B SWAP2 SWAP1 PUSH2 0x55A JUMP JUMPDEST PUSH0 PUSH1 0x40 MLOAD DUP1 DUP4 SUB DUP2 PUSH0 DUP8 DUP1 EXTCODESIZE ISZERO DUP1 ISZERO PUSH2 0x162 JUMPI PUSH0 DUP1 REVERT JUMPDEST POP GAS CALL ISZERO DUP1 ISZERO PUSH2 0x174 JUMPI RETURNDATASIZE PUSH0 DUP1 RETURNDATACOPY RETURNDATASIZE PUSH0 REVERT JUMPDEST POP POP POP POP POP POP POP JUMP JUMPDEST PUSH0 PUSH1 0x40 MLOAD PUSH2 0x18A SWAP1 PUSH2 0x2FA JUMP JUMPDEST PUSH1 0x40 MLOAD DUP1 SWAP2 SUB SWAP1 PUSH0 CREATE DUP1 ISZERO DUP1 ISZERO PUSH2 0x1A3 JUMPI RETURNDATASIZE PUSH0 DUP1 RETURNDATACOPY RETURNDATASIZE PUSH0 REVERT JUMPDEST POP SWAP1 POP PUSH0 DUP2 SWAP1 DUP1 PUSH1 0x1 DUP2 SLOAD ADD DUP1 DUP3 SSTORE DUP1 SWAP2 POP POP PUSH1 0x1 SWAP1 SUB SWAP1 PUSH0 MSTORE PUSH1 0x20 PUSH0 KECCAK256 ADD PUSH0 SWAP1 SWAP2 SWAP1 SWAP2 SWAP1 SWAP2 PUSH2 0x100 EXP DUP2 SLOAD DUP2 PUSH20 0xFFFFFFFFFFFFFFFFFFFFFFFFFFFFFFFFFFFFFFFF MUL NOT AND SWAP1 DUP4 PUSH20 0xFFFFFFFFFFFFFFFFFFFFFFFFFFFFFFFFFFFFFFFF AND MUL OR SWAP1 SSTORE POP POP JUMP JUMPDEST PUSH1 0x60 PUSH0 DUP1 DUP4 DUP2 SLOAD DUP2 LT PUSH2 0x21E JUMPI PUSH2 0x21D PUSH2 0x51E JUMP JUMPDEST JUMPDEST SWAP1 PUSH0 MSTORE PUSH1 0x20 PUSH0 KECCAK256 ADD PUSH0 SWAP1 SLOAD SWAP1 PUSH2 0x100 EXP SWAP1 DIV PUSH20 0xFFFFFFFFFFFFFFFFFFFFFFFFFFFFFFFFFFFFFFFF AND SWAP1 POP DUP1 PUSH20 0xFFFFFFFFFFFFFFFFFFFFFFFFFFFFFFFFFFFFFFFF AND PUSH4 0x2E64CEC1 PUSH1 0x40 MLOAD DUP2 PUSH4 0xFFFFFFFF AND PUSH1 0xE0 SHL DUP2 MSTORE PUSH1 0x4 ADD PUSH0 PUSH1 0x40 MLOAD DUP1 DUP4 SUB DUP2 DUP7 GAS STATICCALL ISZERO DUP1 ISZERO PUSH2 0x290 JUMPI RETURNDATASIZE PUSH0 DUP1 RETURNDATACOPY RETURNDATASIZE PUSH0 REVERT JUMPDEST POP POP POP POP PUSH1 0x40 MLOAD RETURNDATASIZE PUSH0 DUP3 RETURNDATACOPY RETURNDATASIZE PUSH1 0x1F NOT PUSH1 0x1F DUP3 ADD AND DUP3 ADD DUP1 PUSH1 0x40 MSTORE POP DUP2 ADD SWAP1 PUSH2 0x2B8 SWAP2 SWAP1 PUSH2 0x6D7 JUMP JUMPDEST SWAP2 POP POP SWAP2 SWAP1 POP JUMP JUMPDEST PUSH0 DUP2 DUP2 SLOAD DUP2 LT PUSH2 0x2CE JUMPI PUSH0 DUP1 REVERT JUMPDEST SWAP1 PUSH0 MSTORE PUSH1 0x20 PUSH0 KECCAK256 ADD PUSH0 SWAP2 POP SLOAD SWAP1 PUSH2 0x100 EXP SWAP1 DIV PUSH20 0xFFFFFFFFFFFFFFFFFFFFFFFFFFFFFFFFFFFFFFFF AND DUP2 JUMP JUMPDEST PUSH2 0xAAC DUP1 PUSH2 0x71F DUP4 CODECOPY ADD SWAP1 JUMP JUMPDEST PUSH0 PUSH1 0x40 MLOAD SWAP1 POP SWAP1 JUMP JUMPDEST PUSH0 DUP1 REVERT JUMPDEST PUSH0 DUP1 REVERT JUMPDEST PUSH0 DUP2 SWAP1 POP SWAP2 SWAP1 POP JUMP JUMPDEST PUSH2 0x32A DUP2 PUSH2 0x318 JUMP JUMPDEST DUP2 EQ PUSH2 0x334 JUMPI PUSH0 DUP1 REVERT JUMPDEST POP JUMP JUMPDEST PUSH0 DUP2 CALLDATALOAD SWAP1 POP PUSH2 0x345 DUP2 PUSH2 0x321 JUMP JUMPDEST SWAP3 SWAP2 POP POP JUMP JUMPDEST PUSH0 DUP1 PUSH1 0x40 DUP4 DUP6 SUB SLT ISZERO PUSH2 0x361 JUMPI PUSH2 0x360 PUSH2 0x310 JUMP JUMPDEST JUMPDEST PUSH0 PUSH2 0x36E DUP6 DUP3 DUP7 ADD PUSH2 0x337 JUMP JUMPDEST SWAP3 POP POP PUSH1 0x20 PUSH2 0x37F DUP6 DUP3 DUP7 ADD PUSH2 0x337 JUMP JUMPDEST SWAP2 POP POP SWAP3 POP SWAP3 SWAP1 POP JUMP JUMPDEST PUSH0 PUSH1 0x20 DUP3 DUP5 SUB SLT ISZERO PUSH2 0x39E JUMPI PUSH2 0x39D PUSH2 0x310 JUMP JUMPDEST JUMPDEST PUSH0 PUSH2 0x3AB DUP5 DUP3 DUP6 ADD PUSH2 0x337 JUMP JUMPDEST SWAP2 POP POP SWAP3 SWAP2 POP POP JUMP JUMPDEST PUSH0 DUP2 MLOAD SWAP1 POP SWAP2 SWAP1 POP JUMP JUMPDEST PUSH0 DUP3 DUP3 MSTORE PUSH1 0x20 DUP3 ADD SWAP1 POP SWAP3 SWAP2 POP POP JUMP JUMPDEST PUSH0 DUP2 SWAP1 POP PUSH1 0x20 DUP3 ADD SWAP1 POP SWAP2 SWAP1 POP JUMP JUMPDEST PUSH2 0x3E6 DUP2 PUSH2 0x318 JUMP JUMPDEST DUP3 MSTORE POP POP JUMP JUMPDEST PUSH0 PUSH2 0x3F7 DUP4 DUP4 PUSH2 0x3DD JUMP JUMPDEST PUSH1 0x20 DUP4 ADD SWAP1 POP SWAP3 SWAP2 POP POP JUMP JUMPDEST PUSH0 PUSH1 0x20 DUP3 ADD SWAP1 POP SWAP2 SWAP1 POP JUMP JUMPDEST PUSH0 PUSH2 0x419 DUP3 PUSH2 0x3B4 JUMP JUMPDEST PUSH2 0x423 DUP2 DUP6 PUSH2 0x3BE JUMP JUMPDEST SWAP4 POP PUSH2 0x42E DUP4 PUSH2 0x3CE JUMP JUMPDEST DUP1 PUSH0 JUMPDEST DUP4 DUP2 LT ISZERO PUSH2 0x45E JUMPI DUP2 MLOAD PUSH2 0x445 DUP9 DUP3 PUSH2 0x3EC JUMP JUMPDEST SWAP8 POP PUSH2 0x450 DUP4 PUSH2 0x403 JUMP JUMPDEST SWAP3 POP POP PUSH1 0x1 DUP2 ADD SWAP1 POP PUSH2 0x431 JUMP JUMPDEST POP DUP6 SWAP4 POP POP POP POP SWAP3 SWAP2 POP POP JUMP JUMPDEST PUSH0 PUSH1 0x20 DUP3 ADD SWAP1 POP DUP2 DUP2 SUB PUSH0 DUP4 ADD MSTORE PUSH2 0x483 DUP2 DUP5 PUSH2 0x40F JUMP JUMPDEST SWAP1 POP SWAP3 SWAP2 POP POP JUMP JUMPDEST PUSH0 PUSH20 0xFFFFFFFFFFFFFFFFFFFFFFFFFFFFFFFFFFFFFFFF DUP3 AND SWAP1 POP SWAP2 SWAP1 POP JUMP JUMPDEST PUSH0 DUP2 SWAP1 POP SWAP2 SWAP1 POP JUMP JUMPDEST PUSH0 PUSH2 0x4CD PUSH2 0x4C8 PUSH2 0x4C3 DUP5 PUSH2 0x48B JUMP JUMPDEST PUSH2 0x4AA JUMP JUMPDEST PUSH2 0x48B JUMP JUMPDEST SWAP1 POP SWAP2 SWAP1 POP JUMP JUMPDEST PUSH0 PUSH2 0x4DE DUP3 PUSH2 0x4B3 JUMP JUMPDEST SWAP1 POP SWAP2 SWAP1 POP JUMP JUMPDEST PUSH0 PUSH2 0x4EF DUP3 PUSH2 0x4D4 JUMP JUMPDEST SWAP1 POP SWAP2 SWAP1 POP JUMP JUMPDEST PUSH2 0x4FF DUP2 PUSH2 0x4E5 JUMP JUMPDEST DUP3 MSTORE POP POP JUMP JUMPDEST PUSH0 PUSH1 0x20 DUP3 ADD SWAP1 POP PUSH2 0x518 PUSH0 DUP4 ADD DUP5 PUSH2 0x4F6 JUMP JUMPDEST SWAP3 SWAP2 POP POP JUMP JUMPDEST PUSH32 0x4E487B7100000000000000000000000000000000000000000000000000000000 PUSH0 MSTORE PUSH1 0x32 PUSH1 0x4 MSTORE PUSH1 0x24 PUSH0 REVERT JUMPDEST PUSH2 0x554 DUP2 PUSH2 0x318 JUMP JUMPDEST DUP3 MSTORE POP POP JUMP JUMPDEST PUSH0 PUSH1 0x20 DUP3 ADD SWAP1 POP PUSH2 0x56D PUSH0 DUP4 ADD DUP5 PUSH2 0x54B JUMP JUMPDEST SWAP3 SWAP2 POP POP JUMP JUMPDEST PUSH0 DUP1 REVERT JUMPDEST PUSH0 PUSH1 0x1F NOT PUSH1 0x1F DUP4 ADD AND SWAP1 POP SWAP2 SWAP1 POP JUMP JUMPDEST PUSH32 0x4E487B7100000000000000000000000000000000000000000000000000000000 PUSH0 MSTORE PUSH1 0x41 PUSH1 0x4 MSTORE PUSH1 0x24 PUSH0 REVERT JUMPDEST PUSH2 0x5BD DUP3 PUSH2 0x577 JUMP JUMPDEST DUP2 ADD DUP2 DUP2 LT PUSH8 0xFFFFFFFFFFFFFFFF DUP3 GT OR ISZERO PUSH2 0x5DC JUMPI PUSH2 0x5DB PUSH2 0x587 JUMP JUMPDEST JUMPDEST DUP1 PUSH1 0x40 MSTORE POP POP POP JUMP JUMPDEST PUSH0 PUSH2 0x5EE PUSH2 0x307 JUMP JUMPDEST SWAP1 POP PUSH2 0x5FA DUP3 DUP3 PUSH2 0x5B4 JUMP JUMPDEST SWAP2 SWAP1 POP JUMP JUMPDEST PUSH0 PUSH8 0xFFFFFFFFFFFFFFFF DUP3 GT ISZERO PUSH2 0x619 JUMPI PUSH2 0x618 PUSH2 0x587 JUMP JUMPDEST JUMPDEST PUSH1 0x20 DUP3 MUL SWAP1 POP PUSH1 0x20 DUP2 ADD SWAP1 POP SWAP2 SWAP1 POP JUMP JUMPDEST PUSH0 DUP1 REVERT JUMPDEST PUSH0 DUP2 MLOAD SWAP1 POP PUSH2 0x63C DUP2 PUSH2 0x321 JUMP JUMPDEST SWAP3 SWAP2 POP POP JUMP JUMPDEST PUSH0 PUSH2 0x654 PUSH2 0x64F DUP5 PUSH2 0x5FF JUMP JUMPDEST PUSH2 0x5E5 JUMP JUMPDEST SWAP1 POP DUP1 DUP4 DUP3 MSTORE PUSH1 0x20 DUP3 ADD SWAP1 POP PUSH1 0x20 DUP5 MUL DUP4 ADD DUP6 DUP2 GT ISZERO PUSH2 0x677 JUMPI PUSH2 0x676 PUSH2 0x62A JUMP JUMPDEST JUMPDEST DUP4 JUMPDEST DUP2 DUP2 LT ISZERO PUSH2 0x6A0 JUMPI DUP1 PUSH2 0x68C DUP9 DUP3 PUSH2 0x62E JUMP JUMPDEST DUP5 MSTORE PUSH1 0x20 DUP5 ADD SWAP4 POP POP PUSH1 0x20 DUP2 ADD SWAP1 POP PUSH2 0x679 JUMP JUMPDEST POP POP POP SWAP4 SWAP3 POP POP POP JUMP JUMPDEST PUSH0 DUP3 PUSH1 0x1F DUP4 ADD SLT PUSH2 0x6BE JUMPI PUSH2 0x6BD PUSH2 0x573 JUMP JUMPDEST JUMPDEST DUP2 MLOAD PUSH2 0x6CE DUP5 DUP3 PUSH1 0x20 DUP7 ADD PUSH2 0x642 JUMP JUMPDEST SWAP2 POP POP SWAP3 SWAP2 POP POP JUMP JUMPDEST PUSH0 PUSH1 0x20 DUP3 DUP5 SUB SLT ISZERO PUSH2 0x6EC JUMPI PUSH2 0x6EB PUSH2 0x310 JUMP JUMPDEST JUMPDEST PUSH0 DUP3 ADD MLOAD PUSH8 0xFFFFFFFFFFFFFFFF DUP2 GT ISZERO PUSH2 0x709 JUMPI PUSH2 0x708 PUSH2 0x314 JUMP JUMPDEST JUMPDEST PUSH2 0x715 DUP5 DUP3 DUP6 ADD PUSH2 0x6AA JUMP JUMPDEST SWAP2 POP POP SWAP3 SWAP2 POP POP JUMP INVALID PUSH1 0x80 PUSH1 0x40 MSTORE CALLVALUE DUP1 ISZERO PUSH2 0xF JUMPI PUSH0 DUP1 REVERT JUMPDEST POP PUSH2 0xA8F DUP1 PUSH2 0x1D PUSH0 CODECOPY PUSH0 RETURN INVALID PUSH1 0x80 PUSH1 0x40 MSTORE CALLVALUE DUP1 ISZERO PUSH2 0xF JUMPI PUSH0 DUP1 REVERT JUMPDEST POP PUSH1 0x4 CALLDATASIZE LT PUSH2 0x60 JUMPI PUSH0 CALLDATALOAD PUSH1 0xE0 SHR DUP1 PUSH4 0x2E64CEC1 EQ PUSH2 0x64 JUMPI DUP1 PUSH4 0x2EBCE631 EQ PUSH2 0x82 JUMPI DUP1 PUSH4 0x6057361D EQ PUSH2 0xB3 JUMPI DUP1 PUSH4 0x6F760F41 EQ PUSH2 0xCF JUMPI DUP1 PUSH4 0x877D0867 EQ PUSH2 0xEB JUMPI DUP1 PUSH4 0x8BAB8DD5 EQ PUSH2 0x11B JUMPI JUMPDEST PUSH0 DUP1 REVERT JUMPDEST PUSH2 0x6C PUSH2 0x14B JUMP JUMPDEST PUSH1 0x40 MLOAD PUSH2 0x79 SWAP2 SWAP1 PUSH2 0x40D JUMP JUMPDEST PUSH1 0x40 MLOAD DUP1 SWAP2 SUB SWAP1 RETURN JUMPDEST PUSH2 0x9C PUSH1 0x4 DUP1 CALLDATASIZE SUB DUP2 ADD SWAP1 PUSH2 0x97 SWAP2 SWAP1 PUSH2 0x468 JUMP JUMPDEST PUSH2 0x1A0 JUMP JUMPDEST PUSH1 0x40 MLOAD PUSH2 0xAA SWAP3 SWAP2 SWAP1 PUSH2 0x52C JUMP JUMPDEST PUSH1 0x40 MLOAD DUP1 SWAP2 SUB SWAP1 RETURN JUMPDEST PUSH2 0xCD PUSH1 0x4 DUP1 CALLDATASIZE SUB DUP2 ADD SWAP1 PUSH2 0xC8 SWAP2 SWAP1 PUSH2 0x468 JUMP JUMPDEST PUSH2 0x255 JUMP JUMPDEST STOP JUMPDEST PUSH2 0xE9 PUSH1 0x4 DUP1 CALLDATASIZE SUB DUP2 ADD SWAP1 PUSH2 0xE4 SWAP2 SWAP1 PUSH2 0x686 JUMP JUMPDEST PUSH2 0x27D JUMP JUMPDEST STOP JUMPDEST PUSH2 0x105 PUSH1 0x4 DUP1 CALLDATASIZE SUB DUP2 ADD SWAP1 PUSH2 0x100 SWAP2 SWAP1 PUSH2 0x468 JUMP JUMPDEST PUSH2 0x301 JUMP JUMPDEST PUSH1 0x40 MLOAD PUSH2 0x112 SWAP2 SWAP1 PUSH2 0x6E0 JUMP JUMPDEST PUSH1 0x40 MLOAD DUP1 SWAP2 SUB SWAP1 RETURN JUMPDEST PUSH2 0x135 PUSH1 0x4 DUP1 CALLDATASIZE SUB DUP2 ADD SWAP1 PUSH2 0x130 SWAP2 SWAP1 PUSH2 0x6F9 JUMP JUMPDEST PUSH2 0x320 JUMP JUMPDEST PUSH1 0x40 MLOAD PUSH2 0x142 SWAP2 SWAP1 PUSH2 0x6E0 JUMP JUMPDEST PUSH1 0x40 MLOAD DUP1 SWAP2 SUB SWAP1 RETURN JUMPDEST PUSH1 0x60 PUSH0 DUP1 SLOAD DUP1 PUSH1 0x20 MUL PUSH1 0x20 ADD PUSH1 0x40 MLOAD SWAP1 DUP2 ADD PUSH1 0x40 MSTORE DUP1 SWAP3 SWAP2 SWAP1 DUP2 DUP2 MSTORE PUSH1 0x20 ADD DUP3 DUP1 SLOAD DUP1 ISZERO PUSH2 0x196 JUMPI PUSH1 0x20 MUL DUP3 ADD SWAP2 SWAP1 PUSH0 MSTORE PUSH1 0x20 PUSH0 KECCAK256 SWAP1 JUMPDEST DUP2 SLOAD DUP2 MSTORE PUSH1 0x20 ADD SWAP1 PUSH1 0x1 ADD SWAP1 DUP1 DUP4 GT PUSH2 0x182 JUMPI JUMPDEST POP POP POP POP POP SWAP1 POP SWAP1 JUMP JUMPDEST PUSH1 0x1 DUP2 DUP2 SLOAD DUP2 LT PUSH2 0x1AF JUMPI PUSH0 DUP1 REVERT JUMPDEST SWAP1 PUSH0 MSTORE PUSH1 0x20 PUSH0 KECCAK256 SWAP1 PUSH1 0x2 MUL ADD PUSH0 SWAP2 POP SWAP1 POP DUP1 PUSH0 ADD SLOAD SWAP1 DUP1 PUSH1 0x1 ADD DUP1 SLOAD PUSH2 0x1D4 SWAP1 PUSH2 0x76D JUMP JUMPDEST DUP1 PUSH1 0x1F ADD PUSH1 0x20 DUP1 SWAP2 DIV MUL PUSH1 0x20 ADD PUSH1 0x40 MLOAD SWAP1 DUP2 ADD PUSH1 0x40 MSTORE DUP1 SWAP3 SWAP2 SWAP1 DUP2 DUP2 MSTORE PUSH1 0x20 ADD DUP3 DUP1 SLOAD PUSH2 0x200 SWAP1 PUSH2 0x76D JUMP JUMPDEST DUP1 ISZERO PUSH2 0x24B JUMPI DUP1 PUSH1 0x1F LT PUSH2 0x222 JUMPI PUSH2 0x100 DUP1 DUP4 SLOAD DIV MUL DUP4 MSTORE SWAP2 PUSH1 0x20 ADD SWAP2 PUSH2 0x24B JUMP JUMPDEST DUP3 ADD SWAP2 SWAP1 PUSH0 MSTORE PUSH1 0x20 PUSH0 KECCAK256 SWAP1 JUMPDEST DUP2 SLOAD DUP2 MSTORE SWAP1 PUSH1 0x1 ADD SWAP1 PUSH1 0x20 ADD DUP1 DUP4 GT PUSH2 0x22E JUMPI DUP3 SWAP1 SUB PUSH1 0x1F AND DUP3 ADD SWAP2 JUMPDEST POP POP POP POP POP SWAP1 POP DUP3 JUMP JUMPDEST PUSH0 DUP2 SWAP1 DUP1 PUSH1 0x1 DUP2 SLOAD ADD DUP1 DUP3 SSTORE DUP1 SWAP2 POP POP PUSH1 0x1 SWAP1 SUB SWAP1 PUSH0 MSTORE PUSH1 0x20 PUSH0 KECCAK256 ADD PUSH0 SWAP1 SWAP2 SWAP1 SWAP2 SWAP1 SWAP2 POP SSTORE POP JUMP JUMPDEST PUSH1 0x1 PUSH1 0x40 MLOAD DUP1 PUSH1 0x40 ADD PUSH1 0x40 MSTORE DUP1 DUP4 DUP2 MSTORE PUSH1 0x20 ADD DUP5 DUP2 MSTORE POP SWAP1 DUP1 PUSH1 0x1 DUP2 SLOAD ADD DUP1 DUP3 SSTORE DUP1 SWAP2 POP POP PUSH1 0x1 SWAP1 SUB SWAP1 PUSH0 MSTORE PUSH1 0x20 PUSH0 KECCAK256 SWAP1 PUSH1 0x2 MUL ADD PUSH0 SWAP1 SWAP2 SWAP1 SWAP2 SWAP1 SWAP2 POP PUSH0 DUP3 ADD MLOAD DUP2 PUSH0 ADD SSTORE PUSH1 0x20 DUP3 ADD MLOAD DUP2 PUSH1 0x1 ADD SWAP1 DUP2 PUSH2 0x2D7 SWAP2 SWAP1 PUSH2 0x93A JUMP JUMPDEST POP POP POP DUP1 PUSH1 0x2 DUP4 PUSH1 0x40 MLOAD PUSH2 0x2EB SWAP2 SWAP1 PUSH2 0xA43 JUMP JUMPDEST SWAP1 DUP2 MSTORE PUSH1 0x20 ADD PUSH1 0x40 MLOAD DUP1 SWAP2 SUB SWAP1 KECCAK256 DUP2 SWAP1 SSTORE POP POP POP JUMP JUMPDEST PUSH0 DUP2 DUP2 SLOAD DUP2 LT PUSH2 0x30F JUMPI PUSH0 DUP1 REVERT JUMPDEST SWAP1 PUSH0 MSTORE PUSH1 0x20 PUSH0 KECCAK256 ADD PUSH0 SWAP2 POP SWAP1 POP SLOAD DUP2 JUMP JUMPDEST PUSH1 0x2 DUP2 DUP1 MLOAD PUSH1 0x20 DUP2 ADD DUP3 ADD DUP1 MLOAD DUP5 DUP3 MSTORE PUSH1 0x20 DUP4 ADD PUSH1 0x20 DUP6 ADD KECCAK256 DUP2 DUP4 MSTORE DUP1 SWAP6 POP POP POP POP POP POP PUSH0 SWAP2 POP SWAP1 POP SLOAD DUP2 JUMP JUMPDEST PUSH0 DUP2 MLOAD SWAP1 POP SWAP2 SWAP1 POP JUMP JUMPDEST PUSH0 DUP3 DUP3 MSTORE PUSH1 0x20 DUP3 ADD SWAP1 POP SWAP3 SWAP2 POP POP JUMP JUMPDEST PUSH0 DUP2 SWAP1 POP PUSH1 0x20 DUP3 ADD SWAP1 POP SWAP2 SWAP1 POP JUMP JUMPDEST PUSH0 DUP2 SWAP1 POP SWAP2 SWAP1 POP JUMP JUMPDEST PUSH2 0x388 DUP2 PUSH2 0x376 JUMP JUMPDEST DUP3 MSTORE POP POP JUMP JUMPDEST PUSH0 PUSH2 0x399 DUP4 DUP4 PUSH2 0x37F JUMP JUMPDEST PUSH1 0x20 DUP4 ADD SWAP1 POP SWAP3 SWAP2 POP POP JUMP JUMPDEST PUSH0 PUSH1 0x20 DUP3 ADD SWAP1 POP SWAP2 SWAP1 POP JUMP JUMPDEST PUSH0 PUSH2 0x3BB DUP3 PUSH2 0x34D JUMP JUMPDEST PUSH2 0x3C5 DUP2 DUP6 PUSH2 0x357 JUMP JUMPDEST SWAP4 POP PUSH2 0x3D0 DUP4 PUSH2 0x367 JUMP JUMPDEST DUP1 PUSH0 JUMPDEST DUP4 DUP2 LT ISZERO PUSH2 0x400 JUMPI DUP2 MLOAD PUSH2 0x3E7 DUP9 DUP3 PUSH2 0x38E JUMP JUMPDEST SWAP8 POP PUSH2 0x3F2 DUP4 PUSH2 0x3A5 JUMP JUMPDEST SWAP3 POP POP PUSH1 0x1 DUP2 ADD SWAP1 POP PUSH2 0x3D3 JUMP JUMPDEST POP DUP6 SWAP4 POP POP POP POP SWAP3 SWAP2 POP POP JUMP JUMPDEST PUSH0 PUSH1 0x20 DUP3 ADD SWAP1 POP DUP2 DUP2 SUB PUSH0 DUP4 ADD MSTORE PUSH2 0x425 DUP2 DUP5 PUSH2 0x3B1 JUMP JUMPDEST SWAP1 POP SWAP3 SWAP2 POP POP JUMP JUMPDEST PUSH0 PUSH1 0x40 MLOAD SWAP1 POP SWAP1 JUMP JUMPDEST PUSH0 DUP1 REVERT JUMPDEST PUSH0 DUP1 REVERT JUMPDEST PUSH2 0x447 DUP2 PUSH2 0x376 JUMP JUMPDEST DUP2 EQ PUSH2 0x451 JUMPI PUSH0 DUP1 REVERT JUMPDEST POP JUMP JUMPDEST PUSH0 DUP2 CALLDATALOAD SWAP1 POP PUSH2 0x462 DUP2 PUSH2 0x43E JUMP JUMPDEST SWAP3 SWAP2 POP POP JUMP JUMPDEST PUSH0 PUSH1 0x20 DUP3 DUP5 SUB SLT ISZERO PUSH2 0x47D JUMPI PUSH2 0x47C PUSH2 0x436 JUMP JUMPDEST JUMPDEST PUSH0 PUSH2 0x48A DUP5 DUP3 DUP6 ADD PUSH2 0x454 JUMP JUMPDEST SWAP2 POP POP SWAP3 SWAP2 POP POP JUMP JUMPDEST PUSH2 0x49C DUP2 PUSH2 0x376 JUMP JUMPDEST DUP3 MSTORE POP POP JUMP JUMPDEST PUSH0 DUP2 MLOAD SWAP1 POP SWAP2 SWAP1 POP JUMP JUMPDEST PUSH0 DUP3 DUP3 MSTORE PUSH1 0x20 DUP3 ADD SWAP1 POP SWAP3 SWAP2 POP POP JUMP JUMPDEST PUSH0 JUMPDEST DUP4 DUP2 LT ISZERO PUSH2 0x4D9 JUMPI DUP1 DUP3 ADD MLOAD DUP2 DUP5 ADD MSTORE PUSH1 0x20 DUP2 ADD SWAP1 POP PUSH2 0x4BE JUMP JUMPDEST PUSH0 DUP5 DUP5 ADD MSTORE POP POP POP POP JUMP JUMPDEST PUSH0 PUSH1 0x1F NOT PUSH1 0x1F DUP4 ADD AND SWAP1 POP SWAP2 SWAP1 POP JUMP JUMPDEST PUSH0 PUSH2 0x4FE DUP3 PUSH2 0x4A2 JUMP JUMPDEST PUSH2 0x508 DUP2 DUP6 PUSH2 0x4AC JUMP JUMPDEST SWAP4 POP PUSH2 0x518 DUP2 DUP6 PUSH1 0x20 DUP7 ADD PUSH2 0x4BC JUMP JUMPDEST PUSH2 0x521 DUP2 PUSH2 0x4E4 JUMP JUMPDEST DUP5 ADD SWAP2 POP POP SWAP3 SWAP2 POP POP JUMP JUMPDEST PUSH0 PUSH1 0x40 DUP3 ADD SWAP1 POP PUSH2 0x53F PUSH0 DUP4 ADD DUP6 PUSH2 0x493 JUMP JUMPDEST DUP2 DUP2 SUB PUSH1 0x20 DUP4 ADD MSTORE PUSH2 0x551 DUP2 DUP5 PUSH2 0x4F4 JUMP JUMPDEST SWAP1 POP SWAP4 SWAP3 POP POP POP JUMP JUMPDEST PUSH0 DUP1 REVERT JUMPDEST PUSH0 DUP1 REVERT JUMPDEST PUSH32 0x4E487B7100000000000000000000000000000000000000000000000000000000 PUSH0 MSTORE PUSH1 0x41 PUSH1 0x4 MSTORE PUSH1 0x24 PUSH0 REVERT JUMPDEST PUSH2 0x598 DUP3 PUSH2 0x4E4 JUMP JUMPDEST DUP2 ADD DUP2 DUP2 LT PUSH8 0xFFFFFFFFFFFFFFFF DUP3 GT OR ISZERO PUSH2 0x5B7 JUMPI PUSH2 0x5B6 PUSH2 0x562 JUMP JUMPDEST JUMPDEST DUP1 PUSH1 0x40 MSTORE POP POP POP JUMP JUMPDEST PUSH0 PUSH2 0x5C9 PUSH2 0x42D JUMP JUMPDEST SWAP1 POP PUSH2 0x5D5 DUP3 DUP3 PUSH2 0x58F JUMP JUMPDEST SWAP2 SWAP1 POP JUMP JUMPDEST PUSH0 PUSH8 0xFFFFFFFFFFFFFFFF DUP3 GT ISZERO PUSH2 0x5F4 JUMPI PUSH2 0x5F3 PUSH2 0x562 JUMP JUMPDEST JUMPDEST PUSH2 0x5FD DUP3 PUSH2 0x4E4 JUMP JUMPDEST SWAP1 POP PUSH1 0x20 DUP2 ADD SWAP1 POP SWAP2 SWAP1 POP JUMP JUMPDEST DUP3 DUP2 DUP4 CALLDATACOPY PUSH0 DUP4 DUP4 ADD MSTORE POP POP POP JUMP JUMPDEST PUSH0 PUSH2 0x62A PUSH2 0x625 DUP5 PUSH2 0x5DA JUMP JUMPDEST PUSH2 0x5C0 JUMP JUMPDEST SWAP1 POP DUP3 DUP2 MSTORE PUSH1 0x20 DUP2 ADD DUP5 DUP5 DUP5 ADD GT ISZERO PUSH2 0x646 JUMPI PUSH2 0x645 PUSH2 0x55E JUMP JUMPDEST JUMPDEST PUSH2 0x651 DUP5 DUP3 DUP6 PUSH2 0x60A JUMP JUMPDEST POP SWAP4 SWAP3 POP POP POP JUMP JUMPDEST PUSH0 DUP3 PUSH1 0x1F DUP4 ADD SLT PUSH2 0x66D JUMPI PUSH2 0x66C PUSH2 0x55A JUMP JUMPDEST JUMPDEST DUP2 CALLDATALOAD PUSH2 0x67D DUP5 DUP3 PUSH1 0x20 DUP7 ADD PUSH2 0x618 JUMP JUMPDEST SWAP2 POP POP SWAP3 SWAP2 POP POP JUMP JUMPDEST PUSH0 DUP1 PUSH1 0x40 DUP4 DUP6 SUB SLT ISZERO PUSH2 0x69C JUMPI PUSH2 0x69B PUSH2 0x436 JUMP JUMPDEST JUMPDEST PUSH0 DUP4 ADD CALLDATALOAD PUSH8 0xFFFFFFFFFFFFFFFF DUP2 GT ISZERO PUSH2 0x6B9 JUMPI PUSH2 0x6B8 PUSH2 0x43A JUMP JUMPDEST JUMPDEST PUSH2 0x6C5 DUP6 DUP3 DUP7 ADD PUSH2 0x659 JUMP JUMPDEST SWAP3 POP POP PUSH1 0x20 PUSH2 0x6D6 DUP6 DUP3 DUP7 ADD PUSH2 0x454 JUMP JUMPDEST SWAP2 POP POP SWAP3 POP SWAP3 SWAP1 POP JUMP JUMPDEST PUSH0 PUSH1 0x20 DUP3 ADD SWAP1 POP PUSH2 0x6F3 PUSH0 DUP4 ADD DUP5 PUSH2 0x493 JUMP JUMPDEST SWAP3 SWAP2 POP POP JUMP JUMPDEST PUSH0 PUSH1 0x20 DUP3 DUP5 SUB SLT ISZERO PUSH2 0x70E JUMPI PUSH2 0x70D PUSH2 0x436 JUMP JUMPDEST JUMPDEST PUSH0 DUP3 ADD CALLDATALOAD PUSH8 0xFFFFFFFFFFFFFFFF DUP2 GT ISZERO PUSH2 0x72B JUMPI PUSH2 0x72A PUSH2 0x43A JUMP JUMPDEST JUMPDEST PUSH2 0x737 DUP5 DUP3 DUP6 ADD PUSH2 0x659 JUMP JUMPDEST SWAP2 POP POP SWAP3 SWAP2 POP POP JUMP JUMPDEST PUSH32 0x4E487B7100000000000000000000000000000000000000000000000000000000 PUSH0 MSTORE PUSH1 0x22 PUSH1 0x4 MSTORE PUSH1 0x24 PUSH0 REVERT JUMPDEST PUSH0 PUSH1 0x2 DUP3 DIV SWAP1 POP PUSH1 0x1 DUP3 AND DUP1 PUSH2 0x784 JUMPI PUSH1 0x7F DUP3 AND SWAP2 POP JUMPDEST PUSH1 0x20 DUP3 LT DUP2 SUB PUSH2 0x797 JUMPI PUSH2 0x796 PUSH2 0x740 JUMP JUMPDEST JUMPDEST POP SWAP2 SWAP1 POP JUMP JUMPDEST PUSH0 DUP2 SWAP1 POP DUP2 PUSH0 MSTORE PUSH1 0x20 PUSH0 KECCAK256 SWAP1 POP SWAP2 SWAP1 POP JUMP JUMPDEST PUSH0 PUSH1 0x20 PUSH1 0x1F DUP4 ADD DIV SWAP1 POP SWAP2 SWAP1 POP JUMP JUMPDEST PUSH0 DUP3 DUP3 SHL SWAP1 POP SWAP3 SWAP2 POP POP JUMP JUMPDEST PUSH0 PUSH1 0x8 DUP4 MUL PUSH2 0x7F9 PUSH32 0xFFFFFFFFFFFFFFFFFFFFFFFFFFFFFFFFFFFFFFFFFFFFFFFFFFFFFFFFFFFFFFFF DUP3 PUSH2 0x7BE JUMP JUMPDEST PUSH2 0x803 DUP7 DUP4 PUSH2 0x7BE JUMP JUMPDEST SWAP6 POP DUP1 NOT DUP5 AND SWAP4 POP DUP1 DUP7 AND DUP5 OR SWAP3 POP POP POP SWAP4 SWAP3 POP POP POP JUMP JUMPDEST PUSH0 DUP2 SWAP1 POP SWAP2 SWAP1 POP JUMP JUMPDEST PUSH0 PUSH2 0x83E PUSH2 0x839 PUSH2 0x834 DUP5 PUSH2 0x376 JUMP JUMPDEST PUSH2 0x81B JUMP JUMPDEST PUSH2 0x376 JUMP JUMPDEST SWAP1 POP SWAP2 SWAP1 POP JUMP JUMPDEST PUSH0 DUP2 SWAP1 POP SWAP2 SWAP1 POP JUMP JUMPDEST PUSH2 0x857 DUP4 PUSH2 0x824 JUMP JUMPDEST PUSH2 0x86B PUSH2 0x863 DUP3 PUSH2 0x845 JUMP JUMPDEST DUP5 DUP5 SLOAD PUSH2 0x7CA JUMP JUMPDEST DUP3 SSTORE POP POP POP POP JUMP JUMPDEST PUSH0 SWAP1 JUMP JUMPDEST PUSH2 0x87F PUSH2 0x873 JUMP JUMPDEST PUSH2 0x88A DUP2 DUP5 DUP5 PUSH2 0x84E JUMP JUMPDEST POP POP POP JUMP JUMPDEST JUMPDEST DUP2 DUP2 LT ISZERO PUSH2 0x8AD JUMPI PUSH2 0x8A2 PUSH0 DUP3 PUSH2 0x877 JUMP JUMPDEST PUSH1 0x1 DUP2 ADD SWAP1 POP PUSH2 0x890 JUMP JUMPDEST POP POP JUMP JUMPDEST PUSH1 0x1F DUP3 GT ISZERO PUSH2 0x8F2 JUMPI PUSH2 0x8C3 DUP2 PUSH2 0x79D JUMP JUMPDEST PUSH2 0x8CC DUP5 PUSH2 0x7AF JUMP JUMPDEST DUP2 ADD PUSH1 0x20 DUP6 LT ISZERO PUSH2 0x8DB JUMPI DUP2 SWAP1 POP JUMPDEST PUSH2 0x8EF PUSH2 0x8E7 DUP6 PUSH2 0x7AF JUMP JUMPDEST DUP4 ADD DUP3 PUSH2 0x88F JUMP JUMPDEST POP POP JUMPDEST POP POP POP JUMP JUMPDEST PUSH0 DUP3 DUP3 SHR SWAP1 POP SWAP3 SWAP2 POP POP JUMP JUMPDEST PUSH0 PUSH2 0x912 PUSH0 NOT DUP5 PUSH1 0x8 MUL PUSH2 0x8F7 JUMP JUMPDEST NOT DUP1 DUP4 AND SWAP2 POP POP SWAP3 SWAP2 POP POP JUMP JUMPDEST PUSH0 PUSH2 0x92A DUP4 DUP4 PUSH2 0x903 JUMP JUMPDEST SWAP2 POP DUP3 PUSH1 0x2 MUL DUP3 OR SWAP1 POP SWAP3 SWAP2 POP POP JUMP JUMPDEST PUSH2 0x943 DUP3 PUSH2 0x4A2 JUMP JUMPDEST PUSH8 0xFFFFFFFFFFFFFFFF DUP2 GT ISZERO PUSH2 0x95C JUMPI PUSH2 0x95B PUSH2 0x562 JUMP JUMPDEST JUMPDEST PUSH2 0x966 DUP3 SLOAD PUSH2 0x76D JUMP JUMPDEST PUSH2 0x971 DUP3 DUP3 DUP6 PUSH2 0x8B1 JUMP JUMPDEST PUSH0 PUSH1 0x20 SWAP1 POP PUSH1 0x1F DUP4 GT PUSH1 0x1 DUP2 EQ PUSH2 0x9A2 JUMPI PUSH0 DUP5 ISZERO PUSH2 0x990 JUMPI DUP3 DUP8 ADD MLOAD SWAP1 POP JUMPDEST PUSH2 0x99A DUP6 DUP3 PUSH2 0x91F JUMP JUMPDEST DUP7 SSTORE POP PUSH2 0xA01 JUMP JUMPDEST PUSH1 0x1F NOT DUP5 AND PUSH2 0x9B0 DUP7 PUSH2 0x79D JUMP JUMPDEST PUSH0 JUMPDEST DUP3 DUP2 LT ISZERO PUSH2 0x9D7 JUMPI DUP5 DUP10 ADD MLOAD DUP3 SSTORE PUSH1 0x1 DUP3 ADD SWAP2 POP PUSH1 0x20 DUP6 ADD SWAP5 POP PUSH1 0x20 DUP2 ADD SWAP1 POP PUSH2 0x9B2 JUMP JUMPDEST DUP7 DUP4 LT ISZERO PUSH2 0x9F4 JUMPI DUP5 DUP10 ADD MLOAD PUSH2 0x9F0 PUSH1 0x1F DUP10 AND DUP3 PUSH2 0x903 JUMP JUMPDEST DUP4 SSTORE POP JUMPDEST PUSH1 0x1 PUSH1 0x2 DUP9 MUL ADD DUP9 SSTORE POP POP POP JUMPDEST POP POP POP POP POP POP JUMP JUMPDEST PUSH0 DUP2 SWAP1 POP SWAP3 SWAP2 POP POP JUMP JUMPDEST PUSH0 PUSH2 0xA1D DUP3 PUSH2 0x4A2 JUMP JUMPDEST PUSH2 0xA27 DUP2 DUP6 PUSH2 0xA09 JUMP JUMPDEST SWAP4 POP PUSH2 0xA37 DUP2 DUP6 PUSH1 0x20 DUP7 ADD PUSH2 0x4BC JUMP JUMPDEST DUP1 DUP5 ADD SWAP2 POP POP SWAP3 SWAP2 POP POP JUMP JUMPDEST PUSH0 PUSH2 0xA4E DUP3 DUP5 PUSH2 0xA13 JUMP JUMPDEST SWAP2 POP DUP2 SWAP1 POP SWAP3 SWAP2 POP POP JUMP INVALID LOG2 PUSH5 0x6970667358 0x22 SLT KECCAK256 CALLDATALOAD 0xEE 0x28 0xE4 CALLDATACOPY 0xBF 0xB9 PUSH29 0x83D0D335FE4538D9DE6C3CE8122495E094462439868B11AC64736F6C63 NUMBER STOP ADDMOD XOR STOP CALLER LOG2 PUSH5 0x6970667358 0x22 SLT KECCAK256 LOG2 BYTE PUSH9 0x2206DAE372D3D60DD3 MUL 0xBA CODECOPY 0xD2 EXP 0xB5 0x1E 0x23 PUSH31 0xB1630527B4E67CF737C96C64736F6C63430008180033000000000000000000 "
				},
				"gasEstimates": {
					"creation": {
						"codeDepositCost": "921600",
						"executionCost": "953",
						"totalCost": "922553"
					},
					"external": {
						"createSimplestorageContract()": "infinite",
						"listOfSimpleStorageContracts(uint256)": "infinite",
						"sfGet(uint256)": "infinite",
						"sfStore(uint256,uint256)": "infinite"
					}
				},
				"methodIdentifiers": {
					"createSimplestorageContract()": "4b254294",
					"listOfSimpleStorageContracts(uint256)": "f39f3035",
					"sfGet(uint256)": "c5f19c20",
					"sfStore(uint256,uint256)": "1563700f"
				}
			},
			"storageLayout": {
				"storage": [
					{
						"astId": 70,
						"contract": "contracts/StorageFactory.sol:StorageFactory",
						"label": "listOfSimpleStorageContracts",
						"offset": 0,
						"slot": "0",
						"type": "t_array(t_contract(SimpleStorage)62)dyn_storage"
					}
				],
				"types": {
					"t_array(t_contract(SimpleStorage)62)dyn_storage": {
						"base": "t_contract(SimpleStorage)62",
						"encoding": "dynamic_array",
						"label": "contract SimpleStorage[]",
						"numberOfBytes": "32"
					},
					"t_contract(SimpleStorage)62": {
						"encoding": "inplace",
						"label": "contract SimpleStorage",
						"numberOfBytes": "20"
					}
				}
			},
			"userdoc": {
				"kind": "user",
				"methods": {},
				"version": 1
			}
		}
	}
}